:0400000057EF00F0C6
:1000080046074607460746074607460746073B078B
:100018002406460793054607460746074607460748
:100028004607460746074607460746074607460760
:10003800460746074607D506150746074607CA0571
:1000480046074607460746072B0046074607460762
:10005800300646074607460746074607A506AE0682
:1000680001051B0446074607460746074607460795
:10007800460746072B00460746073C062B002B0081
:100088002B002B002B002B002B002B0046074607CC
:1000980046074607460746072B002B002B002B0078
:0A00A80046074607FF00B8EF0BF013
:10100000004E1300000000FC15000000000000006E
:1010100000000000000000000000000000000000D0
:10102000000000000000000000181BFA1ADC1A0083
:10103000009C1500000000000000000000000000FF
:1010400000361B0000721B000000000000000000C2
:1010500000000000000000221A0000000000008CC8
:091060001C00000240000F00001A
:10106C006F0060FF84F06F00E8FF85F06F00ECFF0D
:10107C0086F0FEEC0DF00009D8B447EF08F049EF0C
:10108C0008F051EF08F0030E0D6E3D01609BDBEC98
:10109C000BF099EF08F009EC0EF00009D8B459EFF9
:1010AC0008F05BEF08F06DEF08F0DDEC0DF00009D7
:1010BC00D8B463EF08F065EF08F06DEF08F0010E9F
:1010CC000D6E3D01609924EC0DF099EF08F0E8EC01
:1010DC000DF00009D8B475EF08F077EF08F087EF42
:1010EC0008F0DDEC0DF00009D8B47FEF08F081EFCB
:1010FC0008F087EF08F0020E0D6E3D01609969EF64
:10110C0008F0F3EC0DF00009D8B48FEF08F091EF74
:10111C0008F097EF08F0030E0D6E3D01609D99EFFE
:10112C0008F03D0160990D50D8B49FEF08F0A1EF85
:10113C0008F0ADEF08F002D8ADEF08F00500FA6E3C
:10114C001E50FD6E1F50FE6EFF6AFA5012006000BA
:10115C001BF2FBFF600017F2FAFF600013F2D8FFDE
:10116C001100000EBA6E060EBB6E000EBC6E000EA9
:10117C00BD6E000EBE6EC30EC26E000EC36E980E18
:10118C00C46E000EC56E000EC66EC30E3A01406FE3
:10119C00000E506F000E606F000E706F000E806FAF
:1011AC00000E416F000E516F000E616F000E716FDB
:1011BC00000E816F000E5A6F000E5B6F000E6A6F8F
:1011CC00000E6B6F000E7A6F000E7B6F000E426F7D
:1011DC00060E526F000E626F000E726F000E826F61
:1011EC004369536963697369070E836F4469546972
:1011FC00646974690F0E846F170EE56F140EDF6F40
:10120C00130E166F1F0E156F090EE36F230E096F69
:10121C000A0EE46F240E0A6F130EDE6F1E0E136F90
:10122C00000E456F000E466F000E476F000E556F97
:10123C00000E566F000E576F000E656F000E666F36
:10124C00000E676F000E856F000E866F000E876FA5
:10125C0012002E50020D600EF324D96E000EF420F5
:10126C00DA6E000EDE6E000EDD6E3D01F9A741EF69
:10127C0009F043EF09F062EF09F02E50020D600EF9
:10128C00F324D96E000EF420DA6E0001DF821A50BE
:10129C001B10D8B454EF09F056EF09F062EF09F0C7
:1012AC0002D862EF09F00500FA6E1A50FD6E1B5061
:1012BC00FE6EFF6AFA5012003D01F9A368EF09F0C7
:1012CC006AEF09F089EF09F02E50020D600EF3243D
:1012DC00D96E000EF420DA6E0001DF84185019105C
:1012EC00D8B47BEF09F07DEF09F089EF09F002D853
:1012FC0089EF09F00500FA6E1850FD6E1950FE6E5C
:10130C00FF6AFA5012006F00A0F732F02E28070B7C
:10131C00336E2D503318D8A496EF09F098EF09F0DE
:10132C009AEF09F0A6EF09F0700E2E24D96EDA6A46
:10133C00000EDA226000CBF0DFFF33C02EF02C2A37
:10134C001200390193975E0E266E120E276E93993A
:10135C00F00E286E170E296E000E3D01E86F000E80
:10136C00E96F000EEA6F000EEB6F000EEC6F000ED3
:10137C00ED6F000EEE6F000EEF6F000EF06F000EB3
:10138C00F16FB00EF26F800EF36F080EF46FA00EBB
:10139C00F56F010EF66F200EF76F000EF86F800ED2
:1013AC00F96F000EFA6F1C0E00018C6F1D0E8D6F05
:1013BC008CEC0DF01A0E00018C6F1D0E8D6F7DECF8
:1013CC000DF0000E00018C6F000E8D6F6EEC0DF0A9
:1013DC00000E1D6E000E1C6E000E316E000E306E77
:1013EC00080E2F6E000E2E6E000E2D6E000E2C6E43
:0613FC0039019387120085
:101404006F0060FF47F03D0164A50BEF0AF00DEF9C
:101414000AF018EF0AF063A512EF0AF014EF0AF0CD
:1014240018EF0AF0FDEC0CF04CEF0AF064AF1DEF7E
:101434000AF01FEF0AF03AEF0AF063AF24EF0AF064
:1014440026EF0AF03AEF0AF00C50D8B42CEF0AF069
:101454002EEF0AF036EF0AF0000E0C6E6391639FD4
:1014640037EC0DF04CEF0AF024EC0DF014EF0AF019
:1014740064A33FEF0AF041EF0AF04CEF0AF063A3D4
:1014840046EF0AF048EF0AF04CEF0AF079EC0EF060
:101494003D01639360001FF1D8FF1100D28A000E52
:1014A400D2BE010E00018E6FD29E550ED46EAA0ECE
:1014B400D46ED490000ED76E000ED66E080ED56E84
:1014C400550ED46EAA0ED46ED4808EB102D0D29EA4
:1014D40001D0D28E390181858387838F809F839940
:1014E400859D859F86918693A191D2800E0E0001E1
:1014F4008C6F1D0E8D6F55EC0EF03901A591D282C3
:10150400100E00018C6F1D0E8D6F50EC0EF0390122
:10151400A79BD284120E00018C6F1D0E8D6F4BECB5
:101524000EF01200000E3E01DE6F000EDF6F000EA3
:10153400E06F000EE16F000EE46F000EE56F000E29
:10154400EA6F000EEC6F000EF16F010EF36F000EE8
:10155400F46F000EF56F000EF66F000EF76F000EBD
:10156400F96F100EFA6F000EFB6F000EFC6F030E86
:10157400FD6F000EFE6F090EFF6F840EF86F3901C8
:10158400A1951E0E00018C6F1D0E8D6F5AEC0EF08E
:1015940039019185A1971200040E3D015D6F800E03
:1015A4005E6F080E5F6F030E656F000E636F000EB3
:1015B400646F000E606F000E566F510E3A016A6F31
:1015C400510E6B6FD2EC0DF03D01649164955D8F0B
:1015D40000D000D000F000F000F000F000F000F0C7
:1015E4003D01639163956485140E00018C6F1D0E9B
:1015F4008D6F9BEC0DF01200376E390193B905EF36
:101604000BF007EF0BF00CEF0BF06000DFF0EAFDDE
:1016140024EF0BF02F50D8B412EF0BF014EF0BF0B3
:1016240024EF0BF0780E3124D96EDA6A000EDA2238
:101634006000DFF0DFFF3128070B366E36C031F073
:1016440093992F06938912006F00E8FF38F06F001A
:10165400ECFF39F03901A19500018F519011D8B4F4
:1016640036EF0BF038EF0BF044EF0BF002D844EFF9
:101674000BF00500FA6E8F51FD6E9051FE6EFF6AFD
:10168400FA5012006000E7F0FBFF6000E3F0FAFF9D
:101694001100000E3D016B6F000E6C6F000E6D6F3C
:1016A400000E6E6F000E6F6F000E706F000E716F84
:1016B400000E726F000E736F000E746F000E756F64
:1016C400000E766F000E786F000E796F000E7A6F41
:1016D400000E7B6F010E7C6F12003E01F151D8A405
:1016E40076EF0BF078EF0BF088EF0BF0010E33EC94
:1016F4000EF03E01EF51FEEC0AF03E01F051FEEC1B
:101704000AF02C0EFEEC0AF092EF0BF0EF51FEEC17
:101714000AF03E01F051FEEC0AF00A0EFEEC0AF06B
:021724001200B1
:101728006F00E8FF3BF06F00ECFF3CF03901A39F2E
:1017380010501110D8B4A3EF0BF0A5EF0BF0B1EFD8
:101748000BF002D8B1EF0BF00500FA6E1050FD6EE9
:101758001150FE6EFF6AFA5012006000F3F0FBFFB2
:101768006000EFF0FAFF11000A0EF66E1D0EF76E1C
:10177800000EF86E09006F00D4FF48F009006F00F2
:10178800D4FF49F000EE60F0220EEE6AE806FDE1B3
:1017980000EE01F0310EEE6AE806FDE1080ED56EA6
:1017A800000ED66E000ED76E00018FEF0CF072ECB3
:1017B8000EF064EC0EF01FEC0EF069EC0EF03D013B
:1017C8005D9F14EC0EF03D01649164955D8F00D02F
:1017D80000D000F000F000F000F000F000F03D0153
:1017E8006391639564851200080E2F60FEEF0BF07D
:1017F80000EF0CF012EF0CF0780E3024D96EDA6A94
:10180800000EDA22DF503D01EA6F3028070B000195
:101818008A6F8AC030F02F2A14EF0CF0390193999F
:101828001200000E3D01D26F000ED46F000ED66F6D
:10183800000ED86F000EDA6F000EDB6F000EDC6F43
:10184800000EDD6F000EDE6F200EDF6F000EE06F02
:10185800800EE16F000EE26F1200C6EC0DF0B7ECDF
:1018680008F094EC0AF06EEC0EF0CEEC0AF04BECBB
:101878000BF0B9EC0DF011EC0DF0A7EC09F015EC3C
:101888000CF050EC0AF012006F0060FF3DF06F00A2
:10189800E8FF3EF06F00ECFF3FF03901A191A5ECA5
:1018A8000CF06000FFF0FBFF6000FBF0FAFF600047
:0618B800F7F0D8FF11005B
:1018C0006F0060FF40F06F00E8FF41F06F00ECFF39
:1018D00042F03901A591BBEC0CF060000BF1FBFF6D
:0E18E000600007F1FAFF600003F1D8FF11006D
:1018F0006F0060FF43F06F00E8FF44F06F00ECFF03
:1019000045F03901A79BD1EC0CF0600017F1FBFF0B
:10191000600013F1FAFF60000FF1D8FF110031EC05
:101920000CF0DE0E00018C6F160E8D6F5AEC0EF06F
:10193000CE0E00018C6F190E8D6F46EC0EF0D28E1C
:10194000D28CA1EF0CF057EF00F024502510D8B442
:10195000ACEF0CF0AEEF0CF0BAEF0CF002D8BAEF2F
:101960000CF00500FA6E2450FD6E2550FE6EFF6AE5
:10197000FA501200120022502310D8B4C2EF0CF01B
:10198000C4EF0CF0D0EF0CF002D8D0EF0CF0050053
:10199000FA6E2250FD6E2350FE6EFF6AFA5012005E
:1019A000120020502110D8B4D8EF0CF0DAEF0CF070
:1019B000E6EF0CF002D8E6EF0CF00500FA6E2050CE
:1019C000FD6E2150FE6EFF6AFA50120012000E4AA0
:1019D0000F2A48500E1807E149500F18D8A4F3EF0A
:1019E0000CF0F5EF0CF0FCEF0CF0000E0F6E000E9B
:1019F0000E6E000E33EC0EF01200000E016E000EA3
:101A0000036E0268000E046E000E056E000E086E76
:101A1000000E096E72EC0EF064EC0EF069EC0EF044
:101A20001200C70EB76E000EB66E510EB96E200EC4
:101A300000018C6F1D0E8D6F46EC0EF03901A39FD7
:101A4000938F800EB86E120079EC0EF07CEC0EF0E5
:101A50000009D8B42EEF0DF030EF0DF036EF0DF099
:101A6000000E40EC0EF0000E3AEC0EF012000A50A0
:101A70000B10D8B43EEF0DF040EF0DF043EF0DF03A
:101A80000A5040EC0EF0D88002345FEC0EF07FEC90
:101A90000EF012006F0060FF87F082EC0EF0600025
:101AA00023F0D9FF600027F0DAFFDF6E084A092A29
:101AB00060001FF2D8FF11006F0060FF89F0600026
:101AC00013F0D9FF600017F0DAFF044A052ADF504F
:101AD0003AEC0EF0600027F2D8FF110000018C51A3
:101AE0008D11D8B476EF0DF078EF0DF07CEF0DF09E
:101AF0008CC080F08DC081F0120000018C518D11DE
:101B0000D8B485EF0DF087EF0DF08BEF0DF08CC0A2
:101B100018F08DC019F0120000018C518D11D8B44D
:101B200094EF0DF096EF0DF09AEF0DF08CC01AF0D7
:101B30008DC01BF0120000018C518D11D8B4A3EFA1
:101B40000DF0A5EF0DF0A9EF0DF08CC01EF08DC0CB
:101B50001FF012006F00E8FF34F06F00ECFF35F06B
:101B60002FEC09F06000D7F0FBFF6000D3F0FAFF24
:101B70001100400E3D01156F000E166F000E1C6F18
:101B80000F0E196FC496020E146F1200600E390109
:101B9000D96F000EDB6F000EDD6F050EDF6F000EDC
:101BA000DE6F1200390196819683958D958F3D01E8
:101BB00064856483648F608112003D015EBBE3EF46
:101BC0000DF0E6EF0DF0010EE7EF0DF0000E120044
:101BD0003D0161B7EEEF0DF0F1EF0DF0010EF2EF08
:101BE0000DF0000E12003D0160BDF9EF0DF0FCEFAD
:101BF0000DF0010EFDEF0DF0000E12003D0160BB77
:101C000004EF0EF007EF0EF0010E08EF0EF0000EDD
:101C100012003D0161A70FEF0EF012EF0EF0010E62
:101C200013EF0EF0000E1200390196819683958D08
:101C3000958F3D0164856483648F60811200390152
:101C400096919693959D959F000E3D01646F000EB1
:101C5000606F12006F0060FF8BF0F8EC0BF060001B
:101C60002FF2D8FF11003A6E6000EBF0F1FE3E015A
:101C7000F88112000001886F600023F255FD120008
:101C80000001836F60000FF256FD12008CC010F04F
:101C90008DC011F012008CC020F08DC021F0120018
:101CA0008CC022F08DC023F012008CC024F08DC0B7
:101CB00025F012008CC08FF08DC090F01200466E9F
:101CC00060001BF158FD12003D01609B609D609912
:101CD0001200000E3D01626F62851200C20E3E01CD
:101CE000C16F1200000E3D01636F120086EC0EF012
:101CF00011003D015D9D12003D01565112003D0154
:101D00005D8B12003D0154511200010012001200BF
:061D100012001200120097
:0A1D18001100120012001200120068
:020000040020DA
:10000000FF0FFF0FFF0FFF0FFF0FFF0FFF0FFF0F80
:020000040030CA
:0A000000FAFFFFFF9FFFFFFFFFFF65
:00000001FF
