:0400000057EF00F0C6
:100008005C035C035C035C035C035C035C035303F9
:10001800A2025C03A1015C035C035C035C035C0358
:100028005C035C035C035C035C035C035C035C03D0
:100038005C035C035C03440255035C035C031B0222
:100048005C035C0334035C032B005C035C035C030C
:10005800B9025C035C035C035C035C035C035C0344
:100068005C035C035C035C035C035C035C035C0390
:100078005C035C032B005C035C03D0022B002B00A9
:100088002B002B002B002B002B002B005C035C03A8
:100098005C035C035C035C032B002B002B002B0030
:1000A8005C035C03FF00F3EF02F0000E236E000E0A
:1000B800246E000E256E000E266E6000F3F0D9FF48
:1000C8006000F7F0DAFF600057F0DEFF60005BF0D9
:1000D800DDFF000E286E000E276E6000E3F0D9FFEA
:1000E8006000E7F0DAFF6F0078FF17F06F0074FF29
:1000F80018F017C019F018C01AF0000E1ABEFF0E3B
:100108001B6E1C6E6000EBF0D9FF6000EFF0DAFFA9
:100118006F0078FF1DF06F0074FF1EF01DC01FF008
:100128001EC020F0000E20BEFF0E216E226E195058
:100138001F24076E1A502020086E1B502120096EBC
:100148001C5022200A6E60004FF0F6FF600053F04A
:10015800F7FFF86A09006F00D4FF0BF009006F0081
:10016800D4FF0CF009006F00D4FF0DF00A006F00F7
:10017800D4FF0EF000EC04F0075023260850242288
:10018800095025220A502622040E1326000E142296
:1001980040503A1807E141503B18D8A4D6EF00F078
:1001A800D8EF00F0DEEF00F03EC03AF03FC03BF081
:1001B800E2EF00F0020E3A5E000E3B5A3E5038184D
:1001C80007E13F503918D8A4ECEF00F0EEEF00F04B
:1001D800F4EF00F040C038F041C039F0F8EF00F01B
:1001E800020E3826000E392238503A1807E13950E5
:1001F8003B18D8A402EF01F004EF01F036EF01F04C
:100208006000EBF0D9FF6000EFF0DAFF6F0078FFD5
:1002180007F06F0074FF08F0000E08BEFF0E096EAD
:100228000A6E60004FF0F6FF600053F0F7FFF86ABF
:1002380009006F00D4FF0BF009006F00D4FF0CF029
:1002480009006F00D4FF0DF00A006F00D4FF0EF014
:1002580000EC04F0075023260850242209502522D8
:100268000A502622274A282A28BE44EF01F028509F
:1002780009E1060E275CD8A044EF01F046EF01F033
:1002880071EF00F0010E4624176E000E4720186E1D
:100298001F0E1714466E476A010E3624176E000E9D
:1002A8003720186E1F0E1714366E376A46C017F0BF
:1002B80047C018F0D89017361836500E17243C6EE1
:1002C800010E18203D6E36C017F037C018F0D890D0
:1002D80017361836500E17240001F76F010E182034
:1002E800F86F3CC03AF03DC03BF0F7C038F0F8C0BA
:1002F80039F023C013F024C014F025C015F026C02F
:1003080016F012003E01F151D8A48DEF01F08FEFE5
:1003180001F0CEEF01F0BE90000E70EC06F0AFECED
:1003280006F03E01F05130099CEC06F03E01EF5119
:100338009CEC06F03E01F0510F0B2B6E2C6A900ED0
:100348002B24D96E010E2C20DA6EDF5060EC04F0FD
:100358003E01EF390F0B0F0B2B6E2C6A900E2B24DE
:10036800D96E010E2C20DA6EDF5060EC04F03E01ED
:10037800EF510F0B2B6E2C6A900E2B24D96E010EA9
:100388002C20DA6EDF5060EC04F02C0E60EC04F0E8
:1003980024EF02F0F0512C6E2B6AEF512B24296EBA
:1003A800000E2C202A6E12EC05F029C02EF02AC06F
:1003B8002FF0BE90AFEC06F02F50B0099CEC06F081
:1003C8002E509CEC06F02FC02BF02C6A2BBE2C680C
:1003D8000F0E2B16000E2C16900E2B24D96E010E24
:1003E8002C20DA6EDF5060EC04F02EC02BF02FC00A
:1003F8002CF0040E2D6E2C342C322B322D2EFFEFC8
:1004080001F00F0E2B16000E2C16900E2B24D96E11
:10041800010E2C20DA6EDF5060EC04F00F0E2E1463
:100428002B6E000E2F142C6E900E2B24D96E010EFD
:100438002C20DA6EDF5060EC04F00A0E60EC04F059
:100448001200000EBA6E000EBB6E000EBC6E000EDF
:10045800BD6E000EBE6E030EC26E060EC36E980E03
:10046800C46E000EC56E000EC66E030E3A01406FD4
:10047800060E506F000E606F000E706F000E806FDA
:10048800000E416F000E516F000E616F000E716F0C
:10049800000E816F000E5A6F000E5B6F000E6A6FC0
:1004A800000E6B6F000E7A6F000E7B6F000E426FAE
:1004B800000E526F000E626F000E726F000E826F98
:1004C8004369536963697369070E836F44695469A3
:1004D800646974690F0E846F170EE56F140EDF6F71
:1004E800130E166F1F0E156F130EDE6F1E0E136F91
:1004F800000E456F000E466F000E476F000E556FD9
:10050800000E566F000E576F000E656F000E666F77
:10051800000E676F000E856F000E866F000E876FE6
:10052800120039019397000E0001E86F000EE96F81
:1005380039019399820E0001EA6F090EEB6F000EE4
:100548003D01E86F000EE96F000EEA6F000EEB6FD9
:10055800000EEC6F000EED6F000EEE6F000EEF6FE9
:10056800000EF06F000EF16FB00EF26F800EF36F99
:10057800080EF46F070EF56F000EF66F200EF76F7A
:10058800000EF86F800EF96F000EFA6F000E010171
:10059800A96F000EAA6F2DEC06F0000E0101A96FDD
:1005A800000EAA6F1EEC06F0000E0101A96F000EE6
:1005B800AA6F0FEC06F0000E0001AB6F000EAA6FD9
:1005C800000E586E000E576E100E566E000E556EC9
:1005D800000E546E000E536E390193871200C00E40
:1005E800F66E0C0EF76E000EF86E00EE90F110EE3F
:1005F80010F009006F00D7FFEEFFE550E150F9E178
:100608005A0EF66E0D0EF76E000EF86E00EEF5F04F
:1006180010EE04F009006F00D7FFEEFFE550E1503F
:10062800F9E1AA0EF66E0C0EF76E000EF86E00EEEB
:1006380030F010EE16F009006F00D7FFEEFFE5501E
:10064800E150F9E100EE00F1900EEE6AE806FDE1F6
:1006580000EE60F0820EEE6AE806FDE100EE46F07C
:10066800130EEE6AE806FDE1080ED56E000ED66E92
:0A067800000ED76E0001F8EF04F049
:100684006F0060FFEEF06F00E8FFEFF06F00ECFF2B
:10069400F0F06F00D8FFF1F06F00DCFFF2F06F00B4
:1006A400E0FFF3F06F00D4FFF4F03901A1950001ED
:1006B400EC51ED11D8B461EF03F063EF03F06FEF89
:1006C40003F002D86FEF03F00500FA6EEC51FD6EF3
:1006D400ED51FE6EFF6AFA5012006000D3F3F5FF8D
:1006E4006000CFF3F8FF6000CBF3F7FF6000C7F3BF
:1006F400F6FF6000C3F3FBFF6000BFF3FAFF600086
:10070400BBF3D8FF1100D28A000ED2BE010E010144
:10071400AB6FD29E550ED46EAA0ED46ED490000E3A
:10072400D76E000ED66E080ED56E550ED46EAA0E78
:10073400D46ED480ABB102D0D29E01D0D28E390116
:1007440083878389838F8485809F8195A191D280BB
:100754006A0E0101A96F0D0EAA6F92EC06F0390121
:10076400A591D2826C0E0101A96F0D0EAA6F8DECBA
:1007740006F03901A79BD2846E0E0101A96F0D0EFC
:10078400AA6F88EC06F01200000E3E01DE6F000E28
:10079400DF6F000EE06F000EE16F000EE46F000EDD
:1007A400E56F000EEA6F000EEC6F000EF16F010EA4
:1007B400F36F000EF46F000EF56F000EF66F000E6F
:1007C400F76F000EF96F100EFA6F000EFB6F000E3C
:1007D400FC6F030EFD6F000EFE6F1F0EFF6F840E85
:1007E400F86F3901A195660E0101A96F0D0EAA6F6C
:1007F40097EC06F039019185A1971200000E0F6E57
:10080400000E106E000E116E000E126E07A00DEF9A
:1008140004F00FEF04F017EF04F00B500F260C5008
:1008240010220D5011220E501222D8900B360C3685
:100834000D360E36D8900A32093208320732075084
:10084400081009100A10D8A42AEF04F02CEF04F0C1
:1008540008EF04F00FC007F010C008F011C009F051
:0608640012C00AF01200B0
:10086C006F00E8FF02F06F00ECFF03F03901A39F6B
:10087C000001E751B76E60009BF3B6FFE451E51140
:10088C00D8B44BEF04F04DEF04F059EF04F002D85C
:10089C0059EF04F00500FA6EE451FD6EE551FE6E61
:1008AC00FF6AFA50120060000FF0FBFF60000BF0C3
:1008BC00FAFF1100086E390193B967EF04F069EF84
:1008CC0004F06EEF04F0600023F0EAFD86EF04F014
:1008DC005650D8B474EF04F076EF04F086EF04F0C1
:1008EC00400E5824D96EDA6A010EDA22600023F029
:1008FC00DFFF58280F0B076E07C058F09399560668
:10090C00938912005250D8A48EEF04F090EF04F0AB
:10091C0097EF04F0522A6F00A0F742F0436AA4EF5D
:10092C0004F0000E526E4250046E3D01E851426ECE
:10093C0004C043F042C044F043C045F01100000E27
:10094C003D01D26F000ED46F000ED66F000ED86F23
:10095C00000EDA6F000EDB6F000EDC6F000EDD6F29
:10096C00000EDE6F200EDF6F000EE06F800EE16F69
:10097C00000EE26F1200100E5660C7EF04F0C9EFC4
:10098C0004F0DAEF04F0400E5724D96EDA6A010E47
:10099C00DA22DF503D01EA6F57280F0B066E06C0B6
:1009AC0057F0562ADCEF04F0390193991200E70E48
:1009BC00B76E5F0EB66E700EB96EB7500101AB6FAD
:1009CC00B6500001E66FABC1E7F0740E0101A96FE0
:1009DC000D0EAA6F7EEC06F03901A39F938F900E3B
:1009EC00B86E1200E5EC05F0FAEC05F00C0E010106
:1009FC00A96F030EAA6F97EC06F09C0E0101A96F6C
:100A0C000B0EAA6F7EEC06F0BB88BE80D28ED28C09
:100A1C000EEF05F057EF00F0CE0E136EFF0E146EB6
:100A2C0029C015F02AC016F059EC00F0110E24EF75
:100A3C0005F0D8901632153214321332E82E1FEF0F
:100A4C0005F013C029F014C02AF01200010EAE6E8E
:100A5C00200EAD6E000EAF6E1F0EAB6E000EAA6EAA
:100A6C00720E0101A96F0D0EAA6F83EC06F039010D
:0A0A7C00A4959485300EAC6E1200B4
:100A88006F0060FFA0F16F00E8FFA1F16F00ECFFBD
:100A9800A2F13901A1915BEC05F060008BF6FBFF38
:100AA800600087F6FAFF600083F6D8FF11000001A6
:100AB800B051B111D8B463EF05F065EF05F071EFEF
:100AC80005F002D871EF05F00500FA6EB051FD6E21
:100AD800B151FE6EFF6AFA50120012006F0060FFFB
:100AE800A3F16F00E8FFA4F16F00ECFFA5F1390155
:100AF800A59189EC05F0600097F6FBFF600093F67E
:100B0800FAFF60008FF6D8FF11000001AE51AF1157
:100B1800D8B491EF05F093EF05F09FEF05F002D8F8
:100B28009FEF05F00500FA6EAE51FD6EAF51FE6EF7
:100B3800FF6AFA50120012006F0060FFA6F16F0002
:100B4800E8FFA7F16F00ECFFA8F13901A79BB7EC0C
:100B580005F06000A3F6FBFF60009FF6FAFF600057
:100B68009BF6D8FF11000001AC51AD11D8B4BFEF0E
:100B780005F0C1EF05F0CDEF05F002D8CDEF05F097
:100B88000500FA6EAC51FD6EAD51FE6EFF6AFA506B
:100B9800120012000001A24BA32B4450A21907E136
:100BA8004550A319D8A4DBEF05F0DDEF05F0E4EF1D
:100BB80005F0000EA36F000EA26F000E77EC06F092
:100BC800120049EC06F025EC02F0C6EC03F0A1ECAB
:100BD80006F03CEC06F0DDEC04F02CEC05F095ECAE
:100BE80002F0A5EC04F085EC03F012003D0114BFFF
:100BF80000EF06F002EF06F00EEF06F0830E146F1A
:100C0800400E156F020E166F000E1C6F180E196F2E
:100C1800C496148F12000101A951AA11D8B417EF74
:100C280006F019EF06F01DEF06F0A9C1A8F0AAC159
:100C3800A9F012000101A951AA11D8B426EF06F0B3
:100C480028EF06F02CEF06F0A9C14CF0AAC14DF030
:100C580012000101A951AA11D8B435EF06F037EFF7
:100C680006F03BEF06F0A9C14EF0AAC14FF0120002
:100C7800400E3D01156F000E166F000E1C6F180E0A
:100C8800196FC496020E146F1200600E3901D96FE5
:100C9800000EDB6F000EDD6F080EDF6F000EDE6FDB
:100CA8001200B200BE00CA0015007A0150015001BE
:100CB8008E01500101003700303132333435363778
:100CC80038394142434445463901A495BE80BB9812
:100CD800BB88B1EC06F01100076E60001FF0F1FE52
:100CE8003E01F8811200016E600007F0F1FE3E013E
:100CF800F8811200A9C1E4F0AAC1E5F01200A9C167
:100D0800E2F0AAC1E3F01200A9C1ACF0AAC1ADF0AB
:100D18001200A9C1AEF0AAC1AFF01200A9C1B0F08B
:100D2800AAC1B1F01200A9C1ECF0AAC1EDF01200FD
:100D3800076E60001FF011FD1200C20E3E01C16F68
:020D4800120097
:060D4C00B4EC06F01100FA
:100D5400C1EC04F01100D6007801AC8E1200AC9EF8
:100D640012001200120012001200120011001200F0
:020D740012006B
:10FEE200000000803F0000000000000000000080D1
:10FEF2003FFB06C03F325E293F0000803F0000000A
:10FF020000000000000000803FC455C33EADB7BFF3
:10FF12003E0000803F0000000000000000A96B309E
:10FF22003F00000000000000000000803F27A6B54F
:10FF32003F0000803FA96B303F000000000000003E
:10FF4200000000803F27A6B53F0000803F000080F0
:10FF52003F00000000000000002A0500000000C071
:10FF62000800000000000000000000000000000087
:10FF7200000000000000000000000000000000007F
:10FF8200005A0C3C0C1E0C0000780C0000F40B0014
:10FF9200000000000000000000380D580A5E0D62EB
:10FFA2000D0000060D0000BA09000000000000FC70
:10FFB2000C00000100030001000300010001000326
:10FFC200000100030001008340023F00170300000C
:10FFD200890A0000CF120000A71A0000C820000002
:10FFE2002424000024240000C8200000A71A0000D6
:0DFFF200CF120000890A0000170300000074
:020000040020DA
:10000000FF0FFF0FFF0FFF0FFF0FFF0FFF0FFF0F80
:020000040030CA
:0A0000008AFFFDFF9FFFFFFFFFFFD7
:00000001FF
