:0400000057EF00F0C6
:1000080097079707970797079707970797079207FD
:100018007D069707F50597079707970797079707A7
:1000280097079707970797079707970797079707D8
:100038009707970797072407640797079707CC053B
:1000480097079707970797072B009707970797072B
:10005800890697079707970797079707F406FD06F6
:10006800E0041B04970797079707970797079707D1
:10007800970797072B009707970795062B002B00E4
:100088002B002B002B002B002B002B00970797072A
:1000980097079707970797072B002B002B002B0034
:0A00A80097079707FF0033EF0CF0F5
:1010000000641400000000821700000000000000CF
:1010100000000000000000000000000000000000D0
:10102000000000000000000000541C361C181C00CA
:1010300000CA1600000000000000000000000000D0
:1010400000721C0000AE1C0000321B0000000000FB
:101050000000000000141E9219000000000000B003
:091060001D00008340023F000066
:10106C006F0060FF8EF06F00E8FF8FF06F00ECFFF9
:10107C0090F06F00D8FF91F06F00DCFF92F06F00E2
:10108C00E0FF93F06F00D4FF94F09CEC0EF000099D
:10109C00D8B453EF08F055EF08F05DEF08F0030EED
:1010AC000D6E3D01609B56EC0CF0A5EF08F0A7EC23
:1010BC000EF00009D8B465EF08F067EF08F079EF8F
:1010CC0008F07BEC0EF00009D8B46FEF08F071EF6C
:1010DC0008F079EF08F0010E0D6E3D016099C2EC3D
:1010EC000DF0A5EF08F086EC0EF00009D8B481EFF6
:1010FC0008F083EF08F093EF08F07BEC0EF000099A
:10110C00D8B48BEF08F08DEF08F093EF08F0020ED7
:10111C000D6E3D01609975EF08F091EC0EF0000931
:10112C00D8B49BEF08F09DEF08F0A3EF08F0030E86
:10113C000D6E3D01609DA5EF08F03D0160990D50CD
:10114C00D8B4ABEF08F0ADEF08F0B9EF08F002D867
:10115C00B9EF08F00500FA6E2650FD6E2750FE6EB2
:10116C00FF6AFA501200600053F2F5FF60004FF274
:10117C00F8FF60004BF2F7FF600047F2F6FF6000EB
:10118C0043F2FBFF60003FF2FAFF60003BF2D8FF36
:10119C001100000EBA6E060EBB6E000EBC6E000E79
:1011AC00BD6E000EBE6EC30EC26E000EC36E980EE8
:1011BC00C46E000EC56E000EC66EC30E3A01406FB3
:1011CC00000E506F000E606F000E706F000E806F7F
:1011DC00000E416F000E516F000E616F000E716FAB
:1011EC00000E816F000E5A6F000E5B6F000E6A6F5F
:1011FC00000E6B6F000E7A6F000E7B6F000E426F4D
:10120C00060E526F000E626F000E726F000E826F30
:10121C004369536963697369070E836F4469546941
:10122C00646974690F0E846F170EE56F140EDF6F0F
:10123C00130E166F1F0E156F090EE36F230E096F39
:10124C000A0EE46F240E0A6F130EDE6F1E0E136F60
:10125C00000E456F000E466F000E476F000E556F67
:10126C00000E566F000E576F000E656F000E666F06
:10127C00000E676F000E856F000E866F000E876F75
:10128C0012002C50020D600EF324D96E000EF420C7
:10129C00DA6E000EDE6E000EDD6E3D01F9A759EF21
:1012AC0009F05BEF09F07AEF09F02C50020D600E9B
:1012BC00F324D96E000EF420DA6E0001DF82185090
:1012CC001910D8B46CEF09F06EEF09F07AEF09F051
:1012DC0002D87AEF09F00500FA6E1850FD6E19501D
:1012EC00FE6EFF6AFA5012003D01F9A380EF09F07F
:1012FC0082EF09F0A1EF09F02C50020D600EF324DF
:10130C00D96E000EF420DA6E0001DF84165017102F
:10131C00D8B493EF09F095EF09F0A1EF09F002D8DA
:10132C00A1EF09F00500FA6E1650FD6E1750FE6E17
:10133C00FF6AFA5012006F00A0F738F02C28070B48
:10134C00396E2B503918D8A4AEEF09F0B0EF09F074
:10135C00B2EF09F0BEEF09F0800E2C24D96EDA6AD8
:10136C00000EDA226000E3F0DFFF39C02CF02A2AED
:02137C0012005D
:101380006F0060FF3DF06F00E8FF3EF06F00ECFF84
:101390003FF06F00D8FF40F06F00DCFF41F06F00BE
:1013A000E0FF42F06F00D4FF43F03D0164A5DBEFA6
:1013B00009F0DDEF09F0E8EF09F063A5E2EF09F0CD
:1013C000E4EF09F0E8EF09F0AEEC0DF01CEF0AF0E5
:1013D00064AFEDEF09F0EFEF09F00AEF0AF063AF49
:1013E000F4EF09F0F6EF09F00AEF0AF00C50D8B468
:1013F000FCEF09F0FEEF09F006EF0AF0000E0C6EAC
:101400006391639FD5EC0DF01CEF0AF0C2EC0DF078
:10141000E4EF09F064A30FEF0AF011EF0AF01CEFFC
:101420000AF063A316EF0AF018EF0AF01CEF0AF0B7
:1014300017EC0FF03D01639360000FF1F5FF6000C2
:101440000BF1F8FF600007F1F7FF600003F1F6FF12
:101450006000FFF0FBFF6000FBF0FAFF6000F7F0B8
:10146000D8FF1100390193978E0E00018C6F120E78
:101470008D6F39019399EA0E246E180E256E000EB9
:101480003D01E86F000EE96F000EEA6F000EEB6F92
:10149000000EEC6F000EED6F000EEE6F000EEF6FA2
:1014A000000EF06F000EF16FB00EF26F800EF36F52
:1014B000080EF46F070EF56F000EF66F200EF76F33
:1014C000000EF86F800EF96F000EFA6F620E0001C9
:1014D000A06F1E0EA16F2AEC0EF0600E0001A06F2F
:1014E0001E0EA16F1BEC0EF0000E0001A06F000E8F
:1014F000A16F0CEC0EF0000E00018B6F000E8A6FD6
:10150000000E2F6E000E2E6E100E2D6E000E2C6E25
:10151000000E2B6E000E2A6E3901938712003E01D9
:10152000F151D8A496EF0AF098EF0AF0CAEF0AF04A
:10153000BDA09DEF0AF0A1EF0AF0326A322AA2EFB5
:101540000AF0326ABD503218FE0B3218BD6EBE90E2
:10155000010ED1EC0EF03F0E0AEC0FF0FF0E0AEC7C
:101560000FF0BA0EE82EFED700D0BB980A0EE82E78
:10157000FED700D0BB88BE80410EC1EC0BF0420EFE
:10158000C1EC0BF0430EC1EC0BF02C0EC1EC0BF0D8
:10159000E6EF0AF0BDA2CFEF0AF0D3EF0AF0326A0D
:1015A000322AD4EF0AF0326A3246BD503218FD0BAF
:1015B0003218BD6E440EC1EC0BF0450EC1EC0BF0C1
:1015C000460EC1EC0BF00A0EC1EC0BF01200D28AF1
:1015D000000ED2BE010E0001A26FD29E550ED46E37
:1015E000AA0ED46ED490000ED76E000ED66E080EE2
:1015F000D56E550ED46EAA0ED46ED480A2B102D090
:10160000D29E01D0D28E390181858387838F809FBE
:101610008399859D859F86918693A191D280540E52
:101620000001A06F1E0EA16FE7EC0EF03901A5912D
:10163000D282560E0001A06F1E0EA16FE2EC0EF0DA
:101640003901A79BD284580E0001A06F1E0EA16F16
:10165000DDEC0EF01200000E3E01DE6F000EDF6FBB
:10166000000EE06F000EE16F000EE46F000EE56FFC
:10167000000EEA6F000EEC6F000EF16F010EF36FBB
:10168000000EF46F000EF56F000EF66F000EF76F90
:10169000000EF96F100EFA6F000EFB6F000EFC6F5C
:1016A000030EFD6F000EFE6F1F0EFF6F840EF86FAE
:1016B0003901A1955A0E0001A06F1E0EA16FECEC2E
:1016C0000EF039019185A1971200040E3D015D6F66
:1016D000800E5E6F080E5F6F030E656F000E636F06
:1016E000000E646F000E606F000E566F510E3A01CF
:1016F0006A6F510E6B6F70EC0EF03D016491649552
:101700005D8F050EE82EFED700F000F000F000F02F
:1017100000F000F000F03D01639163956485500E88
:0E1720000001A06F1E0EA16F39EC0EF012003A
:101730006F00E8FF36F06F00ECFF37F03901A39F30
:101740001D50B76E600073F0B6FF1A501B10D8B46E
:10175000ACEF0BF0AEEF0BF0BAEF0BF002D8BAEF34
:101760000BF00500FA6E1A50FD6E1B50FE6EFF6AFC
:10177000FA5012006000DFF0FBFF6000DBF0FAFFC0
:101780001100316E390193B9C8EF0BF0CAEF0BF0BD
:10179000CFEF0BF06000C7F0EAFDE7EF0BF02D5044
:1017A000D8B4D5EF0BF0D7EF0BF0E7EF0BF0700EDE
:1017B0002F24D96EDA6A000EDA226000C7F0DFFF4C
:1017C0002F280F0B306E30C02FF093992D06938980
:0217D000120005
:1017D4006F00E8FF33F06F00ECFF34F03901A1959E
:1017E4000001A451A511D8B4FAEF0BF0FCEF0BF0F3
:1017F40008EF0CF002D808EF0CF00500FA6EA451C3
:10180400FD6EA551FE6EFF6AFA5012006000D3F01F
:10181400FBFF6000CFF0FAFF1100000E3D016B6F7B
:10182400000E6C6F000E6D6F000E6E6F000E6F6F0A
:10183400000E706F000E716F000E726F000E736FEA
:10184400000E746F000E756F000E766F000E786FC9
:10185400000E796F000E7A6F000E7B6F010E7C6FA5
:1018640012004E0EF66E1E0EF76E000EF86E090094
:101874006F00D4FF48F009006F00D4FF49F000EE78
:1018840060F02E0EEE6AE806FDE100EE01F02F0E88
:10189400EE6AE806FDE1080ED56E000ED66E000E67
:1018A400D76E0001AEEF0CF013EC0FF000EC0FF06C
:1018B400BDEC0EF005EC0FF03D015D9FB2EC0EF0B7
:1018C4003D01649164955D8F050EE82EFED700F00E
:1018D40000F000F000F000F000F000F03D01639132
:1018E400639564851200100E2D607BEF0CF07DEF84
:1018F4000CF08FEF0CF0700E2E24D96EDA6A000E05
:10190400DA22DF503D01EA6F2E280F0B00019E6F93
:101914009EC02EF02D2A91EF0CF0390193991200FC
:10192400000E3D01D26F000ED46F000ED66F000E74
:10193400D86F000EDA6F000EDB6F000EDC6F000E46
:10194400DD6F000EDE6F200EDF6F000EE06F800E85
:10195400E16F000EE26F1200E2EC0CF01E0E0001CB
:10196400A06F150EA16FECEC0EF0060E0001A06F37
:101974001B0EA16FD8EC0EF0000E99EC0DF0BB8895
:10198400BE80D28ED28CC5EF0CF057EF00F0E70E7C
:10199400B76E5F0EB66E700EB96EB7500001A26FCF
:1019A400B6501C6EA2C01DF05E0EA06F1E0EA16F7D
:1019B400D8EC0EF03901A39F938F900EB86E1200ED
:1019C40064EC0EF0CFEC08F02BEC0BF00FEC0FF006
:1019D40065EC0BF00FEC0CF057EC0EF0C9EC0CF0CE
:0E19E40032EC0AF092EC0CF0E7EC0AF0120084
:1019F4006F0060FF95F06F00E8FF96F06F00ECFF5A
:101A040097F03901A19141EC0DF060005FF2FBFF0A
:0E1A140060005BF2FAFF600057F2D8FF11008D
:101A24006F0060FF98F06F00E8FF99F06F00ECFF23
:101A34009AF03901A59157EC0DF060006BF2FBFFB1
:0E1A4400600067F2FAFF600063F2D8FF110045
:101A54006F0060FF9BF06F00E8FF9CF06F00ECFFED
:101A64009DF03901A79B6DEC0DF0600077F2FBFF50
:101A7400600073F2FAFF60006FF2D8FF1100225089
:101A84002310D8B448EF0DF04AEF0DF056EF0DF0E7
:101A940002D856EF0DF00500FA6E2250FD6E235069
:101AA400FE6EFF6AFA501200120020502110D8B4C2
:101AB4005EEF0DF060EF0DF06CEF0DF002D86CEFFF
:101AC4000DF00500FA6E2050FD6E2150FE6EFF6A87
:101AD400FA50120012001E501F10D8B474EF0DF00B
:101AE40076EF0DF082EF0DF002D882EF0DF00500D5
:101AF400FA6E1E50FD6E1F50FE6EFF6AFA50120001
:101B040012000E4A0F2A48500E1807E149500F18C8
:101B1400D8A48FEF0DF091EF0DF098EF0DF0000EBB
:101B24000F6E000E0E6E000ED1EC0EF012003D0191
:101B340014BF9FEF0DF0A1EF0DF0ADEF0DF0830E8C
:101B4400146F400E156F020E166F000E1C6F3F0EC1
:101B5400196FC496148F1200000E016E000E036EEE
:101B64000268000E046E000E056E000E086E000E74
:101B7400096E13EC0FF000EC0FF005EC0FF01200FF
:101B840017EC0FF01AEC0FF00009D8B4CCEF0DF0FD
:101B9400CEEF0DF0D4EF0DF0000EF6EC0EF0000ECB
:101BA400F1EC0EF012000A500B10D8B4DCEF0DF07B
:101BB400DEEF0DF0E1EF0DF00A50F6EC0EF0D880F8
:101BC4000234FBEC0EF01DEC0FF012006F0060FF0E
:101BD40045F020EC0FF0600023F0D9FF600027F0FF
:101BE400DAFFDF6E084A092A600017F1D8FF1100F6
:101BF4006F0060FF47F0600013F0D9FF600017F03A
:101C0400DAFF044A052ADF50F1EC0EF060001FF100
:101C1400D8FF11000001A051A111D8B414EF0EF0A7
:101C240016EF0EF01AEF0EF0A0C088F0A1C089F0F4
:101C340012000001A051A111D8B423EF0EF025EF3A
:101C44000EF029EF0EF0A0C016F0A1C017F012009C
:101C54000001A051A111D8B432EF0EF034EF0EF010
:101C640038EF0EF0A0C018F0A1C019F01200000166
:101C7400A051A111D8B441EF0EF043EF0EF047EF9D
:101C84000EF0A0C026F0A1C027F012006F00E8FFFC
:101C94003AF06F00ECFF3BF047EC09F06000EFF026
:101CA400FBFF6000EBF0FAFF1100400E3D01156FE1
:101CB400000E166F000E1C6F3F0E196FC496020EB5
:101CC400146F1200600E3901D96F000EDB6F000E25
:101CD400DD6F080EDF6F000EDE6F12003901968192
:101CE4009683958D958F3D0164856483648F6081AF
:101CF40012003D015EBB81EF0EF084EF0EF0010E89
:101D040085EF0EF0000E12003D0161B78CEF0EF06E
:101D14008FEF0EF0010E90EF0EF0000E12003D0159
:101D240060BD97EF0EF09AEF0EF0010E9BEF0EF0F0
:101D3400000E12003D0160BBA2EF0EF0A5EF0EF005
:101D4400010EA6EF0EF0000E12003D0161A7ADEFEB
:101D54000EF0B0EF0EF0010EB1EF0EF0000E120017
:101D6400390196819683958D958F3D0164856483B1
:101D7400648F60811200390196919693959D959F89
:101D8400000E3D01646F000E606F12006F0060FF73
:101D94009FF075EC0CF060007FF2D8FF1100356EF7
:101DA4006000D7F0F1FE3E01F8811200A0C01AF0E5
:101DB400A1C01BF01200A0C01EF0A1C01FF01200B1
:101DC400A0C020F0A1C021F01200A0C022F0A1C048
:101DD40023F01200A0C0A4F0A1C0A5F01200466E2A
:101DE40060001BF155FD1200446E600013F156FDB6
:101DF40012003C6E6000F3F058FD12003D01609B40
:101E0400609D60991200000E3D01626F62851200B0
:101E1400306E6000C3F011FD1200C20E3E01C16FAE
:101E24001200000E3D01636F12003D015D9D120022
:101E34003D01565112003D015D8B12003D0154518C
:021E440012008A
:101E480029EC0FF01100010012001200120012001C
:0C1E580012001200110012001200120013
:020000040020DA
:10000000FF0FFF0FFF0FFF0FFF0FFF0FFF0FFF0F80
:020000040030CA
:0A0000008AFFFFFF9FFFFFFFFFFFD5
:00000001FF
