:0400000057EF00F0C6
:100008005A065A065A065A065A065A065A065106F1
:10001800A6055A0618055A065A065A065A065A06D0
:100028005A065A065A065A065A065A065A065A06C8
:100038005A065A065A06560553065A065A062D05F2
:100048005A065A0632065A062B005A065A065A0605
:10005800B2055A065A065A065A065A065A065A0641
:100068005A065A065A065A065A065A065A065A0688
:100078005A065A062B005A065A06BE052B002B00B4
:100088002B002B002B002B002B002B005A065A06A6
:100098005A065A065A065A062B002B002B002B002C
:0A00A8005A065A06FF00F9EF09F0AE
:10100000004812000000000615000000000000006B
:1010100000000000000000000000000000000000D0
:10102000000000000000000000661848182A1800A0
:1010300000841800000018000000000000000000FC
:10104000003019681656195A190000FE18000036AB
:1010500016000000000000F41800008340023F006A
:01106000008F
:101062003E01F151D8A438EF08F03AEF08F079EFD9
:1010720008F0BE90010E6CEC0CF0ABEC0CF03E01F3
:10108200F051300998EC0CF03E01EF5198EC0CF065
:101092003E01F0510F0B406E416A700E4024D96E32
:1010A200000E4120DA6EDF5083EC0AF03E01EF3988
:1010B2000F0B0F0B406E416A700E4024D96E000E6A
:1010C2004120DA6EDF5083EC0AF03E01EF510F0B44
:1010D200406E416A700E4024D96E000E4120DA6ED5
:1010E200DF5083EC0AF02C0E83EC0AF0B3EF08F029
:1010F200BE90ABEC0CF03E01F051B00998EC0CF054
:101102003E01EF5198EC0CF03E01F0510F0B406E96
:10111200416A700E4024D96E000E4120DA6EDF5013
:1011220083EC0AF03E01EF390F0B0F0B406E416A60
:10113200700E4024D96E000E4120DA6EDF5083EC2F
:101142000AF03E01EF510F0B406E416A700E4024CF
:10115200D96E000E4120DA6EDF5083EC0AF00A0EDF
:1011620083EC0AF01200000EBA6E000EBB6E000E87
:10117200BC6E000EBD6E000EBE6E030EC26E060E7B
:10118200C36E980EC46E000EC56E000EC66E030EC0
:101192003A01406F060E506F000E606F000E706FC6
:1011A200000E806F000E416F000E516F000E616FD6
:1011B200000E716F000E816F000E5A6F000E5B6F92
:1011C200000E6A6F000E6B6F000E7A6F000E7B6F5F
:1011D200000E426F000E526F000E626F000E726FB1
:1011E200000E826F4369536963697369070E836FE7
:1011F20044695469646974690F0E846F170EE56F50
:10120200140EDF6F130E166F1F0E156F130EDE6FA7
:101212001E0E136F000E456F000E466F000E476FD5
:10122200000E556F000E566F000E576F000E656F61
:10123200000E666F000E676F000E856F000E866FE0
:10124200000E876F120039019397000E496E000E4F
:101252004A6E9399CA0E4B6E150E4C6E000E3D01EE
:10126200E86F000EE96F000EEA6F000EEB6F000EE2
:10127200EC6F000EED6F000EEE6F000EEF6F000EC2
:10128200F06F000EF16FB00EF26F800EF36F080E6A
:10129200F46F070EF56F000EF66F200EF76F000E5B
:1012A200F86F800EF96F000EFA6F000E0001896F61
:1012B200000E8A6F33EC0CF0000E0001896F000EF5
:1012C2008A6F24EC0CF0000E0001896F000E8A6F09
:1012D20015EC0CF0000E286E000E276E000E376E15
:1012E200000E366E100E356E000E346E000E336E2A
:1012F200000E326E390193871200D28A000ED2BEDE
:10130200010E00018B6FD29E550ED46EAA0ED46EC2
:10131200D490000ED76E000ED66E080ED56E550E06
:10132200D46EAA0ED46ED4808BB102D0D29E01D0DC
:10133200D28E390183878389838F8485809F8195AB
:10134200A191D280620E0001896F190E8A6F8EEC14
:101352000CF03901A591D282640E0001896F190E39
:101362008A6F89EC0CF03901A79BD284660E0001CA
:10137200896F190E8A6F84EC0CF01200000E3E0188
:10138200DE6F000EDF6F000EE06F000EE16F000EE9
:10139200E46F000EE56F000EEA6F000EEC6F000EB8
:1013A200F16F010EF36F000EF46F000EF56F000E79
:1013B200F66F000EF76F000EF96F100EFA6F000E47
:1013C200FB6F000EFC6F030EFD6F000EFE6F1F0E13
:1013D200FF6F840EF86F3901A1955E0E0001896FCF
:1013E200190E8A6F93EC0CF039019185A1971200C6
:1013F200B60EF66E180EF76E000EF86E00EE70F076
:1014020010EE10F009006F00D7FFEEFFE550E1503B
:10141200F9E1520EF66E190EF76E000EF86E00EE3E
:101422004FF010EE04F009006F00D7FFEEFFE55019
:10143200E150F9E100EE60F0100EEE6AE806FDE11F
:1014420000EE01F0370EEE6AE806FDE1080ED56EF9
:10145200000ED66E000ED76E000101EF0BF06F008A
:1014620060FF42F06F00E8FF43F06F00ECFF44F0D2
:101472003901A1954D504E10D8B442EF0AF044EF15
:101482000AF050EF0AF002D850EF0AF00500FA6EA7
:101492004D50FD6E4E50FE6EFF6AFA501200600013
:1014A20013F1FBFF60000FF1FAFF60000BF1D8FFB0
:1014B20011006F00E8FF39F06F00ECFF3AF03901DC
:1014C200A39F4850B76E60001FF1B6FF455046100B
:1014D200D8B46EEF0AF070EF0AF07CEF0AF002D88F
:1014E2007CEF0AF00500FA6E4550FD6E4650FE6E26
:1014F200FF6AFA5012006000EBF0FBFF6000E7F0B9
:10150200FAFF11003F6E390193B98AEF0AF08CEFAE
:101512000AF091EF0AF06000FFF0EAFDA9EF0AF08D
:101522003550D8B497EF0AF099EF0AF0A9EF0AF014
:10153200600E3724D96EDA6A000EDA226000FFF0FC
:10154200DFFF37280F0B3E6E3EC037F0939935060A
:041552009389120067
:101558003150D8A4B2EF0AF0B4EF0AF0BBEF0AF0AA
:10156800312A6F00A0F74FF0506AC8EF0AF0000E5A
:10157800316E4F503B6E3D01E8514F6E3BC050F00D
:101588004FC051F050C052F01100000E3D01D26F13
:10159800000ED46F000ED66F000ED86F000EDA6FF3
:1015A800000EDB6F000EDC6F000EDD6F000EDE6FCD
:1015B800200EDF6F000EE06F800EE16F000EE26F0D
:1015C8001200100E3560EBEF0AF0EDEF0AF0FEEFB7
:1015D8000AF0600E3624D96EDA6A000EDA22DF507D
:1015E8003D01EA6F36280F0B3D6E3DC036F0352AB7
:1015F80000EF0BF0390193991200EBEC0BF000ECC3
:101608000CF0620E0001896F100E8A6F93EC0CF0DB
:10161800AA0E0001896F170E8A6F7AEC0CF0BB884E
:10162800BE80D28ED28C17EF0BF057EF00F0E70E8A
:10163800B76E5F0EB66E700EB96EB75000018B6F45
:10164800B650476E8BC048F06C0E896F190E8A6FC2
:101658007AEC0CF03901A39F938F900EB86E1200AC
:10166800010EAE6E200EAD6E000EAF6E1F0EAB6E8D
:10167800000EAA6E6A0E0001896F190E8A6F7FEC40
:0E1688000CF03901A4959485300EAC6E120062
:101698006F0060FF80F06F00E8FF81F06F00ECFFE3
:1016A80082F03901A19193EC0BF060000BF2FBFF83
:0E16B800600007F2FAFF600003F2D8FF110095
:1016C8006F0060FF83F06F00E8FF84F06F00ECFFAD
:1016D80085F03901A591A9EC0BF0600017F2FBFF2A
:0E16E800600013F2FAFF60000FF2D8FF11004D
:1016F8006F0060FF86F06F00E8FF87F06F00ECFF77
:1017080088F03901A79BBFEC0BF0600023F2FBFFC8
:1017180060001FF2FAFF60001BF2D8FF11002D5085
:101728002E10D8B49AEF0BF09CEF0BF0A8EF0BF04B
:1017380002D8A8EF0BF00500FA6E2D50FD6E2E5062
:10174800FE6EFF6AFA50120012002B502C10D8B40B
:10175800B0EF0BF0B2EF0BF0BEEF0BF002D8BEEF1C
:101768000BF00500FA6E2B50FD6E2C50FE6EFF6AD2
:10177800FA501200120029502A10D8B4C6EF0BF004
:10178800C8EF0BF0D4EF0BF002D8D4EF0BF0050044
:10179800FA6E2950FD6E2A50FE6EFF6AFA5012004A
:1017A8001200194A1A2A5150191807E152501A18EA
:1017B800D8A4E1EF0BF0E3EF0BF0EAEF0BF0000E2B
:1017C8001A6E000E196E000E73EC0CF012004FEC3E
:1017D8000CF0B4EC08F0BFEC09F09DEC0CF042EC16
:1017E8000CF01BEC0BF034EC0BF024EC09F0C9EC1A
:1017F8000AF07EEC09F012003D0114BF06EF0CF070
:1018080008EF0CF014EF0CF0830E146F400E156FF8
:10181800020E166F000E1C6F180E196FC496148FE7
:101828001200000189518A11D8B41DEF0CF01FEF86
:101838000CF023EF0CF089C021F08AC022F01200CE
:10184800000189518A11D8B42CEF0CF02EEF0CF05E
:1018580032EF0CF089C023F08AC024F01200000196
:1018680089518A11D8B43BEF0CF03DEF0CF041EFF1
:101878000CF089C025F08AC026F01200400E3D0108
:10188800156F000E166F000E1C6F180E196FC49698
:10189800020E146F1200600E3901D96F000EDB6F53
:1018A800000EDD6F080EDF6F000EDE6F12003031A4
:0E18B8003233343536373839414243444546E1
:1018C8003901A495BE80BB98BB88ADEC0CF0110023
:1018D8003E6E6000FBF0F1FE3E01F8811200386EAA
:1018E8006000E3F0F1FE3E01F881120089C045F086
:1018F8008AC046F0120089C08DF08AC08EF01200AE
:1019080089C029F08AC02AF0120089C02BF08AC049
:101918002CF0120089C02DF08AC02EF0120089C068
:101928004DF08AC04EF012003E6E6000FBF011FDD3
:0A1938001200C20E3E01C16F120042
:06194400B0EC0CF01100F4
:10194C00E5EC0AF0110001000200AC8E1200AC9E16
:10195C0012001200120012001200120011001200EC
:02196C00120067
:020000040020DA
:10000000FF0FFF0FFF0FFF0FFF0FFF0FFF0FFF0F80
:020000040030CA
:0A0000008AFFFDFF9FFFFFFFFFFFD7
:00000001FF
