:0400000057EF00F0C6
:100008005E045E045E045E045E045E045E044F04E7
:100018003D035E0428025E045E045E045E045E0422
:100028005E045E045E045E045E045E045E04E60331
:10003800EC03E1011301C30251045E045E049A0259
:100048005E045E0422045E042B005E045E045E040B
:1000580054035E045E045E045E045E045E045E0493
:100068005E045E045E045E045E045E045E045E0478
:100078005E045E042B005E045E046B032B002B0001
:100088002B002B002B002B002B002B005E045E04A2
:100098005E045E045E045E042B002B002B002B0024
:1000A8005E045E04FF0076EF03F0000E286E000E7B
:1000B800296E000E2A6E000E2B6E600097F3D9FF92
:1000C80060009BF3DAFF60006BF0DEFF60006FF00A
:1000D800DDFF000E2D6E000E2C6E600087F3D9FF39
:1000E80060008BF3DAFF6F0078FF1CF06F0074FF7D
:1000F8001DF01CC01EF01DC01FF0000E1FBEFF0E1D
:10010800206E216E600037F1D9FF60003BF1DAFF05
:100118006F0078FF22F06F0074FF23F022C024F0F4
:1001280023C025F0000E25BEFF0E266E276E1E503A
:1001380024240C6E1F5025200D6E205026200E6E94
:10014800215027200F6E600063F0F6FF600067F013
:10015800F7FFF86A09006F00D4FF10F009006F007C
:10016800D4FF11F009006F00D4FF12F00A006F00ED
:10017800D4FF13F0CDEC04F00C5028260D502922A2
:100188000E502A220F502B22040E1826000E192278
:100198000001E9514D1807E1EA514E18D8A4D7EFEC
:1001A80000F0D9EF00F0DFEF00F0E7C04DF0E8C055
:1001B8004EF0E3EF00F0020E4D5E000E4E5AE7518E
:1001C800E11907E1E851E219D8A4EDEF00F0EFEFEB
:1001D80000F0F5EF00F0E9C0E1F0EAC0E2F0F9EF75
:1001E80000F0020EE127000EE223E1514D1807E16D
:1001F800E2514E18D8A403EF01F005EF01F037EFF4
:1002080001F0600037F1D9FF60003BF1DAFF6F00C1
:1002180078FF0CF06F0074FF0DF0000E0DBEFF0E9E
:100228000E6E0F6E600063F0F6FF600067F0F7FF78
:10023800F86A09006F00D4FF10F009006F00D4FFBE
:1002480011F009006F00D4FF12F00A006F00D4FF0C
:1002580013F0CDEC04F00C5028260D5029220E5036
:100268002A220F502B222C4A2D2A2DBE45EF01F0B1
:100278002D5009E1060E2C5CD8A045EF01F047EFA0
:1002880001F071EF00F0010E00019A251C6E000EBE
:100298009B211D6E1F0E1C149A6F9B6B010EDF2590
:1002A8001C6E000EE0211D6E1F0E1C14DF6FE06B2C
:1002B8009AC01CF09BC01DF0D8901C361D36580EF5
:1002C8001C24E56F010E1D20E66FDFC01CF0E0C0A6
:1002D8001DF0D8901C361D36580E1C24E36F010EF5
:1002E8001D20E46FE5C04DF0E6C04EF0E3C0E1F03C
:1002F800E4C0E2F028C018F029C019F02AC01AF0AA
:100308002BC01BF012003E01F151D8A48EEF01F072
:1003180090EF01F0CFEF01F0BE90000E4CEC08F02A
:10032800B1EC08F03E01F051300978EC08F03E01DC
:10033800EF5178EC08F03E01F0510F0B306E316A46
:10034800B00E3024D96E010E3120DA6EDF505EEC2B
:1003580005F03E01EF390F0B0F0B306E316AB00E0E
:100368003024D96E010E3120DA6EDF505EEC05F0D4
:100378003E01EF510F0B306E316AB00E3024D96E4A
:10038800010E3120DA6EDF505EEC05F02C0E5EECCB
:1003980005F025EF02F0F051316E306AEF5130244C
:1003A8002E6E000E31202F6E32EC06F02EC033F088
:1003B8002FC034F0BE90B1EC08F03450B00978EC9E
:1003C80008F0335078EC08F034C030F0316A30BEB1
:1003D80031680F0E3016000E3116B00E3024D96E6B
:1003E800010E3120DA6EDF505EEC05F033C030F0DC
:1003F80034C031F0040E326E313431323032322EA4
:1004080000EF02F00F0E3016000E3116B00E302439
:10041800D96E010E3120DA6EDF505EEC05F00F0E5A
:100428003314306E000E3414316EB00E3024D96E91
:10043800010E3120DA6EDF505EEC05F00A0E5EEC3C
:1004480005F012006F00E8FF09F06F00ECFF0AF0FA
:1004580010EC08F00009D8B434EF02F036EF02F0DF
:100468003EEF02F0030E416E3D01769BA6EC05F0CF
:1004780086EF02F01BEC08F00009D8B446EF02F052
:1004880048EF02F05AEF02F0EFEC07F00009D8B499
:1004980050EF02F052EF02F05AEF02F0010E416EF7
:1004A8003D01769944EC07F086EF02F0FAEC07F08C
:1004B8000009D8B462EF02F064EF02F074EF02F0C2
:1004C800EFEC07F00009D8B46CEF02F06EEF02F021
:1004D80074EF02F0020E416E3D01769956EF02F07C
:1004E80005EC08F00009D8B47CEF02F07EEF02F0CA
:1004F80084EF02F0030E416E3D01769D86EF02F017
:100508003D0176994150D8B48CEF02F08EEF02F09D
:100518009BEF02F002D89BEF02F00500FA6E000193
:100528009851FD6E9951FE6EFF6AFA5012006000F4
:100538002BF0FBFF600027F0FAFF1100000EBA6EE7
:10054800000EBB6E180EBC6E000EBD6E000EBE6EA9
:10055800030EC26E060EC36E800EC46E000EC56E0C
:10056800000EC66E030E3A01406F060E506F000E65
:10057800606F000E706F000E806F000E416F000EEE
:10058800516F000E616F000E716F000E816F000ECB
:100598005A6F000E5B6F000E6A6F000E6B6F000ED5
:1005A8007A6F000E7B6F000E426F000E526F180EAE
:1005B800626F000E726F000E826F43695369636940
:1005C8007369070E836F44695469646974690F0E0F
:1005D800846F140EDF6F170EE56F130E166F1F0E64
:1005E800156F130EE16F210E136F130EDE6F140ECD
:1005F800E26F220E146F000E456F000E466F000E5C
:10060800476F000E556F000E566F000E576F000EA5
:10061800656F000E666F000E676F000E856F000E27
:10062800866F000E876F120039019397000E000144
:10063800BA6F000EBB6F39019399C20E0001BC6FEF
:100648000B0EBD6F000E3D01E86F000EE96F000E46
:10065800EA6F000EEB6F000EEC6F000EED6F000EF0
:10066800EE6F000EEF6F000EF06F000EF16FB00E20
:10067800F26F800EF36F080EF46F070EF56F000E21
:10068800F66F200EF76F000EF86F800EF96F000EF0
:10069800FA6F000E0101C96F000ECA6F88EC07F0EF
:1006A800000E0101C96F000ECA6F79EC07F0000E49
:1006B8000101C96F000ECA6F6AEC07F0000E000155
:1006C800AD6F000EAC6F000E4C6E000E4B6E100E30
:1006D8004A6E000E496E000E486E000E476E3901D4
:1006E80093871200780EF66E100EF76E000EF86EF5
:1006F80000EEB0F110EE10F009006F00D7FFEEFF2A
:10070800E550E150F9E1660EF66E0F0EF76E000E39
:10071800F86E00EED7F010EE18F009006F00D7FF62
:10072800EEFFE550E150F9E16A0EF66E110EF76E34
:10073800000EF86E09006F00D4FF4DF009006F003D
:10074800D4FF4EF000EE00F1B00EEE6AE806FDE1CF
:1007580000EE60F0770EEE6AE806FDE100EE35F097
:10076800180EEE6AE806FDE1080ED56E000ED66E8C
:0A077800000ED76E000118EF06F026
:100784003D017AA5C8EF03F0CAEF03F0D5EF03F0FB
:1007940079A5CFEF03F0D1EF03F0D5EF03F030EC00
:1007A40007F009EF04F07AAFDAEF03F0DCEF03F0BF
:1007B400F7EF03F079AFE1EF03F0E3EF03F0F7EFC6
:1007C40003F04050D8B4E9EF03F0EBEF03F0F3EF9C
:1007D40003F0000E406E7991799F57EC07F009EF12
:1007E40004F044EC07F0D1EF03F07AA3FCEF03F03C
:1007F400FEEF03F009EF04F079A303EF04F005EF33
:1008040004F009EF04F0A5EC08F03D017993110020
:10081400D28A000ED2BE010E0001F66FD29E550E92
:10082400D46EAA0ED46ED490000ED76E000ED66E7F
:10083400080ED56E550ED46EAA0ED46ED480F6B1C1
:1008440002D0D29E01D0D28E3901828F83818383DC
:10085400838583878389838F8485809F8195A191F4
:10086400D280700E0101C96F110ECA6F6EEC08F0D0
:100874003901A591D282720E0101C96F110ECA6F9E
:1008840069EC08F03901A79BD284740E0101C96F89
:0A089400110ECA6F64EC08F01200A8
:1008A0006F0060FFEFF06F00E8FFF0F06F00ECFF0B
:1008B000F1F06F00D8FFF2F06F00DCFFF3F06F0093
:1008C000E0FFF4F06F00D4FFF5F03901A1950001CD
:1008D000F751F811D8B46FEF04F071EF04F07DEF29
:1008E00004F002D87DEF04F00500FA6EF751FD6EBA
:1008F000F851FE6EFF6AFA5012006000D7F3F5FF60
:100900006000D3F3F8FF6000CFF3F7FF6000CBF394
:10091000F6FF6000C7F3FBFF6000C3F3FAFF60005F
:10092000BFF3D8FF1100000E3E01DE6F000EDF6F37
:10093000000EE06F000EE16F000EE46F000EE56F39
:10094000000EEA6F000EEC6F000EF16F010EF36FF8
:10095000000EF46F000EF56F000EF66F000EF76FCD
:10096000000EF96F100EFA6F000EFB6F000EFC6F99
:10097000030EFD6F000EFE6F1F0EFF6F840EF86FEB
:100980003901A1956C0E0101C96F110ECA6F73EC8C
:1009900008F039019185A1971200000E146E000E27
:1009A000156E000E166E000E176E0CA0DAEF04F036
:1009B000DCEF04F0E4EF04F010501426115015227F
:1009C0001250162213501722D890103611361236B4
:1009D0001336D8900F320E320D320C320C500D10EF
:1009E0000E100F10D8A4F7EF04F0F9EF04F0D5EFD4
:1009F00004F014C00CF015C00DF016C00EF017C0B6
:100A00000FF01200040E3D01736F800E746F080E1C
:100A1000756F010E7B6F000E796F000E7A6F000EFE
:100A2000766F000E6C6F510E3A016A6F510E6B6F4C
:100A3000E4EC07F03D017A917A95738F050EE82E6C
:100A4000FED700F000F000F000F000F000F000F041
:100A50003D01799179957A857E0E0101C96F110E5C
:100A6000CA6F97EC07F012006F00E8FF02F06F000A
:100A7000ECFF03F03901A39F0001B351B76E600092
:100A8000CBF2B6FFB051B111D8B449EF05F04BEF3E
:100A900005F057EF05F002D857EF05F00500FA6EA4
:100AA000B051FD6EB151FE6EFF6AFA501200600047
:100AB0000FF0FBFF60000BF0FAFF11000D6E390123
:100AC00093B965EF05F067EF05F06CEF05F0600096
:100AD00037F0EAFD84EF05F04A50D8B472EF05F024
:100AE00074EF05F084EF05F0400E4C24D96EDA6AFD
:100AF000010EDA22600037F0DFFF4C280F0B0C6E7E
:100B00000CC04CF093994A06938912004650D8A421
:100B10008CEF05F08EEF05F096EF05F0462A6F009A
:100B2000A0F7EBF00001EC6BA5EF05F0000E466EB0
:100B30000001EB51046E3D01E8510001EB6F04C070
:100B4000ECF0EBC0EDF0ECC0EEF011009AEC08F028
:100B50008CEC08F031EC08F091EC08F03D01739F4B
:100B600026EC08F03D017A917A95738F050EE82EF8
:100B7000FED700F000F000F000F000F000F000F010
:100B80003D01799179957A851200000E3D01D26F71
:100B9000000ED46F000ED66F000ED86F000EDA6F05
:100BA000000EDB6F000EDC6F000EDD6F000EDE6FDF
:100BB000200EDF6F000EE06F800EE16F000EE26F1F
:100BC0001200100E4A60E7EF05F0E9EF05F0FAEFCA
:100BD00005F0400E4B24D96EDA6A010EDA22DF509E
:100BE0003D01EA6F4B280F0B066E06C04BF04A2AF8
:100BF000FCEF05F0390193991200E70EB76E5F0E16
:100C0000B66E700EB96EB7500101CB6FB6500001D1
:100C1000B26FCBC1B3F07C0E0101C96F110ECA6F68
:100C20005AEC08F03901A39F938F900EB86E120012
:100C30004CEC06F01BEC07F00E0E0101C96F030E21
:100C4000CA6F73EC08F0080E0101C96F0E0ECA6F6F
:100C50005AEC08F0BB88BE80D28ED28C2EEF06F004
:100C600057EF00F0CE0E186EFF0E196E2EC01AF060
:100C70002FC01BF059EC00F0110E44EF06F0D89095
:100C80001B321A3219321832E82E3FEF06F018C024
:100C90002EF019C02FF01200BFEC07F0A2EC02F00A
:100CA00093EC04F096EC08F002EC05F0A6EC07F0EB
:100CB000FDEC05F063EC06F018EC03F0C5EC05F074
:100CC0000AEC04F01200010EAE6E200EAD6E000EA6
:100CD000AF6E1F0EAB6E000EAA6E7A0E0101C96FC9
:100CE000110ECA6F5FEC08F03901A4959485300E9F
:100CF000AC6E12006F0060FFC0F16F00E8FFC1F141
:100D00006F00ECFFC2F13901A19191EC06F0600097
:100D10000BF7FBFF600007F7FAFF600003F7D8FF4F
:100D200011000001B851B911D8B499EF06F09BEF4A
:100D300006F0A7EF06F002D8A7EF06F00500FA6E5E
:100D4000B851FD6EB951FE6EFF6AFA5012001200E2
:100D50006F0060FFC3F16F00E8FFC4F16F00ECFFAC
:100D6000C5F13901A591BFEC06F0600017F7FBFF54
:100D7000600013F7FAFF60000FF7D8FF11000001C1
:100D8000B651B711D8B4C7EF06F0C9EF06F0D5EFEA
:100D900006F002D8D5EF06F00500FA6EB651FD6EEA
:100DA000B751FE6EFF6AFA50120012006F0060FF2A
:100DB000C6F16F00E8FFC7F16F00ECFFC8F1390121
:100DC000A79BEDEC06F0600023F7FBFF60001FF728
:100DD000FAFF60001BF7D8FF11000001B451B511F4
:100DE000D8B4F5EF06F0F7EF06F003EF07F002D8FE
:100DF00003EF07F00500FA6EB451FD6EB551FE6EBB
:100E0000FF6AFA50120012000001A04BA12BED5115
:100E1000A01907E1EE51A119D8A411EF07F013EFC3
:100E200007F01AEF07F0000EA16F000EA06F000E82
:100E300053EC08F012003D0114BF21EF07F023EF3F
:100E400007F02FEF07F0830E146F400E156F020EA0
:100E5000166F000E1C6F180E196FC496148F1200B7
:100E6000000E356E000E376E3668000E386E000EBE
:100E7000396E000E3C6E000E3D6E9AEC08F08CEC64
:100E800008F091EC08F01200A5EC08F0A8EC08F0CE
:100E90000009D8B44EEF07F050EF07F056EF07F017
:100EA000000E82EC08F0000E7DEC08F012003E50BF
:100EB0003F10D8B45EEF07F060EF07F063EF07F084
:100EC0003E5082EC08F0D880363487EC08F0ABEC6A
:100ED00008F012000101C951CA11D8B472EF07F02D
:100EE00074EF07F078EF07F0C9C1A6F0CAC1A7F008
:100EF00012000101C951CA11D8B481EF07F083EF84
:100F000007F087EF07F0C9C1A8F0CAC1A9F0120025
:100F10000101C951CA11D8B490EF07F092EF07F060
:100F200096EF07F0C9C1AAF0CAC1ABF012000101E7
:100F3000C951CA11D8B49FEF07F0A1EF07F0A5EF90
:100F400007F0C9C198F0CAC199F01200400E3D01E6
:100F5000156F000E166F000E1C6F180E196FC496D9
:100F6000020E146F1200BF009801CB00A4011500FF
:100F70008201800158019601580101000200600EB3
:100F80003901D96F000EDB6F000EDD6F080EDF6FC9
:060F9000000EDE6F1200EE
:100F9800AEEC08F06000F3F0D9FF6000F7F0DAFF7C
:100FA800DF6E3C4A3D2A11006000E3F0D9FF600083
:100FB800E7F0DAFF384A392ADF507DEC08F01100F3
:100FC800390193839385928F93813D017A857A8342
:100FD8007A8F768112003D0174BBF5EF07F0F8EFC8
:100FE80007F0010EF9EF07F0000E12003D0177B788
:100FF80000EF08F003EF08F0010E04EF08F0000E10
:1010080012003D0176BD0BEF08F00EEF08F0010E5F
:101018000FEF08F0000E12003D0176BB16EF08F046
:1010280019EF08F0010E1AEF08F0000E12003D014A
:1010380077A721EF08F024EF08F0010E25EF08F05C
:10104800000E1200390193839385928F93813D019D
:101058007A857A837A8F76811200390193939395F2
:10106800929F9391000E3D017A6F000E766F1200E9
:1010780030313233343536373839414243444546C6
:101088003901A495BE80BB98BB88B3EC08F0110069
:101098000C6E600033F0F1FE3E01F8811200016E23
:1010A800600007F0F1FE3E01F8811200C9C1B0F0FE
:1010B800CAC1B1F01200C9C1AEF0CAC1AFF0120086
:1010C800C9C1B4F0CAC1B5F01200C9C1B6F0CAC1ED
:1010D800B7F01200C9C1B8F0CAC1B9F01200C9C14D
:1010E800F7F0CAC1F8F012000C6E600033F011FD81
:1010F80012000B6E60002FF06BFD1200086E60008E
:1011080023F06CFD1200076E60001FF06EFD1200E8
:101118003D01769B769D76991200000E3D01786F11
:1011280078851200C20E3E01C16F1200000E3D010B
:0A113800796F1200B7EC08F0110007
:10114400E1EC05F011003D01739D12003D016C516D
:1011540012003D01738B12003D016A511200AC8EE6
:101164001200AC9E1200580112001200120012006C
:02117400120067
:08117800110012001200120028
:10FECE00000000803F0000000000000000000080E5
:10FEDE003FFB06C03F325E293F0000803F0000001E
:10FEEE0000000000000000803FC455C33EADB7BF08
:10FEFE003E0000803F0000000000000000A96B30B3
:10FF0E003F00000000000000000000803F27A6B563
:10FF1E003F0000803FA96B303F0000000000000052
:10FF2E00000000803F27A6B53F0000803F00008004
:10FF3E003F0000000000000000300600000000BC82
:10FF4E000A00000000000000000000000000000099
:10FF5E000000000000000000000000000000000093
:10FF6E0000100FF20ED40E0000040A000000000074
:10FF7E000000000000000000002E0F00004C0F00DB
:10FF8E0000360E00000000000000000000F010C659
:10FF9E000C621166110000BE100000FA0B0000008A
:10FFAE00000000B410000001000300010003000176
:10FFBE0000010003000100030001008340023F0026
:10FFCE0017030000890A0000CF120000A71A0000D4
:10FFDE00C82000002424000024240000C8200000B3
:10FFEE00A71A0000CF120000890A000017030000B4
:01FFFE000002
:020000040020DA
:10000000FF0FFF0FFF0FFF0FFF0FFF0FFF0FFF0F80
:020000040030CA
:0A0000008AFFFDFF9FFFFFFFFFFFD7
:00000001FF
