:0400000057EF00F0C6
:10000800E907E907E907E907E907E907E907DD0774
:10001800BB06E907D705E907E907E907E907E9079B
:10002800E907E907E907E907E907E907E907E90748
:10003800E907E907E9075D06E107E907E907EC05CC
:100048000106DF078505E9072B00E907E907E90746
:10005800D206E907E907E907E907E9073E0747077D
:100068001E057204E907E907E907E907E907E9074F
:10007800E907E9072B00E907E907E9062B002B0048
:100088002B002B002B002B002B002B00E907E90786
:10009800E907E907E907E9072B002B002B002B00EC
:0A00A800E907E907FF0044EF0BF041
:1010000000BC1300000000581800000000000000A1
:1010100000000000000000000000000000000000D0
:101020000000000000000000007C1D5E1D401D004F
:1010300000F61600000000000000000000000000A4
:10104000009A1D0000B81D0000581C0000000000A0
:101050000000000000181FF018000000000000E66B
:101060001E0000BC1A8E1F921F0000DC1E00008AAA
:101070001A000000000000D21E00008340023F0062
:01108000006F
:101082003E01F151D8A448EF08F04AEF08F099EF79
:1010920008F0BE90010E55EC0FF0BDA253EF08F020
:1010A20057EF08F0396A392A58EF08F0396A394699
:1010B200BD503918FD0B3918BD6EC7EC0FF03E015B
:1010C200F05130098CEC0FF03E01EF518CEC0FF037
:1010D2003E01F0510F0B396E3A6AB20E3924D96EC5
:1010E200000E3A20DA6EDF502CEC0CF03E01EF39A4
:1010F2000F0B0F0B396E3A6AB20E3924D96E000EFD
:101102003A20DA6EDF502CEC0CF03E01EF510F0B5F
:10111200396E3A6AB20E3924D96E000E3A20DA6E6E
:10112200DF502CEC0CF02C0E2CEC0CF0E3EF08F062
:10113200BE90BDA29FEF08F0A3EF08F0396A392AEA
:10114200A4EF08F0396A3946BD503918FD0B391839
:10115200BD6EC7EC0FF03E01F051B0098CEC0FF000
:101162003E01EF518CEC0FF03E01F0510F0B396E46
:101172003A6AB20E3924D96E000E3A20DA6EDF5086
:101182002CEC0CF03E01EF390F0B0F0B396E3A6A63
:10119200B20E3924D96E000E3A20DA6EDF502CECF2
:1011A2000CF03E01EF510F0B396E3A6AB20E392440
:1011B200D96E000E3A20DA6EDF502CEC0CF00A0EDB
:1011C2002CEC0CF012006F0060FFA0F06F00E8FF43
:1011D200A1F06F00ECFFA2F021EC0FF00009D8B4EF
:1011E200F5EF08F0F7EF08F0FFEF08F0030E0D6ED1
:1011F2003D01609B9BEC0CF047EF09F02CEC0FF0EB
:101202000009D8B407EF09F009EF09F01BEF09F064
:1012120000EC0FF00009D8B411EF09F013EF09F058
:101222001BEF09F0010E0D6E3D01609955EC0EF0B9
:1012320047EF09F00BEC0FF00009D8B423EF09F0E7
:1012420025EF09F035EF09F000EC0FF00009D8B4F2
:101252002DEF09F02FEF09F035EF09F0020E0D6EB8
:101262003D01609917EF09F016EC0FF00009D8B4B0
:101272003DEF09F03FEF09F045EF09F0030E0D6E67
:101282003D01609D47EF09F03D0160990D50D8B4D2
:101292004DEF09F04FEF09F05CEF09F002D85CEF77
:1012A20009F00500FA6E00019C51FD6E9D51FE6E23
:1012B200FF6AFA50120060008BF2FBFF600087F2B7
:1012C200FAFF600083F2D8FF1100000EBA6E060E1C
:1012D200BB6E000EBC6E000EBD6E000EBE6E030E27
:1012E200C26E000EC36E980EC46E000EC56E000E66
:1012F200C66E030E3A01406F000E506F000E606F13
:10130200000E706F000E806F000E416F000E516F65
:10131200000E616F000E716F000E816F000E5A6F2A
:10132200000E5B6F000E6A6F000E6B6F000E7A6F1D
:10133200000E7B6F000E426F060E526F000E626F40
:10134200000E726F000E826F43695369636973699D
:10135200070E836F44695469646974690F0E846F60
:10136200170EE56F140EDF6F130E166F1F0E156F3B
:10137200090EE36F230E096F0A0EE46F240E0A6F43
:10138200130EDE6F1E0E136F000E456F000E466FBA
:10139200000E476F000E556F000E566F000E576F0E
:1013A200000E656F000E666F000E676F000E856F90
:1013B200000E866F000E876F120039019397000EA0
:1013C2000001986F000E996F39019399E60E0001A2
:1013D2009A6F190E9B6F000E3D01E86F000EE96FC8
:1013E200000EEA6F000EEB6F000EEC6F000EED6F59
:1013F200000EEE6F000EEF6F000EF06F000EF16F39
:10140200B00EF26F800EF36F080EF46F070EF56FD9
:10141200000EF66F200EF76F000EF86F800EF96F58
:10142200000EFA6F000E0001AE6F000EAF6FBEEC41
:101432000EF0000E0001AE6F000EAF6FAFEC0EF0BB
:10144200000E0001AE6F000EAF6FA0EC0EF0000EAA
:1014520000018D6F000E8C6F000E286E000E276E3D
:10146200100E266E000E256E000E246E000E236EE8
:101472003901938712006F0060FF3FF03D0164A5C0
:1014820045EF0AF047EF0AF052EF0AF063A54CEF7E
:101492000AF04EEF0AF052EF0AF041EC0EF086EF3E
:1014A2000AF064AF57EF0AF059EF0AF074EF0AF04E
:1014B20063AF5EEF0AF060EF0AF074EF0AF00C50CF
:1014C200D8B466EF0AF068EF0AF070EF0AF0000E87
:1014D2000C6E6391639F68EC0EF086EF0AF055EC98
:1014E2000EF04EEF0AF064A379EF0AF07BEF0AF0F8
:1014F20086EF0AF063A380EF0AF082EF0AF086EF2C
:101502000AF0ADEC0FF03D0163936000FFF0D8FFED
:101512001100D28A000ED2BE010E0001B06FD29E1F
:10152200550ED46EAA0ED46ED490000ED76E000E55
:10153200D66E080ED56E550ED46EAA0ED46ED48019
:10154200B0B102D0D29E01D0D28E39018387838975
:10155200838F84818485809F8195859D859F8691D7
:101562008693A191D2809C0E0001AE6F1F0EAF6FC9
:1015720082EC0FF03901A591D2829E0E0001AE6F6E
:101582001F0EAF6F7DEC0FF03901A79BD284A00E26
:101592000001AE6F1F0EAF6F78EC0FF01200000E5D
:1015A2003E01DE6F000EDF6F000EE06F000EE16F96
:1015B200000EE46F000EE56F000EEA6F000EEC6F96
:1015C200000EF16F010EF36F000EF46F000EF56F57
:1015D200000EF66F000EF76F000EF96F100EFA6F25
:1015E200000EFB6F000EFC6F030EFD6F000EFE6F10
:1015F2001F0EFF6F840EF86F3901A195960E000140
:10160200AE6F1F0EAF6F87EC0FF039019185A19776
:1016120012006F00E8FF31F06F00ECFF32F0390189
:10162200A495BDA217EF0BF01BEF0BF0306A302A26
:101632001CEF0BF0306A3046BD503018FD0B3018ED
:10164200BD6EBE80BB98BB88000188518911D8B499
:101652002DEF0BF02FEF0BF03BEF0BF002D83BEF2F
:101662000BF00500FA6E8851FD6E8951FE6EFF6A1D
:10167200FA501200C9EC0FF06000CBF0FBFF6000E3
:10168200C7F0FAFF11009A0EF66E1E0EF76E000EEC
:10169200F86E00EEB2F010EE10F009006F00D7FF06
:1016A200EEFFE550E150F9E18A0EF66E1F0EF76E7D
:1016B200000EF86E00EE42F010EE04F009006F002A
:1016C200D7FFEEFFE550E150F9E100EE60F03E0E8B
:1016D200EE6AE806FDE100EE01F0280EEE6AE80689
:1016E200FDE1080ED56E000ED66E000ED76E00011B
:1016F2000FEF0DF0040E3D015D6F800E5E6F080E60
:101702005F6F030E656F000E636F000E646F000E55
:10171200606F000E566F510E3A016A6F510E6B6F79
:10172200F5EC0EF03D01649164955D8F050EE82E97
:10173200FED700F000F000F000F000F000F000F042
:101742003D01639163956485980E0001AE6F1F0E93
:08175200AF6FCDEC0EF01200A8
:10175C006F0060FF3BF06F00E8FF3CF06F00ECFFA8
:10176C003DF03901A19546504710D8B4C0EF0BF0AD
:10177C00C2EF0BF0CEEF0BF002D8CEEF0BF0050062
:10178C00FA6E4650FD6E4750FE6EFF6AFA5012001C
:10179C006000F7F0FBFF6000F3F0FAFF6000EFF081
:1017AC00D8FF11006F00E8FF2AF06F00ECFF2BF060
:1017BC003901A39F00019151B76E600043F2B6FF4F
:1017CC008E518F11D8B4EDEF0BF0EFEF0BF0FBEF68
:1017DC000BF002D8FBEF0BF00500FA6E8E51FD6E8C
:1017EC008F51FE6EFF6AFA5012006000AFF0FBFFE3
:1017FC006000ABF0FAFF11006F00E8FF35F06F00EE
:10180C00ECFF36F03901A49112C033F013C034F060
:10181C0016EC0EF00E500F10D8B417EF0CF019EFA9
:10182C000CF025EF0CF002D825EF0CF00500FA6E49
:10183C000E50FD6E0F50FE6EFF6AFA5012006000E3
:10184C00DBF0FBFF6000D7F0FAFF1100386E3901B6
:10185C0093B933EF0CF035EF0CF03AEF0CF060006D
:10186C00E3F0EAFD52EF0CF02650D8B440EF0CF048
:10187C0042EF0CF052EF0CF0700E2824D96EDA6A9D
:10188C00000EDA226000E3F0DFFF28280F0B376E22
:10189C0037C028F09399260693891200000E3D015B
:1018AC006B6F000E6C6F000E6D6F000E6E6F000E86
:1018BC006F6F000E706F000E716F000E726F000E66
:1018CC00736F000E746F000E756F000E766F000E46
:1018DC00786F000E796F000E7A6F000E7B6F010E21
:1018EC007C6F1200000EB36E000EB46E020EB56E5D
:1018FC00FD0EB16E7F0EB06EB0506F00C4FEB0F036
:10190C000001B16BB0C0B1F0B06BB011126EB1513F
:10191C00136EA60EAE6F1F0EAF6F73EC0FF0390186
:10192C00A4919481030EB26E1200A9EC0FF09BEC03
:10193C000FF042EC0FF0A0EC0FF03D015D9F37EC87
:10194C000FF03D01649164955D8F050EE82EFED776
:10195C0000F000F000F000F000F000F000F03D01AD
:10196C0063916395648512002250D8A4C0EF0CF0EB
:10197C00C2EF0CF0C9EF0CF0222A6F00A0F742F076
:10198C00436AD6EF0CF0000E226E42502C6E3D01D5
:10199C00E851426E2CC043F042C044F043C045F0C5
:1019AC001100000E3D01D26F000ED46F000ED66FE9
:1019BC00000ED86F000EDA6F000EDB6F000EDC6FBE
:1019CC00000EDD6F000EDE6F200EDF6F000EE06F7D
:1019DC00800EE16F000EE26F1200100E2660F9EF20
:1019EC000CF0FBEF0CF00CEF0DF0700E2724D96E01
:1019FC00DA6A000EDA22DF503D01EA6F27280F0B5E
:101A0C002E6E2EC027F0262A0EEF0DF03901939979
:101A1C0012002AEC0DF0820E0001AE6F100EAF6FAB
:101A2C0087EC0FF0000E0001AE6F1C0EAF6F69EC6F
:101A3C000FF0000E2CEC0EF0BB88BE80D28ED28C38
:101A4C0026EF0DF057EF00F0E9EC0EF066EC09F024
:101A5C00D0EC0AF0A5EC0FF07BEC0BF054EC0CF096
:101A6C00DCEC0EF045EC0DF078EC0CF05EEC0DF0CF
:101A7C00DEEC09F0D7EC0CF08AEC0AF01200E70E61
:101A8C00B76E5F0EB66E700EB96EB7500001B06FC8
:101A9C00B650906FB0C091F0AA0EAE6F1F0EAF6F24
:101AAC0069EC0FF03901A39F938F900EB86E120062
:101ABC00010EAE6E200EAD6E000EAF6E1F0EAB6E35
:101ACC00000EAA6EA80E0001AE6F1F0EAF6F6EEC6B
:0E1ADC000FF03901A4959485300EAC6E120007
:101AEC006F0060FFA5F06F00E8FFA6F06F00ECFF41
:101AFC00A7F03901A1918DEC0DF060009FF2FBFF76
:101B0C0060009BF2FAFF600097F2D8FF1100000111
:101B1C0096519711D8B495EF0DF097EF0DF0A3EF08
:101B2C000DF002D8A3EF0DF00500FA6E9651FD6E84
:101B3C009751FE6EFF6AFA50120012006F0060FFA0
:101B4C00A8F06F00E8FFA9F06F00ECFFAAF03901D4
:101B5C00A591BBEC0DF06000ABF2FBFF6000A7F2AF
:101B6C00FAFF6000A3F2D8FF110000019451951107
:101B7C00D8B4C3EF0DF0C5EF0DF0D1EF0DF002D8D6
:101B8C00D1EF0DF00500FA6E9451FD6E9551FE6E7D
:101B9C00FF6AFA50120012006F0060FFABF06F008A
:101BAC00E8FFACF06F00ECFFADF03901A79BE9EC5E
:101BBC000DF06000B7F2FBFF6000B3F2FAFF6000BB
:101BCC00AFF2D8FF1100000192519311D8B4F1EF8C
:101BDC000DF0F3EF0DF0FFEF0DF002D8FFEF0DF06D
:101BEC000500FA6E9251FD6E9351FE6EFF6AFA502B
:101BFC0012001200144A152A4450141807E14550DB
:101C0C001518D8A40CEF0EF00EEF0EF015EF0EF029
:101C1C00000E156E000E146E000E5CEC0FF0120030
:101C2C00B2A41BEF0EF01DEF0EF026EF0EF0B290EB
:101C3C003450B16E6000CFF0B0FFB2802BEF0EF0DD
:101C4C003450B16E6000CFF0B0FF12003D0114BFF4
:101C5C0032EF0EF034EF0EF040EF0EF0830E146FF7
:101C6C00400E156F020E166F000E1C6F180E196FBA
:101C7C00C496148F1200000E016E000E036E0268E3
:101C8C00000E046E000E056E000E086E000E096E3E
:101C9C00A9EC0FF09BEC0FF0A0EC0FF01200ADECE8
:101CAC000FF0B0EC0FF00009D8B45FEF0EF061EF5D
:101CBC000EF067EF0EF0000E91EC0FF0000E63ECDF
:101CCC000FF012000A500B10D8B46FEF0EF071EF3A
:101CDC000EF074EF0EF00A5091EC0FF0D880023435
:0A1CEC0096EC0FF0B3EC0FF01200BD
:101CF8006F0060FF41F0B6EC0FF0600023F0D9FFF1
:101D0800600027F0DAFFDF6E084A092A600007F151
:101D1800D8FF11006F0060FFA4F0600013F0D9FF36
:101D2800600017F0DAFF044A052ADF5063EC0FF071
:101D3800600093F2D8FF11000001AE51AF11D8B482
:101D4800A8EF0EF0AAEF0EF0AEEF0EF0AEC08AF0DC
:101D5800AFC08BF012000001AE51AF11D8B4B7EF8D
:101D68000EF0B9EF0EF0BDEF0EF0AEC01CF0AFC034
:101D78001DF012000001AE51AF11D8B4C6EF0EF03D
:101D8800C8EF0EF0CCEF0EF0AEC01EF0AFC01FF0E3
:101D980012000001AE51AF11D8B4D5EF0EF0D7EF55
:101DA8000EF0DBEF0EF0AEC09CF0AFC09DF012005D
:101DB800400E3D01156F000E166F000E1C6F180EB9
:101DC800196FC496020E146F1200600E3901D96F94
:101DD800000EDB6F000EDD6F080EDF6F000EDE6F8A
:101DE8001200390196819683958D958F3D01648502
:101DF8006483648F608112003D015EBB06EF0FF0C3
:101E080009EF0FF0010E0AEF0FF0000E12003D016E
:101E180061B711EF0FF014EF0FF0010E15EF0FF08F
:101E2800000E12003D0160BD1CEF0FF01FEF0FF018
:101E3800010E20EF0FF0000E12003D0160BB27EFEE
:101E48000FF02AEF0FF0010E2BEF0FF0000E12002B
:101E58003D0161A732EF0FF035EF0FF0010E36EFBD
:101E68000FF0000E1200390196819683958D958F9B
:101E78003D0164856483648F608112003901969105
:101E88009693959D959F000E3D01646F000E606FBF
:101E98001200303132333435363738394142434411
:101EA8004546376E6000DFF0F1FE3E01F881120012
:101EB800336E6000CFF0F1FE3E01F88112000001A0
:101EC800A36F60008FF255FD1200AEC08EF0AFC058
:101ED8008FF01200AEC088F0AFC089F01200AEC01B
:101EE8000EF0AFC00FF01200AEC092F0AFC093F08A
:101EF8001200AEC094F0AFC095F01200AEC096F0DC
:101F0800AFC097F01200AEC046F0AFC047F0120065
:101F1800376E6000DFF011FD1200406E600003F1C3
:101F280056FD12003E6E6000FBF058FD12003D01A8
:101F3800609B609D60991200000E3D01626F628592
:101F48001200C20E3E01C16F1200000E3D01636F08
:101F580012003D015D9D12003D01565112003D01E8
:0A1F68005D8B12003D015451120080
:061F7400CDEC0FF011009E
:061F7C003901A4931100DD
:101F8400F3EC0CF0110001000200AC8E1200AC9EC8
:0E1F94001200120012001200120012001200C1
:081FA4001100120012001200EE
:020000040020DA
:10000000FF0FFF0FFF0FFF0FFF0FFF0FFF0FFF0F80
:020000040030CA
:0A0000008AFFFDFF9FFFFFFFFFFFD7
:00000001FF
