:0400000057EF00F0C6
:1000080053065306530653065306530653064A0629
:10001800AF055306FA045306530653065306530610
:100028005306530653065306530653065306530600
:100038005306530653065F054C06530653060F0531
:1000480053065306240553062B005306530653063E
:10005800BB05530653065306530653065306530669
:1000680053065306530653065306530653065306C0
:10007800530653062B0053065306C7052B002B00C7
:100088002B002B002B002B002B002B0053065306B4
:1000980053065306530653062B002B002B002B0048
:0A00A80053065306FF00BDEF09F0F8
:1010000000421100000000E2140000000000000097
:1010100000000000000000000000000000000000D0
:101020000000000000000000005E184018221800B8
:10103000007C180000F8170000000000000000000D
:101040000016198E163A193E190000E41800005CCB
:1010500016000000000000DA1800008340023F0084
:01106000008F
:10106200000EBA6E000EBB6E000EBC6E000EBD6EA0
:10107200000EBE6E030EC26E060EC36E980EC46ED6
:10108200000EC56E000EC66E030E3A01406F060ECC
:10109200506F000E606F000E706F000E806F000EBA
:1010A200416F000E516F000E616F000E716F000EE6
:1010B200816F000E5A6F000E5B6F000E6A6F000E9A
:1010C2006B6F000E7A6F000E7B6F000E426F000E88
:1010D200526F000E626F000E726F000E826F4369D4
:1010E200536963697369070E836F4469546964695C
:1010F20074690F0E846F170EE56F140EDF6F130EF7
:10110200166F1F0E156F130EDE6F1E0E136F000E7D
:10111200456F000E466F000E476F000E556F000EB2
:10112200566F000E576F000E656F000E666F000E51
:10113200676F000E856F000E866F000E876F1200BC
:1011420039019397000E486E000E496E9399EE0E88
:101152004A6E150E4B6E000E3D01E86F000EE96FF0
:10116200000EEA6F000EEB6F000EEC6F000EED6FDB
:10117200000EEE6F000EEF6F000EF06F000EF16FBB
:10118200B00EF26F800EF36F080EF46F070EF56F5C
:10119200000EF66F200EF76F000EF86F800EF96FDB
:1011A200000EFA6F000E0001916F000E926F2FEC8D
:1011B2000CF0000E0001916F000E926F20EC0CF00B
:1011C200000E0001916F000E926F11EC0CF0000EF8
:1011D200206E000E1F6E000E2F6E000E2E6E100E71
:1011E2002D6E000E2C6E000E2B6E000E2A6E390133
:1011F200938712003E01F151D8A402EF09F004EFE7
:1012020009F041EF09F0BE90010E5FEC0CF09DEC8D
:101212000CF03E01F05130098BEC0CF03E01EF5125
:101222008BEC0CF03E01F0510F0B3D6E3E6A780ED6
:101232003D24D96E000E3E20DA6EDF5071EC0AF0CA
:101242003E01EF390F0B0F0B3D6E3E6A780E3D24C7
:10125200D96E000E3E20DA6EDF5071EC0AF03E01CC
:10126200EF510F0B3D6E3E6A780E3D24D96E000E93
:101272003E20DA6EDF5071EC0AF02C0E71EC0AF0AF
:101282001200D28A000ED2BE010E0001936FD29ECE
:10129200550ED46EAA0ED46ED490000ED76E000EE8
:1012A200D66E080ED56E550ED46EAA0ED46ED480AC
:1012B20093B102D0D29E01D0D28E39018387838925
:1012C200838F8485809F8195A191D280460E0001F3
:1012D200916F190E926F81EC0CF03901A591D282B7
:1012E200480E0001916F190E926F7CEC0CF03901DF
:1012F200A79BD2844A0E0001916F190E926F77EC70
:101302000CF01200000E3E01DE6F000EDF6F000EC9
:10131200E06F000EE16F000EE46F000EE56F000E4D
:10132200EA6F000EEC6F000EF16F010EF36F000E0C
:10133200F46F000EF56F000EF66F000EF76F000EE1
:10134200F96F100EFA6F000EFB6F000EFC6F030EAA
:10135200FD6F000EFE6F1F0EFF6F840EF86F3901D6
:10136200A195420E0001916F190E926F86EC0CF05E
:1013720039019185A1971200AE0EF66E180EF76E26
:10138200000EF86E00EE78F010EE10F009006F001B
:10139200D7FFEEFFE550E150F9E1360EF66E190E79
:1013A200F76E000EF86E00EE4EF010EE04F009003B
:1013B2006F00D7FFEEFFE550E150F9E100EE60F07B
:1013C200180EEE6AE806FDE100EE01F02F0EEE6A5D
:1013D200E806FDE1080ED56E000ED66E000ED76E41
:1013E200000113EF0BF06F0060FF3FF06F00E8FFAA
:1013F20040F06F00ECFF41F03901A1954C504D10C7
:10140200D8B406EF0AF008EF0AF014EF0AF002D897
:1014120014EF0AF00500FA6E4C50FD6E4D50FE6E50
:10142200FF6AFA501200600007F1FBFF600003F14F
:10143200FAFF6000FFF0D8FF11006F00E8FF32F002
:101442006F00ECFF33F03901A39F4750B76E600085
:101452001BF1B6FF44504510D8B432EF0AF034EF16
:101462000AF040EF0AF002D840EF0AF00500FA6EE7
:101472004450FD6E4550FE6EFF6AFA501200600045
:0C148200CFF0FBFF6000CBF0FAFF110080
:101490006F00E8FF36F06F00ECFF37F03901A495DC
:1014A000BE80BB98BB8842504310D8B45AEF0AF0B4
:1014B0005CEF0AF068EF0AF002D868EF0AF0050066
:1014C000FA6E4250FD6E4350FE6EFF6AFA501200F3
:1014D0009FEC0CF06000DFF0FBFF6000DBF0FAFF38
:1014E00011003C6E390193B978EF0AF07AEF0AF0F7
:1014F0007FEF0AF06000F3F0EAFD97EF0AF02D505D
:10150000D8B485EF0AF087EF0AF097EF0AF0600E83
:101510002F24D96EDA6A000EDA226000F3F0DFFFC2
:101520002F280F0B3B6E3BC02FF093992D0693890C
:101530001200BDA09EEF0AF0A2EF0AF0356A352A2C
:10154000A3EF0AF0356ABD503518FE0B3518BD6E95
:10155000114A122A5050111807E151501218D8A4FC
:10156000B4EF0AF0B6EF0AF0BDEF0AF0000E126E0B
:10157000000E116E000E66EC0CF012002950D8A47B
:10158000C4EF0AF0C6EF0AF0CDEF0AF0292A6F0087
:10159000A0F74EF04F6ADAEF0AF0000E296E4E50B7
:1015A000386E3D01E8514E6E38C04FF04EC050F0DD
:1015B0004FC051F01100000E3D01D26F000ED46FEC
:1015C000000ED66F000ED86F000EDA6F000EDB6FC4
:1015D000000EDC6F000EDD6F000EDE6F200EDF6F81
:1015E000000EE06F800EE16F000EE26F1200100E31
:1015F0002D60FDEF0AF0FFEF0AF010EF0BF0600E28
:101600002E24D96EDA6A000EDA22DF503D01EA6F2D
:101610002E280F0B3A6E3AC02EF02D2A12EF0BF047
:10162000390193991200E7EC0BF0F60E0001916F6F
:10163000110E926F86EC0CF0320E0001916F150EB8
:10164000926F6DEC0CF0000EFCEC0BF0BB88BE80D2
:10165000D28ED28C2AEF0BF057EF00F0E70EB76E68
:101660005F0EB66E700EB96EB7500001936FB65034
:10167000466E93C047F0500E916F190E926F6DEC4D
:101680000CF03901A39F938F900EB86E1200010EDB
:10169000AE6E200EAD6E000EAF6E1F0EAB6E000E66
:1016A000AA6E4E0E0001916F190E926F72EC0CF043
:1016B0003901A4959485300EAC6E12006F0060FF66
:1016C00088F06F00E8FF89F06F00ECFF8AF03901C5
:1016D000A191A5EC0BF060002BF2FBFF600027F25C
:0A16E000FAFF600023F2D8FF1100AA
:1016EC006F0060FF8BF06F00E8FF8CF06F00ECFF79
:1016FC008DF03901A591BBEC0BF0600037F2FBFFCC
:0E170C00600033F2FAFF60002FF2D8FF1100E8
:10171C006F0060FF8EF06F00E8FF8FF06F00ECFF42
:10172C0090F03901A79BD1EC0BF0600043F2FBFF6A
:10173C0060003FF2FAFF60003BF2D8FF1100255029
:10174C002610D8B4ACEF0BF0AEEF0BF0BAEF0BF0F9
:10175C0002D8BAEF0BF00500FA6E2550FD6E26503C
:10176C00FE6EFF6AFA501200120023502410D8B4F7
:10177C00C2EF0BF0C4EF0BF0D0EF0BF002D8D0EFB0
:10178C000BF00500FA6E2350FD6E2450FE6EFF6ABE
:10179C00FA501200120021502210D8B4D8EF0BF0DE
:1017AC00DAEF0BF0E6EF0BF002D8E6EF0BF00500EA
:1017BC00FA6E2150FD6E2250FE6EFF6AFA50120036
:1017CC0012004BEC0CF031EC08F083EC09F090ECCF
:1017DC000CF03EEC0CF02EEC0BF047EC0BF0A1EC0B
:1017EC0008F0DBEC0AF042EC09F012003D0114BFEA
:1017FC0002EF0CF004EF0CF010EF0CF0830E146FF2
:10180C00400E156F020E166F000E1C6F180E196F1E
:10181C00C496148F1200000191519211D8B419EF93
:10182C000CF01BEF0CF01FEF0CF091C019F092C0F4
:10183C001AF01200000191519211D8B428EF0CF05B
:10184C002AEF0CF02EEF0CF091C01BF092C01CF0A4
:10185C001200000191519211D8B437EF0CF039EF0E
:10186C000CF03DEF0CF091C01DF092C01EF0120078
:10187C00400E3D01156F000E166F000E1C6F180EFA
:10188C00196FC496020E146F1200600E3901D96FD5
:10189C00000EDB6F000EDD6F080EDF6F000EDE6FCB
:1018AC001200303132333435363738394142434403
:1018BC0045463B6E6000EFF0F1FE3E01F8811200F0
:1018CC00346E6000D3F0F1FE3E01F881120091C03D
:1018DC0044F092C045F0120091C042F092C043F027
:1018EC00120091C021F092C022F0120091C023F09E
:1018FC0092C024F0120091C025F092C026F0120084
:10190C0091C04CF092C04DF012003B6E6000EFF0B5
:10191C0011FD1200C20E3E01C16F1200A2EC0CF0C0
:02192C001100A8
:10193000F7EC0AF0110001000200AC8E1200AC9E20
:101940001200120012001200120012001100120008
:02195000120083
:020000040020DA
:10000000FF0FFF0FFF0FFF0FFF0FFF0FFF0FFF0F80
:020000040030CA
:0A0000008AFFFDFF9FFFFFFFFFFFD7
:00000001FF
