:0400000057EF00F0C6
:100008007902790279027902790279027902710218
:10001800C001790231017902790279027902790203
:1000280079027902790279027902790279027902F0
:100038007902790279027001730279027902470123
:1000480079027902520279022B0079027902790247
:10005800CC0179027902790279027902790279026E
:1000680079027902790279027902790279027902B0
:10007800790279022B0079027902D8012B002B0032
:100088002B002B002B002B002B002B007902790270
:1000980079027902790279022B002B002B002B00C0
:1000A80079027902FF00EAEF01F03E01F151D8A48C
:1000B80060EF00F062EF00F0A1EF00F0BE90010EDB
:1000C800ACEC04F0E9EC04F03E01F0513009D8EC56
:1000D80004F03E01EF51D8EC04F03E01F0510F0B53
:1000E8004C6E4D6AD80E4C24D96E000E4D20DA6E37
:1000F800DF50B8EC02F03E01EF390F0B0F0B4C6EDE
:100108004D6AD80E4C24D96E000E4D20DA6EDF50A1
:10011800B8EC02F03E01EF510F0B4C6E4D6AD80E51
:100128004C24D96E000E4D20DA6EDF50B8EC02F088
:100138002C0EB8EC02F0DBEF00F0BE90E9EC04F016
:100148003E01F051B009D8EC04F03E01EF51D8EC73
:1001580004F03E01F0510F0B4C6E4D6AD80E4C2442
:10016800D96E000E4D20DA6EDF50B8EC02F03E0179
:10017800EF390F0B0F0B4C6E4D6AD80E4C24D96E0D
:10018800000E4D20DA6EDF50B8EC02F03E01EF5160
:100198000F0B4C6E4D6AD80E4C24D96E000E4D20B4
:1001A800DA6EDF50B8EC02F00A0EB8EC02F012007A
:1001B800000EBA6E000EBB6E000EBC6E000EBD6E59
:1001C800000EBE6E030EC26E060EC36E980EC46E8F
:1001D800000EC56E000EC66E030E3A01406F060E85
:1001E800506F000E606F000E706F000E806F000E73
:1001F800416F000E516F000E616F000E716F000E9F
:10020800816F000E5A6F000E5B6F000E6A6F000E52
:100218006B6F000E7A6F000E7B6F000E426F000E40
:10022800526F000E626F000E726F000E826F43698C
:10023800536963697369070E836F44695469646914
:1002480074690F0E846F170EE56F140EDF6F130EAF
:10025800166F1F0E156F130EDE6F1E0E136F000E36
:10026800456F000E466F000E476F000E556F000E6B
:10027800566F000E576F000E656F000E666F000E0A
:10028800676F000E856F000E866F000E876F120075
:1002980039019397000E0001F06F000EF16F3901DC
:1002A8009399320E0001F26F060EF36F000E3D01B6
:1002B800E86F000EE96F000EEA6F000EEB6F000E9C
:1002C800EC6F000EED6F000EEE6F000EEF6F000E7C
:1002D800F06F000EF16FB00EF26F800EF36F080E24
:1002E800F46F070EF56F000EF66F200EF76F000E15
:1002F800F86F800EF96F000EFA6F000E0101836F20
:10030800000E846F67EC04F0000E0101836F000E8D
:10031800846F58EC04F0000E0101836F000E846FA7
:1003280049EC04F0000E1E6E000E1D6E000E2D6EC0
:10033800000E2C6E100E2B6E000E2A6E000E296E0B
:10034800000E286E390193871200D28A000ED2BEA1
:10035800010E0101856FD29E550ED46EAA0ED46E81
:10036800D490000ED76E000ED66E080ED56E550EC0
:10037800D46EAA0ED46ED48085B102D0D29E01D09C
:10038800D28E390183878389838F8485809F819565
:10039800A191D280DE0E0101836F090E846FCEEC2D
:1003A80004F03901A591D282E00E0101836F090E94
:1003B800846FC9EC04F03901A79BD284E20E0101D5
:1003C800836F090E846FC4EC04F01200340EF66ECD
:1003D800090EF76E000EF86E00EED8F010EE14F06D
:1003E80009006F00D7FFEEFFE550E150F9E11E0E5E
:1003F800F66E090EF76E000EF86E00EE2EF010EE97
:1004080016F009006F00D7FFEEFFE550E150F9E163
:1004180000EE00F1800EEE6AE806FDE100EE60F005
:10042800780EEE6AE806FDE100EE01F02D0EEE6AA8
:10043800E806FDE1080ED56E000ED66E000ED76EEA
:10044800000135EF03F0000E3E01DE6F000EDF6F96
:10045800000EE06F000EE16F000EE46F000EE56F16
:10046800000EEA6F000EEC6F000EF16F010EF36FD5
:10047800000EF46F000EF56F000EF66F000EF76FAA
:10048800000EF96F100EFA6F000EFB6F000EFC6F76
:10049800030EFD6F000EFE6F1F0EFF6F840EF86FC8
:1004A8003901A195DA0E0101836F090E846FD3EC2F
:0A04B80004F039019185A1971200AC
:1004C4006F0060FF4EF06F00E8FF4FF06F00ECFF2D
:1004D40050F03901A1950001F451F511D8B475EF2C
:1004E40002F077EF02F083EF02F002D883EF02F01C
:1004F4000500FA6EF451FD6EF551FE6EFF6AFA5076
:100504001200600043F1FBFF60003FF1FAFF60005E
:060514003BF1D8FF1100CD
:10051C006F00E8FF45F06F00ECFF46F03901A39F38
:10052C005250B76E600047F1B6FF0001EE51EF116B
:10053C00D8B4A3EF02F0A5EF02F0B1EF02F002D8AD
:10054C00B1EF02F00500FA6EEE51FD6EEF51FE6E4A
:10055C00FF6AFA50120060001BF1FBFF600017F1FC
:10056C00FAFF11004B6E390193B9BFEF02F0C1EFE6
:10057C0002F0C6EF02F060002FF1EAFDDEEF02F0B0
:10058C002B50D8B4CCEF02F0CEEF02F0DEEF02F03D
:10059C00700E2D24D96EDA6A000EDA2260002FF16B
:1005AC00DFFF2D280F0B4A6E4AC02DF093992B06B6
:1005BC00938912002750D8A4E6EF02F0E8EF02F07E
:1005CC00EFEF02F0272A6F00A0F740F0416AFCEF32
:1005DC0002F0000E276E4050476E3D01E851406E10
:1005EC0047C041F040C042F041C043F01100000E42
:1005FC003D01D26F000ED46F000ED66F000ED86F77
:10060C00000EDA6F000EDB6F000EDC6F000EDD6F7C
:10061C00000EDE6F200EDF6F000EE06F800EE16FBC
:10062C00000EE26F1200100E2B601FEF03F021EF93
:10063C0003F032EF03F0700E2C24D96EDA6A000E40
:10064C00DA22DF503D01EA6F2C280F0B496E49C0AE
:10065C002CF02B2A34EF03F03901939912001FEC84
:10066C0004F034EC04F0B20E0101836F000E846FC1
:10067C00D3EC04F0120E0101836F080E846FBAECF8
:10068C0004F0BB88BE80D28ED28C4BEF03F057EFB8
:10069C0000F0E70EB76E5F0EB66E700EB96EB75007
:1006AC000101856FB650516E85C152F0E80E836F13
:1006BC00090E846FBAEC04F03901A39F938F900E4E
:1006CC00B86E1200010EAE6E200EAD6E000EAF6E47
:1006DC001F0EAB6E000EAA6EE60E0101836F090EA3
:1006EC00846FBFEC04F03901A4959485300EAC6E88
:0206FC001200EA
:100700006F0060FFF6F06F00E8FFF7F06F00ECFF9E
:10071000F8F03901A191C7EC03F06000E3F3FBFFAF
:0E0720006000DFF3FAFF6000DBF3D8FF11008A
:100730006F0060FFF9F06F00E8FFFAF06F00ECFF68
:10074000FBF03901A591DDEC03F06000EFF3FBFF56
:0E0750006000EBF3FAFF6000E7F3D8FF110042
:100760006F0060FF80F16F00E8FF81F16F00ECFF28
:1007700082F13901A79BF3EC03F060000BF6FBFF5D
:10078000600007F6FAFF600003F6D8FF110023505F
:100790002410D8B4CEEF03F0D0EF03F0DCEF03F079
:1007A00002D8DCEF03F00500FA6E2350FD6E2450F2
:1007B000FE6EFF6AFA501200120021502210D8B4C7
:1007C000E4EF03F0E6EF03F0F2EF03F002D8F2EF0C
:1007D00003F00500FA6E2150FD6E2250FE6EFF6A96
:1007E000FA50120012001F502010D8B4FAEF03F094
:1007F000FCEF03F008EF04F002D808EF04F0050066
:10080000FA6E1F50FD6E2050FE6EFF6AFA50120005
:100810001200114A122A4250111807E143501218CF
:10082000D8A415EF04F017EF04F01EEF04F0000E4B
:10083000126E000E116E000EB3EC04F0120083EC89
:1008400004F0DCEC00F027EC02F0DDEC04F076ECD8
:1008500004F04FEC03F068EC03F04CEC01F0FDEC1D
:1008600002F0A9EC01F012003D0114BF3AEF04F0D0
:100870003CEF04F048EF04F0830E146F400E156F48
:10088000020E166F000E1C6F180E196FC496148F8F
:100890001200010183518411D8B451EF04F053EFD9
:1008A00004F057EF04F083C117F084C118F0120070
:1008B000010183518411D8B460EF04F062EF04F0B9
:1008C00066EF04F083C119F084C11AF0120001012F
:1008D00083518411D8B46FEF04F071EF04F075EF19
:1008E00004F083C11BF084C11CF01200400E3D01D6
:1008F000156F000E166F000E1C6F180E196FC49640
:10090000020E146F1200600E3901D96F000EDB6FFA
:10091000000EDD6F080EDF6F000EDE6F1200A80004
:10092000B400C000CC0015006A014001680140011C
:100930000100020030313233343536373839414224
:10094000434445467E0140013901A495BE80BB98D1
:10095000BB88EBEC04F011004A6E60002BF1F1FE55
:100960003E01F8811200446E600013F1F1FE3E0179
:10097000F881120083C1EEF084C1EFF0120083C150
:10098000ECF084C1EDF0120083C11FF084C120F0AF
:10099000120083C121F084C122F0120083C123F030
:1009A00084C124F0120083C1F4F084C1F5F0120078
:1009B0004A6E60002BF111FD1200C20E3E01C16FA4
:0209C000120023
:0609C400EEEC04F011004E
:1009CC0019EC03F01100AC8E1200AC9E1200120058
:0E09DC00120012001200120011001200120090
:10FEE200000000803F0000000000000000000080D1
:10FEF2003FFB06C03F325E293F0000803F0000000A
:10FF020000000000000000803FC455C33EADB7BFF3
:10FF12003E0000803F0000000000000000A96B309E
:10FF22003F00000000000000000000803F27A6B54F
:10FF32003F0000803FA96B303F000000000000003E
:10FF4200000000803F27A6B53F0000803F000080F0
:10FF52003F00000000000000009802000000007056
:10FF6200050000000000000000000000000000008A
:10FF7200000000000000000000000000000000007F
:10FF820000CE08B00892080000EC080000680800E3
:10FF9200000000000000000000B009D006D209D61F
:10FFA2000900007E0900009E0600000000000074A7
:10FFB2000900000100030001000300010001000329
:10FFC200000100030001008340023F00170300000C
:10FFD200890A0000CF120000A71A0000C820000002
:10FFE2002424000024240000C8200000A71A0000D6
:0DFFF200CF120000890A0000170300000074
:020000040020DA
:10000000FF0FFF0FFF0FFF0FFF0FFF0FFF0FFF0F80
:020000040030CA
:0A0000008AFFFDFF9FFFFFFFFFFFD7
:00000001FF
