:0400000057EF00F0C6
:10000800D907D907D907D907D907D907D907CD07F4
:10001800B606D907AA05D907D907D907D907D9072D
:10002800D907D907D907D907D907D907D907D907C8
:10003800D907D907D9075806D107D907D907BF055E
:10004800E905CF07D405D9072B00D907D907D90760
:10005800CD06D907D907D907D907D9072E073707F2
:100068000E056204D907D907D907D907D907D907CF
:10007800D907D9072B00D907D907E4062B002B008D
:100088002B002B002B002B002B002B00D907D907A6
:10009800D907D907D907D9072B002B002B002B002C
:0A00A800D907D907FF00EAEF0AF0BC
:10100000007C1300000000F8170000000000000042
:1010100000000000000000000000000000000000D0
:101020000000000000000000003C1D1E1D001D000F
:101030000042160000000000000000000000000058
:10104000005A1D0000781D0000181C000000000060
:101050000000000000D81EDC18000000000000A600
:101060001E0000A81A4E1F521F00009C1E00007692
:101070001A000000000000921E00008340023F00A2
:01108000006F
:101082003E01F151D8A448EF08F04AEF08F089EF89
:1010920008F0BE90010E35EC0FF0A7EC0FF03E0108
:1010A200F05130096CEC0FF03E01EF516CEC0FF097
:1010B2003E01F0510F0B3A6E3B6AB30E3A24D96EE1
:1010C200000E3B20DA6EDF50FCEC0BF03E01EF39F4
:1010D2000F0B0F0B3A6E3B6AB30E3A24D96E000E19
:1010E2003B20DA6EDF50FCEC0BF03E01EF510F0BB0
:1010F2003A6E3B6AB30E3A24D96E000E3B20DA6E8A
:10110200DF50FCEC0BF02C0EFCEC0BF0C3EF08F004
:10111200BE90A7EC0FF03E01F051B0096CEC0FF05D
:101122003E01EF516CEC0FF03E01F0510F0B3A6EA5
:101132003B6AB30E3A24D96E000E3B20DA6EDF50C2
:10114200FCEC0BF03E01EF390F0B0F0B3A6E3B6AD2
:10115200B30E3A24D96E000E3B20DA6EDF50FCEC5F
:101162000BF03E01EF510F0B3A6E3B6AB30E3A247D
:10117200D96E000E3B20DA6EDF50FCEC0BF00A0E4B
:10118200FCEC0BF012006F0060FFA0F06F00E8FFB4
:10119200A1F06F00ECFFA2F001EC0FF00009D8B44F
:1011A200D5EF08F0D7EF08F0DFEF08F0030E0D6E71
:1011B2003D01609B91EC0CF027EF09F00CEC0FF075
:1011C2000009D8B4E7EF08F0E9EF08F0FBEF08F008
:1011D200E0EC0EF00009D8B4F1EF08F0F3EF08F0FC
:1011E200FBEF08F0010E0D6E3D01609935EC0EF03B
:1011F20027EF09F0EBEC0EF00009D8B403EF09F089
:1012020005EF09F015EF09F0E0EC0EF00009D8B493
:101212000DEF09F00FEF09F015EF09F0020E0D6E58
:101222003D016099F7EF08F0F6EC0EF00009D8B432
:101232001DEF09F01FEF09F025EF09F0030E0D6E07
:101242003D01609D27EF09F03D0160990D50D8B432
:101252002DEF09F02FEF09F03CEF09F002D83CEF37
:1012620009F00500FA6E00019C51FD6E9D51FE6E63
:10127200FF6AFA50120060008BF2FBFF600087F2F7
:10128200FAFF600083F2D8FF1100000EBA6E060E5C
:10129200BB6E000EBC6E000EBD6E000EBE6E030E67
:1012A200C26E000EC36E980EC46E000EC56E000EA6
:1012B200C66E030E3A01406F000E506F000E606F53
:1012C200000E706F000E806F000E416F000E516FA6
:1012D200000E616F000E716F000E816F000E5A6F6B
:1012E200000E5B6F000E6A6F000E6B6F000E7A6F5E
:1012F200000E7B6F000E426F060E526F000E626F81
:10130200000E726F000E826F4369536963697369DD
:10131200070E836F44695469646974690F0E846FA0
:10132200170EE56F140EDF6F130E166F1F0E156F7B
:10133200090EE36F230E096F0A0EE46F240E0A6F83
:10134200130EDE6F1E0E136F000E456F000E466FFA
:10135200000E476F000E556F000E566F000E576F4E
:10136200000E656F000E666F000E676F000E856FD0
:10137200000E866F000E876F120039019397000EE0
:101382000001986F000E996F39019399D20E0001F6
:101392009A6F190E9B6F000E3D01E86F000EE96F08
:1013A200000EEA6F000EEB6F000EEC6F000EED6F99
:1013B200000EEE6F000EEF6F000EF06F000EF16F79
:1013C200B00EF26F800EF36F080EF46F070EF56F1A
:1013D200000EF66F200EF76F000EF86F800EF96F99
:1013E200000EFA6F000E0001AF6F000EB06F9EECA0
:1013F2000EF0000E0001AF6F000EB06F8FEC0EF01A
:10140200000E0001AF6F000EB06F80EC0EF0000E08
:1014120000018B6F000E8A6F000E286E000E276E81
:10142200100E266E000E256E000E246E000E236E28
:101432003901938712006F0060FF40F03D0164A5FF
:1014420025EF0AF027EF0AF032EF0AF063A52CEF3E
:101452000AF02EEF0AF032EF0AF021EC0EF066EFFE
:101462000AF064AF37EF0AF039EF0AF054EF0AF0EE
:1014720063AF3EEF0AF040EF0AF054EF0AF00C506F
:10148200D8B446EF0AF048EF0AF050EF0AF0000E27
:101492000C6E6391639F48EC0EF066EF0AF035EC38
:1014A2000EF02EEF0AF064A359EF0AF05BEF0AF098
:1014B20066EF0AF063A360EF0AF062EF0AF066EFEC
:1014C2000AF08DEC0FF03D016393600003F1D8FF49
:1014D2001100D28A000ED2BE010E0001B16FD29E5F
:1014E200550ED46EAA0ED46ED490000ED76E000E96
:1014F200D66E080ED56E550ED46EAA0ED46ED4805A
:10150200B1B102D0D29E01D0D28E390183878389B4
:10151200838F84818485809F8195859D859F869117
:101522008693A191D2805C0E0001AF6F1F0EB06F47
:1015320062EC0FF03901A591D2825E0E0001AF6F0D
:101542001F0EB06F5DEC0FF03901A79BD284600EC5
:101552000001AF6F1F0EB06F58EC0FF01200000EBB
:101562003E01DE6F000EDF6F000EE06F000EE16FD6
:10157200000EE46F000EE56F000EEA6F000EEC6FD6
:10158200000EF16F010EF36F000EF46F000EF56F97
:10159200000EF66F000EF76F000EF96F100EFA6F65
:1015A200000EFB6F000EFC6F030EFD6F000EFE6F50
:1015B2001F0EFF6F840EF86F3901A195560E0001C0
:1015C200AF6F1F0EB06F67EC0FF039019185A197D5
:1015D20012005A0EF66E1E0EF76E000EF86E00EE38
:1015E200B3F010EE10F009006F00D7FFEEFFE550E8
:1015F200E150F9E14A0EF66E1F0EF76E000EF86E1C
:1016020000EE42F010EE04F009006F00D7FFEEFF8B
:10161200E550E150F9E100EE60F03E0EEE6AE806B8
:10162200FDE100EE01F0280EEE6AE806FDE1080E8B
:10163200D56E000ED66E000ED76E000105EF0DF0CE
:10164200040E3D015D6F800E5E6F080E5F6F030E2C
:10165200656F000E636F000E646F000E606F000E08
:10166200566F510E3A016A6F510E6B6FD5EC0EF048
:101672003D01649164955D8F050EE82EFED700F062
:1016820000F000F000F000F000F000F03D01639186
:1016920063956485580E0001AF6F1F0EB06FADECFD
:0416A2000EF0120034
:1016A8006F0060FF3CF06F00E8FF3DF06F00ECFF5B
:1016B8003EF03901A19546504710D8B466EF0BF0BB
:1016C80068EF0BF074EF0BF002D874EF0BF0050025
:1016D800FA6E4650FD6E4750FE6EFF6AFA501200D1
:1016E8006000FBF0FBFF6000F7F0FAFF6000F3F02A
:1016F800D8FF11006F00E8FF2BF06F00ECFF2CF013
:101708003901A39F00019151B76E600043F2B6FF03
:101718008E518F11D8B493EF0BF095EF0BF0A1EF2A
:101728000BF002D8A1EF0BF00500FA6E8E51FD6E9A
:101738008F51FE6EFF6AFA5012006000B3F0FBFF93
:101748006000AFF0FAFF11006F00E8FF2FF06F00A4
:10175800ECFF30F03901A495BE80BB98BB8800012E
:101768008C518D11D8B4BBEF0BF0BDEF0BF0C9EF66
:101778000BF002D8C9EF0BF00500FA6E8C51FD6E24
:101788008D51FE6EFF6AFA501200A9EC0FF060004E
:10179800C3F0FBFF6000BFF0FAFF11006F00E8FF25
:1017A80033F06F00ECFF34F03901A4911EC031F022
:1017B8001FC032F0F6EC0DF01A501B10D8B4E7EF4A
:1017C8000BF0E9EF0BF0F5EF0BF002D8F5EF0BF0AB
:1017D8000500FA6E1A50FD6E1B50FE6EFF6AFA5035
:1017E80012006000D3F0FBFF6000CFF0FAFF110099
:1017F800396E390193B903EF0CF005EF0CF00AEFDD
:101808000CF06000E7F0EAFD22EF0CF02650D8B4A7
:1018180010EF0CF012EF0CF022EF0CF0700E2824F1
:10182800D96EDA6A000EDA226000E7F0DFFF2828B6
:101838000F0B386E38C028F093992606938912004A
:101848000E4A0F2A44500E1807E145500F18D8A425
:1018580030EF0CF032EF0CF049EF0CF0BDA237EF8F
:101868000CF03BEF0CF0326A322A3CEF0CF0326A93
:101878003246BD503218FD0B3218BD6E000E0F6E89
:10188800000E0E6E000E3CEC0FF01200000E3D0133
:101898006B6F000E6C6F000E6D6F000E6E6F000E9A
:1018A8006F6F000E706F000E716F000E726F000E7A
:1018B800736F000E746F000E756F000E766F000E5A
:1018C800786F000E796F000E7A6F000E7B6F010E35
:1018D8007C6F1200000EB36E000EB46E020EB56E71
:1018E800FD0EB16E7F0EB06EB0506F00C4FEB1F049
:1018F8000001B26BB1C0B2F0B16BB1111E6EB25142
:101908001F6E660EAF6F1F0EB06F53EC0FF03901EC
:10191800A4919481030EB26E120089EC0FF07BEC57
:101928000FF022EC0FF080EC0FF03D015D9F17ECFB
:101938000FF03D01649164955D8F050EE82EFED78A
:1019480000F000F000F000F000F000F000F03D01C1
:1019580063916395648512002250D8A4B6EF0CF009
:10196800B8EF0CF0BFEF0CF0222A6F00A0F742F09E
:10197800436ACCEF0CF0000E226E4250356E3D01EA
:10198800E851426E35C043F042C044F043C045F0D0
:101998001100000E3D01D26F000ED46F000ED66FFD
:1019A800000ED86F000EDA6F000EDB6F000EDC6FD2
:1019B800000EDD6F000EDE6F200EDF6F000EE06F91
:1019C800800EE16F000EE26F1200100E2660EFEF3E
:1019D8000CF0F1EF0CF002EF0DF0700E2724D96E29
:1019E800DA6A000EDA22DF503D01EA6F27280F0B72
:1019F800376E37C027F0262A04EF0DF03901939986
:101A0800120020EC0DF0820E0001AF6F100EB06FC7
:101A180067EC0FF0480E0001AF6F180EB06F49EC7D
:101A28000FF0000E0CEC0EF0BB88BE80D28ED28C6C
:101A38001CEF0DF057EF00F0C9EC0EF046EC09F082
:101A4800B0EC0AF085EC0FF021EC0BF04AEC0CF04E
:101A5800BCEC0EF03BEC0DF06EEC0CF054EC0DF021
:101A6800BEEC09F0CDEC0CF06AEC0AF01200E70EBF
:101A7800B76E5F0EB66E700EB96EB7500001B16FDB
:101A8800B650906FB1C091F06A0EAF6F1F0EB06F75
:101A980049EC0FF03901A39F938F900EB86E120096
:101AA800010EAE6E200EAD6E000EAF6E1F0EAB6E49
:101AB800000EAA6E680E0001AF6F1F0EB06F4EECDD
:0E1AC8000FF03901A4959485300EAC6E12001B
:101AD8006F0060FFA6F06F00E8FFA7F06F00ECFF53
:101AE800A8F03901A19183EC0DF06000A3F2FBFF8F
:101AF80060009FF2FAFF60009BF2D8FF110000011E
:101B080096519711D8B48BEF0DF08DEF0DF099EF3A
:101B18000DF002D899EF0DF00500FA6E9651FD6EA2
:101B28009751FE6EFF6AFA50120012006F0060FFB4
:101B3800A9F06F00E8FFAAF06F00ECFFABF03901E5
:101B4800A591B1EC0DF06000AFF2FBFF6000ABF2C5
:101B5800FAFF6000A7F2D8FF110000019451951117
:101B6800D8B4B9EF0DF0BBEF0DF0C7EF0DF002D808
:101B7800C7EF0DF00500FA6E9451FD6E9551FE6E9B
:101B8800FF6AFA50120012006F0060FFACF06F009D
:101B9800E8FFADF06F00ECFFAEF03901A79BDFEC7A
:101BA8000DF06000BBF2FBFF6000B7F2FAFF6000C7
:101BB800B3F2D8FF1100000192519311D8B4E7EFA6
:101BC8000DF0E9EF0DF0F5EF0DF002D8F5EF0DF09F
:101BD8000500FA6E9251FD6E9351FE6EFF6AFA503F
:101BE80012001200B2A4FBEF0DF0FDEF0DF006EFAE
:101BF8000EF0B2903250B16E6000C7F0B0FFB28004
:101C08000BEF0EF03250B16E6000C7F0B0FF12005B
:101C18003D0114BF12EF0EF014EF0EF020EF0EF09E
:101C2800830E146F400E156F020E166F000E1C6F98
:101C3800180E196FC496148F1200000E016E000E54
:101C4800036E0268000E046E000E056E000E086E2C
:101C5800000E096E89EC0FF07BEC0FF080EC0FF0B2
:101C680012008DEC0FF090EC0FF00009D8B43FEFA4
:101C78000EF041EF0EF047EF0EF0000E71EC0FF092
:101C8800000E43EC0FF012000A500B10D8B44FEFBF
:101C98000EF051EF0EF054EF0EF00A5071EC0FF009
:0E1CA800D880023476EC0FF093EC0FF01200AF
:101CB8006F0060FFA3F096EC0FF0600023F0D9FFEF
:101CC800600027F0DAFFDF6E084A092A60008FF209
:101CD800D8FF11006F0060FFA5F0600013F0D9FF76
:101CE800600017F0DAFF044A052ADF5043EC0FF0D2
:101CF800600097F2D8FF11000001AF51B011D8B4BD
:101D080088EF0EF08AEF0EF08EEF0EF0AFC088F07D
:101D1800B0C089F012000001AF51B011D8B497EFEC
:101D28000EF099EF0EF09DEF0EF0AFC016F0B0C0B8
:101D380017F012000001AF51B011D8B4A6EF0EF0A1
:101D4800A8EF0EF0ACEF0EF0AFC018F0B0C019F06D
:101D580012000001AF51B011D8B4B5EF0EF0B7EFD3
:101D68000EF0BBEF0EF0AFC09CF0B0C09DF01200BB
:101D7800400E3D01156F000E166F000E1C6F180EF9
:101D8800196FC496020E146F1200600E3901D96FD4
:101D9800000EDB6F000EDD6F080EDF6F000EDE6FCA
:101DA8001200390196819683958D958F3D01648542
:101DB8006483648F608112003D015EBBE6EF0EF024
:101DC800E9EF0EF0010EEAEF0EF0000E12003D01F1
:101DD80061B7F1EF0EF0F4EF0EF0010EF5EF0EF033
:101DE800000E12003D0160BDFCEF0EF0FFEF0EF09B
:101DF800010E00EF0FF0000E12003D0160BB07EF6F
:101E08000FF00AEF0FF0010E0BEF0FF0000E1200AB
:101E18003D0161A712EF0FF015EF0FF0010E16EF5D
:101E28000FF0000E1200390196819683958D958FDB
:101E38003D0164856483648F608112003901969145
:101E48009693959D959F000E3D01646F000E606FFF
:101E58001200303132333435363738394142434451
:101E68004546386E6000E3F0F1FE3E01F88112004D
:101E7800316E6000C7F0F1FE3E01F88112000001EA
:101E8800A46F600093F255FD1200AFC08EF0B0C091
:101E98008FF01200AFC08CF0B0C08DF01200AFC050
:101EA8001AF0B0C01BF01200AFC092F0B0C093F0AF
:101EB8001200AFC094F0B0C095F01200AFC096F019
:101EC800B0C097F01200AFC046F0B0C047F01200A3
:101ED800386E6000E3F011FD1200416E600007F1FA
:101EE80056FD12003F6E6000FFF058FD12003D01E4
:101EF800609B609D60991200000E3D01626F6285D3
:101F08001200C20E3E01C16F1200000E3D01636F48
:101F180012003D015D9D12003D01565112003D0128
:0A1F28005D8B12003D0154511200C0
:061F3400ADEC0FF01100FE
:061F3C003901A49311001D
:101F4400E9EC0CF0110001000200AC8E1200AC9E12
:0E1F5400120012001200120012001200120001
:081F640011001200120012002E
:020000040020DA
:10000000FF0FFF0FFF0FFF0FFF0FFF0FFF0FFF0F80
:020000040030CA
:0A0000008AFFFDFF9FFFFFFFFFFFD7
:00000001FF
