:0400000057EF00F0C6
:10000800750775077507750775077507750770070D
:1000180058067507CA0575077507750775077507C3
:1000280075077507750775077507750775077507E8
:1000380075077507750709073F0675077507EF0503
:1000480075077507750775072B0075077507750719
:10005800640675077507750775077507D906E206FB
:10006800DF041B047507750775077507750775079E
:10007800750775072B007507750770062B002B0091
:100088002B002B002B002B002B002B00750775076E
:1000980075077507750775072B002B002B002B00BC
:0A00A80075077507FF0002EF0CF06A
:1010000000601400000000D6160000000000000080
:1010100000000000000000000000000000000000D0
:10102000000000000000000000E81BCA1BAC1B0011
:101030000012160000000000000000000000000088
:1010400000061C0000421C00000000000000000020
:1010500000000000000000F21A0000000000003252
:091060001D00000240001F000009
:10106C006F0060FF84F06F00E8FF85F06F00ECFF0D
:10107C0086F06F00D8FF87F06F00DCFF88F06F0000
:10108C00E0FF89F06F00D4FF8AF066EC0EF00009E7
:10109C00D8B453EF08F055EF08F05DEF08F0030EED
:1010AC000D6E3D01609B25EC0CF0A5EF08F071EC8A
:1010BC000EF00009D8B465EF08F067EF08F079EF8F
:1010CC0008F045EC0EF00009D8B46FEF08F071EFA2
:1010DC0008F079EF08F0010E0D6E3D0160998CEC73
:1010EC000DF0A5EF08F050EC0EF00009D8B481EF2C
:1010FC0008F083EF08F093EF08F045EC0EF00009D0
:10110C00D8B48BEF08F08DEF08F093EF08F0020ED7
:10111C000D6E3D01609975EF08F05BEC0EF0000967
:10112C00D8B49BEF08F09DEF08F0A3EF08F0030E86
:10113C000D6E3D01609DA5EF08F03D0160990D50CD
:10114C00D8B4ABEF08F0ADEF08F0B9EF08F002D867
:10115C00B9EF08F00500FA6E2650FD6E2750FE6EB2
:10116C00FF6AFA50120060002BF2F5FF600027F2C4
:10117C00F8FF600023F2F7FF60001FF2F6FF60003B
:10118C001BF2FBFF600017F2FAFF600013F2D8FFAE
:10119C0011002C50020D600EF324D96E000EF420B9
:1011AC00DA6E000EDE6E000EDD6E3D01F9A7E1EF8A
:1011BC0008F0E3EF08F002EF09F02C50020D600E7E
:1011CC00F324D96E000EF420DA6E0001DF82185081
:1011DC001910D8B4F4EF08F0F6EF08F002EF09F0AC
:1011EC0002D802EF09F00500FA6E1850FD6E195086
:1011FC00FE6EFF6AFA5012003D01F9A308EF09F0E8
:10120C000AEF09F029EF09F02C50020D600EF324BF
:10121C00D96E000EF420DA6E0001DF841650171020
:10122C00D8B41BEF09F01DEF09F029EF09F002D833
:10123C0029EF09F00500FA6E1650FD6E1750FE6E80
:10124C00FF6AFA5012006F00A0F738F02C28070B39
:10125C00396E2B503918D8A436EF09F038EF09F055
:10126C003AEF09F046EF09F0700E2C24D96EDA6AC9
:10127C00000EDA226000E3F0DFFF39C02CF02A2ADE
:10128C001200000EBA6E060EBB6E000EBC6E000E87
:10129C00BD6E000EBE6EC30EC26E000EC36EB80ED7
:1012AC00C46E000EC56E000EC66EC30E3A01406FC2
:1012BC00000E506F200E606F000E706F000E806F6E
:1012CC00000E416F000E516F000E616F000E716FBA
:1012DC00000E816F000E5A6F000E5B6F000E6A6F6E
:1012EC00000E6B6F000E7A6F000E7B6F000E426F5C
:1012FC00060E526F000E626F000E726F000E826F40
:10130C004369536963697369070E836F4469546950
:10131C00646974690F0E846F140EDF6F170EE56F1E
:10132C00130E166F130EDE6F1E0E136F090EE36F86
:10133C00230E096F0A0EE46F240E0A6F000E456F20
:10134C00000E466F000E476F000E556F000E566F65
:10135C00000E576F000E656F000E666F000E676F04
:0E136C00000E856F000E866F000E876F120058
:10137C006F0060FF3DF06F00E8FF3EF06F00ECFF88
:10138C003FF06F00D8FF40F06F00DCFF41F06F00C2
:10139C00E0FF42F06F00D4FF43F03D0164A5D9EFAC
:1013AC0009F0DBEF09F0E6EF09F063A5E0EF09F0D7
:1013BC00E2EF09F0E6EF09F065EC0DF01AEF0AF038
:1013CC0064AFEBEF09F0EDEF09F008EF0AF063AF53
:1013DC00F2EF09F0F4EF09F008EF0AF00C50D8B472
:1013EC00FAEF09F0FCEF09F004EF0AF0000E0C6EB6
:1013FC006391639F9FEC0DF01AEF0AF08CEC0DF0EB
:10140C00E2EF09F064A30DEF0AF00FEF0AF01AEF08
:10141C000AF063A314EF0AF016EF0AF01AEF0AF0C1
:10142C00D3EC0EF03D01639360000FF1F5FF60000B
:10143C000BF1F8FF600007F1F7FF600003F1F6FF16
:10144C006000FFF0FBFF6000FBF0FAFF6000F7F0BC
:10145C00D8FF1100390193979E0E226E110E236E48
:10146C009399880E246E180E256E000E3D01E86FC0
:10147C00000EE96F000EEA6F000EEB6F000EEC6FC2
:10148C00000EED6F000EEE6F000EEF6F000EF06FA2
:10149C00000EF16FB00EF26F800EF36F080EF46F4A
:1014AC00070EF56F000EF66F200EF76F000EF86F3B
:1014BC00800EF96F000EFA6FDA0E0001976F1D0E99
:1014CC00986FF4EC0DF0D80E0001976F1D0E986F0D
:1014DC00E5EC0DF0000E0001976F000E986FD6EC46
:1014EC000DF0000E0001836F000E826F000E2F6E48
:1014FC00000E2E6E080E2D6E000E2C6E000E2B6E36
:10150C00000E2A6E390193871200D28A000ED2BEC9
:10151C00010E0001996FD29E550ED46EAA0ED46E98
:10152C00D490000ED76E000ED66E080ED56E550EEA
:10153C00D46EAA0ED46ED48099B102D0D29E01D0B2
:10154C00D28E390181858387838F809F8399859D76
:10155C00859F86918693A191D280CC0E0001976FC6
:10156C001D0E986FA8EC0EF03901A591D282CE0E0B
:10157C000001976F1D0E986FA3EC0EF03901A79B1D
:10158C00D284D00E0001976F1D0E986F9EEC0EF05A
:10159C001200000E3E01DE6F000EDF6F000EE06FDA
:1015AC00000EE16F000EE46F000EE56F000EEA6FA7
:1015BC00000EEC6F000EF16F010EF36F000EF46F66
:1015CC00000EF56F000EF66F000EF76F000EF96F40
:1015DC00100EFA6F000EFB6F000EFC6F030EFD6F0A
:1015EC00000EFE6F1F0EFF6F840EF86F3901A19570
:1015FC00D20E0001976F1D0E986FADEC0EF03901F5
:10160C009185A1971200040E3D015D6F800E5E6FF7
:10161C00080E5F6F030E656F000E636F000E646F34
:10162C00000E606F000E566F510E3A016A6F510E2C
:10163C006B6F3AEC0EF03D01649164955D8F050E75
:10164C00E82EFED700F000F000F000F000F000F003
:10165C0000F03D01639163956485C80E0001976F9E
:10166C001D0E986F03EC0EF01200BDA040EF0BF0B6
:10167C0044EF0BF0326A322A45EF0BF0326ABD5060
:10168C003218FE0B3218BD6E3E01F151D8A451EF49
:10169C000BF053EF0BF061EF0BF0010E92EC0EF030
:1016AC00090E6BEC0BF0080E6BEC0BF02C0E6BECCC
:1016BC000BF06AEF0BF0070E6BEC0BF0060E6BECFD
:1016CC000BF00A0E6BEC0BF01200316E390193B972
:1016DC0072EF0BF074EF0BF079EF0BF06000C7F0CA
:1016EC00EAFD91EF0BF02D50D8B47FEF0BF081EFAA
:1016FC000BF091EF0BF0780E2F24D96EDA6A000EF6
:10170C00DA226000C7F0DFFF2F28070B306E30C0E5
:0A171C002FF093992D069389120017
:101728006F00E8FF33F06F00ECFF34F03901A1954A
:1017380000019A519B11D8B4A4EF0BF0A6EF0BF05F
:10174800B2EF0BF002D8B2EF0BF00500FA6E9A5127
:10175800FD6E9B51FE6EFF6AFA5012006000D3F0D6
:10176800FBFF6000CFF0FAFF1100000E3D016B6F28
:10177800000E6C6F000E6D6F000E6E6F000E6F6FB7
:10178800000E706F000E716F000E726F000E736F97
:10179800000E746F000E756F000E766F000E786F76
:1017A800000E796F000E7A6F000E7B6F010E7C6F52
:0217B80012001D
:1017BC006F00E8FF36F06F00ECFF37F03901A39FA4
:1017CC001A501B10D8B4EDEF0BF0EFEF0BF0FBEF52
:1017DC000BF002D8FBEF0BF00500FA6E1A50FD6E01
:1017EC001B50FE6EFF6AFA5012006000DFF0FBFF28
:1017FC006000DBF0FAFF1100C60EF66E1D0EF76EE0
:10180C00000EF86E09006F00D4FF48F009006F005D
:10181C00D4FF49F000EE60F0240EEE6AE806FDE11C
:10182C0000EE01F02F0EEE6AE806FDE1080ED56E13
:10183C00000ED66E000ED76E0001F7EF0CF0CFEC59
:10184C000EF0C1EC0EF087EC0EF0C6EC0EF03D0184
:10185C005D9F7CEC0EF03D01649164955D8F050EEF
:10186C00E82EFED700F000F000F000F000F000F0E1
:10187C0000F03D016391639564851200080E2D60A4
:10188C004AEF0CF04CEF0CF05EEF0CF0780E2E24BF
:10189C00D96EDA6A000EDA22DF503D01EA6F2E288B
:1018AC00070B0001946F94C02EF02D2A60EF0CF002
:1018BC00390193991200000E3D01D26F000ED46FC6
:1018CC00000ED66F000ED86F000EDA6F000EDB6FB5
:1018DC00000EDC6F000EDD6F000EDE6F200EDF6F72
:0E18EC00000EE06F800EE16F000EE26F120042
:1018FC006F0060FF96F0BDA286EF0CF08BEF0CF042
:10190C000001956B952B8DEF0CF00001956B9547B5
:10191C00BD509519FD0B9519BD6E44EC0CF0600093
:10192C005BF2D8FF11002EEC0EF047EC09F0CFEC77
:10193C000AF0CBEC0EF009EC0BF0B9EC0BF021EC4F
:10194C000EF079EC0DF030EC0AF061EC0CF08BEC55
:10195C000AF012006F0060FF8BF06F00E8FF8CF054
:10196C006F00ECFF8DF03901A1910DEC0DF06000D2
:10197C0037F2FBFF600033F2FAFF60002FF2D8FF62
:02198C00110048
:101990006F0060FF8EF06F00E8FF8FF06F00ECFFCC
:1019A00090F03901A59123EC0DF0600043F2FBFFAC
:0E19B00060003FF2FAFF60003BF2D8FF11002A
:1019C0006F0060FF91F06F00E8FF92F06F00ECFF96
:1019D00093F03901A79B39EC0DF060004FF2FBFF4B
:1019E00060004BF2FAFF600047F2D8FF110099EC5B
:1019F0000CF0760E0001976F160E986FADEC0EF09E
:101A00009E0E0001976F1A0E986F99EC0EF0D28E11
:101A1000D28C09EF0DF057EF00F020502110D8B410
:101A200014EF0DF016EF0DF022EF0DF002D822EFBB
:101A30000DF00500FA6E2050FD6E2150FE6EFF6A1B
:101A4000FA50120012001E501F10D8B42AEF0DF0E9
:101A50002CEF0DF038EF0DF002D838EF0DF0050047
:101A6000FA6E1E50FD6E1F50FE6EFF6AFA50120095
:101A700012001C501D10D8B440EF0DF042EF0DF0D5
:101A80004EEF0DF002D84EEF0DF00500FA6E1C502F
:101A9000FD6E1D50FE6EFF6AFA50120012000E4AD3
:101AA0000F2A48500E1807E149500F18D8A45BEFD1
:101AB0000DF05DEF0DF064EF0DF0000E0F6E000EF7
:101AC0000E6E000E92EC0EF01200000E016E000E73
:101AD000036E0268000E046E000E056E000E086EA6
:101AE000000E096ECFEC0EF0C1EC0EF0C6EC0EF05D
:101AF0001200C70EB76E000EB66E430EB96ED60E4C
:101B00000001976F1D0E986F99EC0EF03901A39F9D
:101B1000938F800EB86E1200D3EC0EF0D6EC0EF060
:101B20000009D8B496EF0DF098EF0DF09EEF0DF090
:101B3000000EB7EC0EF0000EB2EC0EF012000A50E0
:101B40000B10D8B4A6EF0DF0A8EF0DF0ABEF0DF031
:101B50000A50B7EC0EF0D8800234BCEC0EF0D9EC91
:101B60000EF012006F0060FF45F0DCEC0EF060003C
:101B700023F0D9FF600027F0DAFFDF6E084A092A58
:101B8000600017F1D8FF11006F0060FF47F06000A0
:101B900013F0D9FF600017F0DAFF044A052ADF507E
:101BA000B2EC0EF060001FF1D8FF11000001975158
:101BB0009811D8B4DEEF0DF0E0EF0DF0E4EF0DF08A
:101BC00097C080F098C081F01200000197519811E1
:101BD000D8B4EDEF0DF0EFEF0DF0F3EF0DF097C08F
:101BE00016F098C017F01200000197519811D8B460
:101BF000FCEF0DF0FEEF0DF002EF0EF097C018F0C5
:101C000098C019F01200000197519811D8B40BEF49
:101C10000EF00DEF0EF011EF0EF097C026F098C009
:101C200027F012006F00E8FF3AF06F00ECFF3BF086
:101C3000CFEC08F06000EFF0FBFF6000EBF0FAFF84
:101C40001100400E3D01156F000E166F000E1C6F47
:101C50001F0E196FC496020E146F1200600E390128
:101C6000D96F000EDB6F000EDD6F080EDF6F000E08
:101C7000DE6F1200390196819683958D958F3D0117
:101C800064856483648F608112003D015EBB4BEF0D
:101C90000EF04EEF0EF0010E4FEF0EF0000E1200A0
:101CA0003D0161B756EF0EF059EF0EF0010E5AEFFD
:101CB0000EF0000E12003D0160BD61EF0EF064EF0A
:101CC0000EF0010E65EF0EF0000E12003D0160BB3C
:101CD0006CEF0EF06FEF0EF0010E70EF0EF0000ED5
:101CE00012003D0161A777EF0EF07AEF0EF0010EC2
:101CF0007BEF0EF0000E1200390196819683958DD0
:101D0000958F3D0164856483648F60811200390181
:101D100096919693959D959F000E3D01646F000EE0
:101D2000606F1200356E6000D7F0F1FE3E01F88161
:101D3000120097C01AF098C01BF0120097C01CF058
:101D400098C01DF0120097C01EF098C01FF012003E
:101D500097C020F098C021F0120097C09AF098C068
:101D60009BF01200466E60001BF155FD1200446EA0
:101D7000600013F156FD12003C6E6000F3F058FD58
:101D800012003D01609B609D60991200000E3D01B4
:101D9000626F62851200C20E3E01C16F1200000E1A
:101DA0003D01636F12003D015D9D12003D015651E2
:0E1DB00012003D015D8B12003D0154511200E6
:101DC000E5EC0EF0110001001200120012001200EA
:0C1DD0001200120011001200120012009C
:020000040020DA
:10000000FF0FFF0FFF0FFF0FFF0FFF0FFF0FFF0F80
:020000040030CA
:0A0000008AFFFFFF9FFFFFFFFFFFD5
:00000001FF
