:0400000057EF00F0C6
:10000800D107D107D107D107D107D107D107C50734
:10001800A706D1071606D107D107D107D107D107FF
:10002800D107D107D107D107D107D107D107D10708
:10003800D107D107D1074906C907D107D107C60596
:10004800DB05C707AF05D1072B00D107D107D107BB
:10005800BE06D107D107D107D107D1072A07330731
:1000680013056704D107D107D107D107D107D107F5
:10007800D107D1072B00D107D107D5062B002B00BC
:100088002B002B002B002B002B002B00D107D107B6
:10009800D107D107D107D1072B002B002B002B004C
:0A00A800D107D107FF00F4EF0AF0C2
:1010000000901300000000C0170000000000000066
:1010100000000000000000000000000000000000D0
:101020000000000000000000002C1D0E1DF01C0040
:101030000056160000000000000000000000000044
:10104000004A1D0000681D0000081C000000000090
:101050000000000000E21EA0180000000000008850
:101060001E00006C1A2E1F321F00007E1E00003A68
:101070001A000000000000741E00008340023F00C0
:01108000006F
:10108200BDA246EF08F04AEF08F02B6A2B2A4BEF7D
:1010920008F02B6A2B46BD502B18FD0B2B18BD6E8A
:1010A2003E01F151D8A458EF08F05AEF08F099EF39
:1010B20008F0BE90010E2DEC0FF097EC0FF03E0100
:1010C200F051300971EC0FF03E01EF5171EC0FF06D
:1010D2003E01F0510F0B2B6E2C6AB00E2B24D96EF1
:1010E200000E2C20DA6EDF50E0EC0BF03E01EF39FF
:1010F2000F0B0F0B2B6E2C6AB00E2B24D96E000E29
:101102002C20DA6EDF50E0EC0BF03E01EF510F0BBA
:101112002B6E2C6AB00E2B24D96E000E2C20DA6EA8
:10112200DF50E0EC0BF02C0EE0EC0BF0CDEF08F012
:10113200BF0E71EC0FF0FF0E71EC0FF03E01F0519B
:101142000F0B2B6E2C6AB00E2B24D96E000E2C20A6
:10115200DA6EDF50E0EC0BF03E01EF390F0B0F0BB4
:101162002B6E2C6AB00E2B24D96E000E2C20DA6E58
:10117200DF50E0EC0BF03E01EF510F0B2B6E2C6AAF
:10118200B00E2B24D96E000E2C20DA6EDF50E0EC6C
:101192000BF00A0EE0EC0BF012006F0060FF3FF064
:1011A2006F00E8FF40F06F00ECFF41F0F9EC0EF049
:1011B2000009D8B4DFEF08F0E1EF08F0E9EF08F03A
:1011C200030E0D6E3D01609B73EC0CF031EF09F0E4
:1011D20004EC0FF00009D8B4F1EF08F0F3EF08F0D7
:1011E20005EF09F0D8EC0EF00009D8B4FBEF08F0D7
:1011F200FDEF08F005EF09F0010E0D6E3D0160995B
:101202002DEC0EF031EF09F0E3EC0EF00009D8B44A
:101212000DEF09F00FEF09F01FEF09F0D8EC0EF017
:101222000009D8B417EF09F019EF09F01FEF09F020
:10123200020E0D6E3D01609901EF09F0EEEC0EF029
:101242000009D8B427EF09F029EF09F02FEF09F0D0
:10125200030E0D6E3D01609D31EF09F03D01609975
:101262000D50D8B437EF09F039EF09F046EF09F025
:1012720002D846EF09F00500FA6E00019C51FD6E9E
:101282009D51FE6EFF6AFA501200600007F1FBFFEB
:10129200600003F1FAFF6000FFF0D8FF1100000EBA
:1012A200BA6E060EBB6E000EBC6E000EBD6E000E58
:1012B200BE6E030EC26E000EC36E980EC46E000E9A
:1012C200C56E000EC66E030E3A01406F000E506FDF
:1012D200000E606F000E706F000E806F000E416F87
:1012E200000E516F000E616F000E716F000E816F64
:1012F200000E5A6F000E5B6F000E6A6F000E6B6F6E
:10130200000E7A6F000E7B6F000E426F060E526F58
:10131200000E626F000E726F000E826F4369536996
:1013220063697369070E836F4469546964697469F8
:101332000F0E846F170EE56F140EDF6F130E166F0C
:101342001F0E156F090EE36F230E096F0A0EE46F6D
:10135200240E0A6F130EDE6F1E0E136F000E456F02
:10136200000E466F000E476F000E556F000E566F4F
:10137200000E576F000E656F000E666F000E676FEE
:10138200000E856F000E866F000E876F1200390106
:101392009397000E0001986F000E996F390193998F
:1013A200960E00019A6F190E9B6F000E3D01E86FB9
:1013B200000EE96F000EEA6F000EEB6F000EEC6F8D
:1013C200000EED6F000EEE6F000EEF6F000EF06F6D
:1013D200000EF16FB00EF26F800EF36F080EF46F15
:1013E200070EF56F000EF66F200EF76F000EF86F06
:1013F200800EF96F000EFA6F000E0001AC6F000E46
:10140200AD6F96EC0EF0000E0001AC6F000EAD6FEA
:1014120087EC0EF0000E0001AC6F000EAD6F78ECA1
:101422000EF0000E00018D6F000E8C6F000E286E04
:10143200000E276E100E266E000E256E000E246E14
:10144200000E236E3901938712006F0060FF3DF09A
:101452003D0164A52FEF0AF031EF0AF03CEF0AF0EC
:1014620063A536EF0AF038EF0AF03CEF0AF019EC08
:101472000EF070EF0AF064AF41EF0AF043EF0AF0AA
:101482005EEF0AF063AF48EF0AF04AEF0AF05EEF50
:101492000AF00C50D8B450EF0AF052EF0AF05AEFAB
:1014A2000AF0000E0C6E6391639F40EC0EF070EF39
:1014B2000AF02DEC0EF038EF0AF064A363EF0AF0A5
:1014C20065EF0AF070EF0AF063A36AEF0AF06CEFBF
:1014D2000AF070EF0AF07EEC0FF03D0163936000BA
:1014E200F7F0D8FF1100D28A000ED2BE010E000121
:1014F200AE6FD29E550ED46EAA0ED46ED490000E4C
:10150200D76E000ED66E080ED56E550ED46EAA0E8C
:10151200D46ED480AEB102D0D29E01D0D28E390127
:10152200818583878389838F84818485809F859D3C
:10153200859F86918693A191D2803A0E0001AC6F6D
:101542001F0EAD6F53EC0FF03901A591D2823C0E04
:101552000001AC6F1F0EAD6F4EEC0FF03901A79B6F
:10156200D2843E0E0001AC6F1F0EAD6F49EC0FF03E
:101572001200000E3E01DE6F000EDF6F000EE06F04
:10158200000EE16F000EE46F000EE56F000EEA6FD1
:10159200000EEC6F000EF16F010EF36F000EF46F90
:1015A200000EF56F000EF66F000EF76F000EF96F6A
:1015B200100EFA6F000EFB6F000EFC6F030EFD6F34
:1015C200000EFE6F1F0EFF6F840EF86F3901A1959A
:1015D200400E0001AC6F1F0EAD6F58EC0FF03901D9
:1015E2009185A19712004A0EF66E1E0EF76E000E3E
:1015F200F86E00EEB0F010EE10F009006F00D7FFA9
:10160200EEFFE550E150F9E12A0EF66E1F0EF76E7D
:10161200000EF86E00EE42F010EE04F009006F00CA
:10162200D7FFEEFFE550E150F9E100EE60F03E0E2B
:10163200EE6AE806FDE100EE01F0280EEE6AE80629
:10164200FDE1080ED56E000ED66E000ED76E0001BB
:10165200E7EF0CF0040E3D015D6F800E5E6F080E29
:101662005F6F030E656F000E636F000E646F000EF6
:10167200606F000E566F510E3A016A6F510E6B6F1A
:10168200CDEC0EF03D01649164955D8F050EE82E60
:10169200FED700F000F000F000F000F000F000F0E3
:1016A2003D01639163956485360E0001AC6F1F0E98
:0816B200AD6FA5EC0EF0120073
:1016BC006F00E8FF36F06F00ECFF37F03901A495AE
:1016CC00BE80BB980A0EE82EFED700D0BB88000166
:1016DC0088518911D8B475EF0BF077EF0BF083EFCD
:1016EC000BF002D883EF0BF00500FA6E8851FD6EFB
:1016FC008951FE6EFF6AFA50120099EC0FF06000EF
:10170C00DFF0FBFF6000DBF0FAFF11006F00E8FF79
:10171C0030F06F00ECFF31F03901A39F00019151C3
:10172C00B76E600043F2B6FF8E518F11D8B4A1EFA3
:10173C000BF0A3EF0BF0AFEF0BF002D8AFEF0BF009
:10174C000500FA6E8E51FD6E8F51FE6EFF6AFA50D7
:10175C0012006000C7F0FBFF6000C3F0FAFF11003D
:10176C006F00E8FF3AF06F00ECFF3BF03901A491F9
:10177C0012C038F013C039F0EEEC0DF00E500F1013
:10178C00D8B4CBEF0BF0CDEF0BF0D9EF0BF002D8B8
:10179C00D9EF0BF00500FA6E0E50FD6E0F50FE6E79
:1017AC00FF6AFA5012006000EFF0FBFF6000EBF0F4
:1017BC00FAFF11002A6E390193B9E7EF0BF0E9EF4C
:1017CC000BF0EEEF0BF06000ABF0EAFD06EF0CF067
:1017DC002650D8B4F4EF0BF0F6EF0BF006EF0CF04C
:1017EC00700E2824D96EDA6A000EDA226000ABF093
:1017FC00DFFF28280F0B296E29C028F093992606A5
:10180C0093891200000E3D016B6F000E6C6F000E81
:10181C006D6F000E6E6F000E6F6F000E706F000E0E
:10182C00716F000E726F000E736F000E746F000EEE
:10183C00756F000E766F000E786F000E796F000ECC
:10184C007A6F000E7B6F010E7C6F12006F00E8FF49
:10185C002DF06F00ECFF2EF03901A195465047108A
:10186C00D8B43BEF0CF03DEF0CF049EF0CF002D884
:10187C0049EF0CF00500FA6E4650FD6E4750FE6EB7
:10188C00FF6AFA5012006000BBF0FBFF6000B7F07B
:10189C00FAFF1100000EB36E000EB46E020EB56EA0
:1018AC00FD0EB16E7F0EB06EB0506F00C4FEAEF088
:1018BC000001AF6BAEC0AFF0AE6BAE11126EAF519C
:1018CC00136E460EAC6F1F0EAD6F44EC0FF039016A
:1018DC00A4919481030EB26E12007AEC0FF067ECB7
:1018EC000FF01AEC0FF06CEC0FF03D015D9F0FEC5C
:1018FC000FF03D01649164955D8F050EE82EFED7C7
:10190C0000F000F000F000F000F000F000F03D01FD
:10191C0063916395648512002250D8A498EF0CF063
:10192C009AEF0CF0A1EF0CF0222A6F00A0F742F016
:10193C00436AAEEF0CF0000E226E4250326E3D0147
:10194C00E851426E32C043F042C044F043C045F00F
:10195C001100000E3D01D26F000ED46F000ED66F39
:10196C00000ED86F000EDA6F000EDB6F000EDC6F0E
:10197C00000EDD6F000EDE6F200EDF6F000EE06FCD
:10198C00800EE16F000EE26F1200100E2660D1EF98
:10199C000CF0D3EF0CF0E4EF0CF0700E2724D96EA2
:1019AC00DA6A000EDA22DF503D01EA6F27280F0BAE
:1019BC00346E34C027F0262AE6EF0CF039019399E7
:1019CC00120002EC0DF0820E0001AC6F100EAD6F28
:1019DC0058EC0FF0B00E0001AC6F1B0EAD6F3AEC73
:1019EC000FF0000E04EC0EF0BB88BE80D28ED28CB1
:1019FC00FEEF0CF057EF00F0C1EC0EF050EC09F0DC
:101A0C00BAEC0AF076EC0FF02BEC0BF008EC0CF0C7
:101A1C00B4EC0EF01DEC0DF050EC0CF036EC0DF0BF
:101A2C00C8EC09F0AFEC0CF074EC0AF01200E70E05
:101A3C00B76E5F0EB66E700EB96EB7500001AE6F1A
:101A4C00B650906FAEC091F04A0EAC6F1F0EAD6FDA
:101A5C003AEC0FF03901A39F938F900EB86E1200E1
:101A6C00010EAE6E200EAD6E000EAF6E450EAB6E5F
:101A7C00000EAA6E480E0001AC6F1F0EAD6F3FEC4E
:0E1A8C000FF03901A4959485300EAC6E120057
:101A9C006F0060FFA3F06F00E8FFA4F06F00ECFF95
:101AAC00A5F03901A19165EC0DF0600097F2FBFFF8
:101ABC00600093F2FAFF60008FF2D8FF1100000172
:101ACC0096519711D8B46DEF0DF06FEF0DF07BEFD1
:101ADC000DF002D87BEF0DF00500FA6E9651FD6EFD
:101AEC009751FE6EFF6AFA50120012006F0060FFF1
:101AFC00A6F06F00E8FFA7F06F00ECFFA8F039012B
:101B0C00A59193EC0DF06000A3F2FBFF60009FF237
:101B1C00FAFF60009BF2D8FF11000001945195115F
:101B2C00D8B49BEF0DF09DEF0DF0A9EF0DF002D89E
:101B3C00A9EF0DF00500FA6E9451FD6E9551FE6EF5
:101B4C00FF6AFA50120012006F0060FFA9F06F00DC
:101B5C00E8FFAAF06F00ECFFABF03901A79BC1ECDA
:101B6C000DF06000AFF2FBFF6000ABF2FAFF60001B
:101B7C00A7F2D8FF1100000192519311D8B4C9EF0C
:101B8C000DF0CBEF0DF0D7EF0DF002D8D7EF0DF035
:101B9C000500FA6E9251FD6E9351FE6EFF6AFA507B
:101BAC0012001200144A152A4450141807E145502B
:101BBC001518D8A4E4EF0DF0E6EF0DF0EDEF0DF0F5
:101BCC00000E156E000E146E000E2DEC0FF01200B0
:101BDC00B2A4F3EF0DF0F5EF0DF0FEEF0DF0B290B7
:101BEC003950B16E6000E3F0B0FFB28003EF0EF03D
:101BFC003950B16E6000E3F0B0FF12003D0114BF2C
:101C0C000AEF0EF00CEF0EF018EF0EF0830E146FBF
:101C1C00400E156F020E166F000E1C6F1F0E196F03
:101C2C00C496148F1200000E016E000E036E026833
:101C3C00000E046E000E056E000E086E000E096E8E
:101C4C007AEC0FF067EC0FF06CEC0FF012007EECFE
:101C5C000FF081EC0FF00009D8B437EF0EF039EF2C
:101C6C000EF03FEF0EF0000E5DEC0FF0000E34ECBA
:101C7C000FF012000A500B10D8B447EF0EF049EFDA
:101C8C000EF04CEF0EF00A505DEC0FF0D8800234E1
:0A1C9C0062EC0FF084EC0FF0120070
:101CA8006F0060FFA0F087EC0FF0600023F0D9FF11
:101CB800600027F0DAFFDF6E084A092A600083F225
:101CC800D8FF11006F0060FFA2F0600013F0D9FF89
:101CD800600017F0DAFF044A052ADF5034EC0FF0F1
:101CE80060008BF2D8FF11000001AC51AD11D8B4DF
:101CF80080EF0EF082EF0EF086EF0EF0ACC08AF0A7
:101D0800ADC08BF012000001AC51AD11D8B48FEF0B
:101D18000EF091EF0EF095EF0EF0ACC01CF0ADC0D8
:101D28001DF012000001AC51AD11D8B49EEF0EF0B9
:101D3800A0EF0EF0A4EF0EF0ACC01EF0ADC01FF087
:101D480012000001AC51AD11D8B4ADEF0EF0AFEFF9
:101D58000EF0B3EF0EF0ACC09CF0ADC09DF01200D9
:101D6800400E3D01156F000E166F000E1C6F1F0E02
:101D7800196FC496020E146F1200600E3901D96FE4
:101D8800000EDB6F000EDD6F080EDF6F000EDE6FDA
:101D98001200390196819683958D958F3D01648552
:101DA8006483648F608112003D015EBBDEEF0EF03C
:101DB800E1EF0EF0010EE2EF0EF0000E12003D0111
:101DC80061B7E9EF0EF0ECEF0EF0010EEDEF0EF05B
:101DD800000E12003D0160BDF4EF0EF0F7EF0EF0BB
:101DE800010EF8EF0EF0000E12003D0160BBFFEF90
:101DF8000EF002EF0FF0010E03EF0FF0000E1200CD
:101E08003D0161A70AEF0FF00DEF0FF0010E0EEF85
:101E18000FF0000E1200390196819683958D958FEB
:101E28003D0164856483648F608112003901969155
:101E38009693959D959F000E3D01646F000E606F0F
:101E48001200303132333435363738394142434461
:101E58004546386E6000E3F0F1FE3E01F88112005D
:101E68000001A16F600087F255FD1200ACC08EF032
:101E7800ADC08FF01200ACC088F0ADC089F0120080
:101E8800ACC00EF0ADC00FF01200ACC092F0ADC007
:101E980093F01200ACC094F0ADC095F01200ACC045
:101EA80096F0ADC097F01200ACC046F0ADC047F058
:101EB80012003E6E6000FBF056FD12003C6E6000A2
:101EC800F3F058FD12003D01609B609D609912007F
:101ED800000E3D01626F62851200296E6000A7F056
:101EE80011FD1200C20E3E01C16F1200000E3D012D
:101EF800636F12003D015D9D12003D0156511200B5
:101F08003D015D8B12003D01545112009CEC0FF015
:021F18001100B6
:061F1C003901A49311003D
:101F2400CBEC0CF0110001000200AC8E1200AC9E50
:0E1F3400120012001200120012001200120021
:081F440011001200120012004E
:020000040020DA
:10000000FF0FFF0FFF0FFF0FFF0FFF0FFF0FFF0F80
:020000040030CA
:0A0000008AFFFDFF9FFFFFFFFFFFD7
:00000001FF
