:0400000057EF00F0C6
:1000080061066106610661066106610661065906B8
:10001800A90561061A0561066106610661066106A1
:100028006106610661066106610661066106610690
:1000380061066106610659055B06610661063005C1
:10004800610661063A0661062B00610661066106D3
:10005800B50561066106610661066106610661060D
:100068006106610661066106610661066106610650
:10007800610661062B0061066106C1052B002B0095
:100088002B002B002B002B002B002B006106610698
:1000980061066106610661062B002B002B002B0010
:0A00A80061066106FF00FCEF09F09D
:10100000004812000000001415000000000000005D
:1010100000000000000000000000000000000000D0
:10102000000000000000000000721854183618007C
:1010300000901800000C18000000000000000000E4
:1010400000501974167219761900001E190000421A
:1010500016000000000000141900008340023F0049
:01106000008F
:101062003E01F151D8A438EF08F03AEF08F079EFD9
:1010720008F0BE90010E7CEC0CF0B9EC0CF03E01D5
:10108200F0513009A8EC0CF03E01EF51A8EC0CF045
:101092003E01F0510F0B4C6E4D6AAC0E4C24D96ED2
:1010A200000E4D20DA6EDF508AEC0AF03E01EF3975
:1010B2000F0B0F0B4C6E4D6AAC0E4C24D96E000E0A
:1010C2004D20DA6EDF508AEC0AF03E01EF510F0B31
:1010D2004C6E4D6AAC0E4C24D96E000E4D20DA6E69
:1010E200DF508AEC0AF02C0E8AEC0AF0B3EF08F01B
:1010F200BE90B9EC0CF03E01F051B009A8EC0CF036
:101102003E01EF51A8EC0CF03E01F0510F0B4C6E7A
:101112004D6AAC0E4C24D96E000E4D20DA6EDF50B3
:101122008AEC0AF03E01EF390F0B0F0B4C6E4D6A41
:10113200AC0E4C24D96E000E4D20DA6EDF508AECD4
:101142000AF03E01EF510F0B4C6E4D6AAC0E4C246F
:10115200D96E000E4D20DA6EDF508AEC0AF00A0ECC
:101162008AEC0AF01200000EBA6E000EBB6E000E80
:10117200BC6E000EBD6E000EBE6E030EC26E060E7B
:10118200C36E980EC46E000EC56E000EC66E030EC0
:101192003A01406F060E506F000E606F000E706FC6
:1011A200000E806F000E416F000E516F000E616FD6
:1011B200000E716F000E816F000E5A6F000E5B6F92
:1011C200000E6A6F000E6B6F000E7A6F000E7B6F5F
:1011D200000E426F000E526F000E626F000E726FB1
:1011E200000E826F4369536963697369070E836FE7
:1011F20044695469646974690F0E846F170EE56F50
:10120200140EDF6F130E166F1F0E156F130EDE6FA7
:101212001E0E136F000E456F000E466F000E476FD5
:10122200000E556F000E566F000E576F000E656F61
:10123200000E666F000E676F000E856F000E866FE0
:10124200000E876F120039019397000E0001CD6FD7
:10125200000ECE6F39019399D60E0001CF6F150E95
:10126200D06F000E3D01E86F000EE96F000EEA6FCD
:10127200000EEB6F000EEC6F000EED6F000EEE6FC6
:10128200000EEF6F000EF06F000EF16FB00EF26FF6
:10129200800EF36F080EF46F070EF56F000EF66FF7
:1012A200200EF76F000EF86F800EF96F000EFA6FC6
:1012B200000E0001C56F000EC66F39EC0CF0000E77
:1012C2000001C56F000EC66F2AEC0CF0000E000183
:1012D200C56F000EC66F1BEC0CF0000E206E000EE8
:1012E2001F6E000E2F6E000E2E6E100E2D6E000E53
:1012F2002C6E000E2B6E000E2A6E3901938712009F
:10130200D28A000ED2BE010E0001C76FD29E550EC8
:10131200D46EAA0ED46ED490000ED76E000ED66E86
:10132200080ED56E550ED46EAA0ED46ED480C7B1F7
:1013320002D0D29E01D0D28E390183878389838FD6
:101342008485809F8195A191D2807E0E0001C56F18
:10135200190EC66F9EEC0CF03901A591D282800E57
:101362000001C56F190EC66F99EC0CF03901A79BED
:10137200D284820E0001C56F190EC66F94EC0CF078
:101382001200000E3E01DE6F000EDF6F000EE06FF6
:10139200000EE16F000EE46F000EE56F000EEA6FC3
:1013A200000EEC6F000EF16F010EF36F000EF46F82
:1013B200000EF56F000EF66F000EF76F000EF96F5C
:1013C200100EFA6F000EFB6F000EFC6F030EFD6F26
:1013D200000EFE6F1F0EFF6F840EF86F3901A1958C
:1013E2007A0E0001C56F190EC66FA3EC0CF039011D
:1013F2009185A1971200D60EF66E180EF76E000EAA
:10140200F86E00EEACF010EE10F009006F00D7FF9E
:10141200EEFFE550E150F9E1C20EF66E180EF76EDE
:10142200000EF86E00EE30F010EE14F009006F00BE
:10143200D7FFEEFFE550E150F9E100EE60F04C0E0F
:10144200EE6AE806FDE100EE01F02F0EEE6AE80614
:10145200FDE1080ED56E000ED66E000ED76E0001AD
:0414620007EF0BF095
:101468006F0060FF4EF06F00E8FF4FF06F00ECFF79
:1014780050F03901A1950001D151D211D8B447EFEC
:101488000AF049EF0AF055EF0AF002D855EF0AF0D2
:101498000500FA6ED151FD6ED251FE6EFF6AFA5008
:1014A8001200600043F1FBFF60003FF1FAFF6000AB
:0614B8003BF1D8FF11001A
:1014C0006F00E8FF45F06F00ECFF46F03901A39F85
:1014D0005250B76E600047F1B6FF0001CB51CC11FE
:1014E000D8B475EF0AF077EF0AF083EF0AF002D86C
:1014F00083EF0AF00500FA6ECB51FD6ECC51FE6E03
:10150000FF6AFA50120060001BF1FBFF600017F148
:10151000FAFF11004B6E390193B991EF0AF093EF86
:101520000AF098EF0AF060002FF1EAFDB0EF0AF040
:101530002D50D8B49EEF0AF0A0EF0AF0B0EF0AF0F9
:10154000800E2F24D96EDA6A000EDA2260002FF1A5
:10155000DFFF2F280F0B4A6E4AC02FF093992D06FC
:10156000938912002950D8A4B8EF0AF0BAEF0AF014
:10157000C1EF0AF0292A6F00A0F740F0416ACEEFD0
:101580000AF0000E296E4050476E3D01E851406E52
:1015900047C041F040C042F041C043F01100000E8E
:1015A0003D01D26F000ED46F000ED66F000ED86FC3
:1015B000000EDA6F000EDB6F000EDC6F000EDD6FC9
:1015C000000EDE6F200EDF6F000EE06F800EE16F09
:1015D000000EE26F1200100E2D60F1EF0AF0F3EF33
:1015E0000AF004EF0BF0800E2E24D96EDA6A000E9A
:1015F000DA22DF503D01EA6F2E280F0B496E49C0F9
:101600002EF02D2A06EF0BF0390193991200F1EC20
:101610000BF006EC0CF0620E0001C56F100EC66FE9
:10162000A3EC0CF0B60E0001C56F170EC66F8AEC66
:101630000CF0BB88BE80D28ED28C1DEF0BF057EF22
:1016400000F0E70EB76E5F0EB66E700EB96EB75053
:101650000001C76FB650516EC7C052F0880EC56FFB
:10166000190EC66F8AEC0CF03901A39F938F900E70
:10167000B86E1200010EAE6E200EAD6E000EAF6E93
:101680001F0EAB6E000EAA6E860E0001C56F190EFE
:10169000C66F8FEC0CF03901A4959485300EAC6EBA
:0216A000120036
:1016A4006F0060FFBCF06F00E8FFBDF06F00ECFF5F
:1016B400BEF03901A19199EC0BF06000FBF2FBFF45
:0E16C4006000F7F2FAFF6000F3F2D8FF1100A9
:1016D4006F0060FFBFF06F00E8FFC0F06F00ECFF29
:1016E400C1F03901A591AFEC0BF0600007F3FBFFEB
:0E16F400600003F3FAFF6000FFF2D8FF110060
:101704006F0060FFC2F06F00E8FFC3F06F00ECFFF2
:10171400C4F03901A79BC5EC0BF0600013F3FBFF89
:1017240060000FF3FAFF60000BF3D8FF110025509F
:101734002610D8B4A0EF0BF0A2EF0BF0AEEF0BF035
:1017440002D8AEEF0BF00500FA6E2550FD6E265060
:10175400FE6EFF6AFA501200120023502410D8B40F
:10176400B6EF0BF0B8EF0BF0C4EF0BF002D8C4EFF8
:101774000BF00500FA6E2350FD6E2450FE6EFF6AD6
:10178400FA501200120021502210D8B4CCEF0BF002
:10179400CEEF0BF0DAEF0BF002D8DAEF0BF0050026
:1017A400FA6E2150FD6E2250FE6EFF6AFA5012004E
:1017B4001200114A122A4250111807E1435012181C
:1017C400D8A4E7EF0BF0E9EF0BF0F0EF0BF0000E0D
:1017D400126E000E116E000E83EC0CF0120055EC2C
:1017E4000CF0B4EC08F0C2EC09F0ADEC0CF048ECF1
:1017F4000CF021EC0BF03AEC0BF024EC09F0CFECFC
:101804000AF081EC09F012003D0114BF0CEF0CF05A
:101814000EEF0CF01AEF0CF0830E146F400E156FE0
:10182400020E166F000E1C6F180E196FC496148FDB
:1018340012000001C551C611D8B423EF0CF025EFF6
:101844000CF029EF0CF0C5C019F0C6C01AF0120054
:101854000001C551C611D8B432EF0CF034EF0CF0CE
:1018640038EF0CF0C5C01BF0C6C01CF0120000011C
:10187400C551C611D8B441EF0CF043EF0CF047EF5B
:101884000CF0C5C01DF0C6C01EF01200400E3D0194
:10189400156F000E166F000E1C6F180E196FC4968C
:1018A400020E146F1200600E3901D96F000EDB6F47
:1018B400000EDD6F080EDF6F000EDE6F12000400F5
:1018C400A4009C00A2009C00AA009C00010001004E
:1018D40002003031323334353637383941424344EB
:0218E400454677
:1018E8003901A495BE80BB98BB88BBEC0CF01100F5
:1018F8004A6E60002BF1F1FE3E01F8811200446E41
:10190800600013F1F1FE3E01F8811200C5C0CBF072
:10191800C6C0CCF01200C5C0C9F0C6C0CAF01200DB
:10192800C5C021F0C6C022F01200C5C023F0C6C051
:1019380024F01200C5C025F0C6C026F01200C5C0AC
:10194800D1F0C6C0D2F012004A6E60002BF111FD32
:0A1958001200C20E3E01C16F120022
:06196400BEEC0CF01100C6
:10196C00EBEC0AF01100AC8E1200AC9E12001200CF
:0E197C001200120012001200110012001200E0
:020000040020DA
:10000000FF0FFF0FFF0FFF0FFF0FFF0FFF0FFF0F80
:020000040030CA
:0A0000008AFFFDFF9FFFFFFFFFFFD7
:00000001FF
