:0400000057EF00F0C6
:100008008B078B078B078B078B078B078B0786075D
:1000180071068B07EA058B078B078B078B078B0706
:100028008B078B078B078B078B078B078B078B0738
:100038008B078B078B07180758078B078B07C1059A
:100048008B078B078B078B072B008B078B078B077F
:100058007D068B078B078B078B078B07E806F10656
:10006800E0041B048B078B078B078B078B078B0719
:100078008B078B072B008B078B0789062B002B0020
:100088002B002B002B002B002B002B008B078B0742
:100098008B078B078B078B072B002B002B002B0064
:0A00A8008B078B07FF001DEF0CF023
:1010000000641400000000561700000000000000FB
:1010100000000000000000000000000000000000D0
:10102000000000000000000000241C061CE81B005B
:1010300000A01600000000000000000000000000FA
:1010400000421C00007E1C0000021B00000000008B
:101050000000000000E41D62190000000000008094
:091060001D00008340023F000066
:10106C006F0060FF86F06F00E8FF87F06F00ECFF09
:10107C0088F06F00D8FF89F06F00DCFF8AF06F00FA
:10108C00E0FF8BF06F00D4FF8CF084EC0EF00009C5
:10109C00D8B453EF08F055EF08F05DEF08F0030EED
:1010AC000D6E3D01609B40EC0CF0A5EF08F08FEC51
:1010BC000EF00009D8B465EF08F067EF08F079EF8F
:1010CC0008F063EC0EF00009D8B46FEF08F071EF84
:1010DC0008F079EF08F0010E0D6E3D016099AAEC55
:1010EC000DF0A5EF08F06EEC0EF00009D8B481EF0E
:1010FC0008F083EF08F093EF08F063EC0EF00009B2
:10110C00D8B48BEF08F08DEF08F093EF08F0020ED7
:10111C000D6E3D01609975EF08F079EC0EF0000949
:10112C00D8B49BEF08F09DEF08F0A3EF08F0030E86
:10113C000D6E3D01609DA5EF08F03D0160990D50CD
:10114C00D8B4ABEF08F0ADEF08F0B9EF08F002D867
:10115C00B9EF08F00500FA6E2650FD6E2750FE6EB2
:10116C00FF6AFA501200600033F2F5FF60002FF2B4
:10117C00F8FF60002BF2F7FF600027F2F6FF60002B
:10118C0023F2FBFF60001FF2FAFF60001BF2D8FF96
:10119C001100000EBA6E060EBB6E000EBC6E000E79
:1011AC00BD6E000EBE6EC30EC26E000EC36E980EE8
:1011BC00C46E000EC56E000EC66EC30E3A01406FB3
:1011CC00000E506F000E606F000E706F000E806F7F
:1011DC00000E416F000E516F000E616F000E716FAB
:1011EC00000E816F000E5A6F000E5B6F000E6A6F5F
:1011FC00000E6B6F000E7A6F000E7B6F000E426F4D
:10120C00060E526F000E626F000E726F000E826F30
:10121C004369536963697369070E836F4469546941
:10122C00646974690F0E846F170EE56F140EDF6F0F
:10123C00130E166F1F0E156F090EE36F230E096F39
:10124C000A0EE46F240E0A6F130EDE6F1E0E136F60
:10125C00000E456F000E466F000E476F000E556F67
:10126C00000E566F000E576F000E656F000E666F06
:10127C00000E676F000E856F000E866F000E876F75
:10128C0012002C50020D600EF324D96E000EF420C7
:10129C00DA6E000EDE6E000EDD6E3D01F9A759EF21
:1012AC0009F05BEF09F07AEF09F02C50020D600E9B
:1012BC00F324D96E000EF420DA6E0001DF82185090
:1012CC001910D8B46CEF09F06EEF09F07AEF09F051
:1012DC0002D87AEF09F00500FA6E1850FD6E19501D
:1012EC00FE6EFF6AFA5012003D01F9A380EF09F07F
:1012FC0082EF09F0A1EF09F02C50020D600EF324DF
:10130C00D96E000EF420DA6E0001DF84165017102F
:10131C00D8B493EF09F095EF09F0A1EF09F002D8DA
:10132C00A1EF09F00500FA6E1650FD6E1750FE6E17
:10133C00FF6AFA5012006F00A0F738F02C28070B48
:10134C00396E2B503918D8A4AEEF09F0B0EF09F074
:10135C00B2EF09F0BEEF09F0700E2C24D96EDA6AE8
:10136C00000EDA226000E3F0DFFF39C02CF02A2AED
:02137C0012005D
:101380006F0060FF3DF06F00E8FF3EF06F00ECFF84
:101390003FF06F00D8FF40F06F00DCFF41F06F00BE
:1013A000E0FF42F06F00D4FF43F03D0164A5DBEFA6
:1013B00009F0DDEF09F0E8EF09F063A5E2EF09F0CD
:1013C000E4EF09F0E8EF09F096EC0DF01CEF0AF0FD
:1013D00064AFEDEF09F0EFEF09F00AEF0AF063AF49
:1013E000F4EF09F0F6EF09F00AEF0AF00C50D8B468
:1013F000FCEF09F0FEEF09F006EF0AF0000E0C6EAC
:101400006391639FBDEC0DF01CEF0AF0AAEC0DF0A8
:10141000E4EF09F064A30FEF0AF011EF0AF01CEFFC
:101420000AF063A316EF0AF018EF0AF01CEF0AF0B7
:10143000FFEC0EF03D01639360000FF1F5FF6000DB
:101440000BF1F8FF600007F1F7FF600003F1F6FF12
:101450006000FFF0FBFF6000FBF0FAFF6000F7F0B8
:10146000D8FF1100390193978E0E0001846F120E80
:10147000856F39019399BE0E246E180E256E000EED
:101480003D01E86F000EE96F000EEA6F000EEB6F92
:10149000000EEC6F000EED6F000EEE6F000EEF6FA2
:1014A000000EF06F000EF16FB00EF26F800EF36F52
:1014B000080EF46F070EF56F000EF66F200EF76F33
:1014C000000EF86F800EF96F000EFA6F320E0001F9
:1014D000986F1E0E996F12EC0EF0300E0001986F8F
:1014E0001E0E996F03EC0EF0000E0001986F000EB7
:1014F000996FF4EC0DF0000E0001836F000E826F07
:10150000000E2F6E000E2E6E080E2D6E000E2C6E2D
:10151000000E2B6E000E2A6E390193871200D28ABC
:10152000000ED2BE010E00019A6FD29E550ED46EEF
:10153000AA0ED46ED490000ED76E000ED66E080E92
:10154000D56E550ED46EAA0ED46ED4809AB102D048
:10155000D29E01D0D28E390181858387838F809F6F
:101560008399859D859F86918693A191D280240E33
:101570000001986F1E0E996FCFEC0EF03901A59106
:10158000D282260E0001986F1E0E996FCAEC0EF0E3
:101590003901A79BD284280E0001986F1E0E996F07
:1015A000C5EC0EF012003E01F151D8A4DAEF0AF0BA
:1015B000DCEF0AF0FCEF0AF0BDA0E1EF0AF0E5EF86
:1015C0000AF0326A322AE6EF0AF0326ABD50321867
:1015D000FE0B3218BD6E010EB9EC0EF0AA0EF2EC45
:1015E0000EF0090EABEC0BF0080EABEC0BF02C0E72
:1015F000ABEC0BF015EF0BF0BDA201EF0BF005EF1C
:101600000BF0326A322A06EF0BF0326A3246BD50D6
:101610003218FD0B3218BD6E070EABEC0BF0060E48
:10162000ABEC0BF00A0EABEC0BF01200000E3E011F
:10163000DE6F000EDF6F000EE06F000EE16F000E38
:10164000E46F000EE56F000EEA6F000EEC6F000E07
:10165000F16F010EF36F000EF46F000EF56F000EC8
:10166000F66F000EF76F000EF96F100EFA6F000E96
:10167000FB6F000EFC6F030EFD6F000EFE6F1F0E62
:10168000FF6F840EF86F3901A1952A0E0001986F43
:101690001E0E996FD4EC0EF039019185A1971200BE
:1016A000040E3D015D6F800E5E6F080E5F6F030ECE
:1016B000656F000E636F000E646F000E606F000EAA
:1016C000566F510E3A016A6F510E6B6F58EC0EF067
:1016D0003D01649164955D8F050EE82EFED700F004
:1016E00000F000F000F000F000F000F03D01639128
:1016F00063956485200E0001986F1E0E996F21EC92
:101700000EF012006F00E8FF36F06F00ECFF37F0CC
:101710003901A39F1D50B76E600073F0B6FF1A50D9
:101720001B10D8B496EF0BF098EF0BF0A4EF0BF072
:1017300002D8A4EF0BF00500FA6E1A50FD6E1B5094
:10174000FE6EFF6AFA5012006000DFF0FBFF6000DF
:10175000DBF0FAFF1100316E390193B9B2EF0BF0F3
:10176000B4EF0BF0B9EF0BF06000C7F0EAFDD1EF7A
:101770000BF02D50D8B4BFEF0BF0C1EF0BF0D1EF51
:101780000BF0780E2F24D96EDA6A000EDA22600090
:10179000C7F0DFFF2F28070B306E30C02FF0939972
:0617A0002D0693891200E2
:1017A8006F00E8FF33F06F00ECFF34F03901A195CA
:1017B80000019C519D11D8B4E4EF0BF0E6EF0BF05B
:1017C800F2EF0BF002D8F2EF0BF00500FA6E9C5125
:1017D800FD6E9D51FE6EFF6AFA5012006000D3F054
:1017E800FBFF6000CFF0FAFF1100000E3D016B6FA8
:1017F800000E6C6F000E6D6F000E6E6F000E6F6F37
:10180800000E706F000E716F000E726F000E736F16
:10181800000E746F000E756F000E766F000E786FF5
:10182800000E796F000E7A6F000E7B6F010E7C6FD1
:1018380012001E0EF66E1E0EF76E000EF86E0900F0
:101848006F00D4FF48F009006F00D4FF49F000EEA4
:1018580060F0260EEE6AE806FDE100EE01F02F0EBC
:10186800EE6AE806FDE1080ED56E000ED66E000E93
:10187800D76E000198EF0CF0FBEC0EF0E8EC0EF0E0
:10188800A5EC0EF0EDEC0EF03D015D9F9AEC0EF02C
:101898003D01649164955D8F050EE82EFED700F03A
:1018A80000F000F000F000F000F000F03D0163915E
:1018B800639564851200080E2D6065EF0CF067EFE4
:1018C8000CF079EF0CF0780E2E24D96EDA6A000E3F
:1018D800DA22DF503D01EA6F2E28070B0001966FD0
:1018E80096C02EF02D2A7BEF0CF039019399120047
:1018F800000E3D01D26F000ED46F000ED66F000EA1
:10190800D86F000EDA6F000EDB6F000EDC6F000E72
:10191800DD6F000EDE6F200EDF6F000EE06F800EB1
:10192800E16F000EE26F1200CAEC0CF0A60E000187
:10193800986F150E996FD4EC0EF0D60E0001986FC3
:101948001A0E996FC0EC0EF0000E81EC0DF0D28EDD
:10195800D28CADEF0CF057EF00F0E70EB76E5F0ECC
:10196800B66E700EB96EB75000019A6FB6501C6E05
:101978009AC01DF02E0E986F1E0E996FC0EC0EF0D7
:101988003901A39F938F900EB86E12004CEC0EF0A5
:10199800CFEC08F016EC0BF0F7EC0EF050EC0BF077
:1019A800F9EC0BF03FEC0EF0B1EC0CF032EC0AF075
:0A19B8007CEC0CF08FEC0AF012003A
:1019C4006F0060FF8DF06F00E8FF8EF06F00ECFF9A
:1019D4008FF03901A19129EC0DF060003FF2FBFF7B
:0E19E40060003BF2FAFF600037F2D8FF1100FE
:1019F4006F0060FF90F06F00E8FF91F06F00ECFF64
:101A040092F03901A5913FEC0DF060004BF2FBFF21
:0E1A1400600047F2FAFF600043F2D8FF1100B5
:101A24006F0060FF93F06F00E8FF94F06F00ECFF2D
:101A340095F03901A79B55EC0DF0600057F2FBFFC0
:101A4400600053F2FAFF60004FF2D8FF11002250F9
:101A54002310D8B430EF0DF032EF0DF03EEF0DF05F
:101A640002D83EEF0DF00500FA6E2250FD6E2350B1
:101A7400FE6EFF6AFA501200120020502110D8B4F2
:101A840046EF0DF048EF0DF054EF0DF002D854EF8F
:101A94000DF00500FA6E2050FD6E2150FE6EFF6AB7
:101AA400FA50120012001E501F10D8B45CEF0DF053
:101AB4005EEF0DF06AEF0DF002D86AEF0DF005004D
:101AC400FA6E1E50FD6E1F50FE6EFF6AFA50120031
:101AD40012000E4A0F2A48500E1807E149500F18F9
:101AE400D8A477EF0DF079EF0DF080EF0DF0000E34
:101AF4000F6E000E0E6E000EB9EC0EF012003D01DA
:101B040014BF87EF0DF089EF0DF095EF0DF0830E04
:101B1400146F400E156F020E166F000E1C6F3F0EF1
:101B2400196FC496148F1200000E016E000E036E1E
:101B34000268000E046E000E056E000E086E000EA4
:101B4400096EFBEC0EF0E8EC0EF0EDEC0EF012007A
:101B5400FFEC0EF002EC0FF00009D8B4B4EF0DF076
:101B6400B6EF0DF0BCEF0DF0000EDEEC0EF0000E43
:101B7400D9EC0EF012000A500B10D8B4C4EF0DF0DB
:101B8400C6EF0DF0C9EF0DF00A50DEEC0EF0D88070
:101B94000234E3EC0EF005EC0FF012006F0060FF6E
:101BA40045F008EC0FF0600023F0D9FF600027F047
:101BB400DAFFDF6E084A092A600017F1D8FF110026
:101BC4006F0060FF47F0600013F0D9FF600017F06A
:101BD400DAFF044A052ADF50D9EC0EF060001FF149
:101BE400D8FF1100000198519911D8B4FCEF0DF001
:101BF400FEEF0DF002EF0EF098C080F099C081F076
:101C04001200000198519911D8B40BEF0EF00DEFAA
:101C14000EF011EF0EF098C016F099C017F01200F4
:101C2400000198519911D8B41AEF0EF01CEF0EF080
:101C340020EF0EF098C018F099C019F012000001BE
:101C440098519911D8B429EF0EF02BEF0EF02FEF25
:101C54000EF098C026F099C027F012006F00E8FF3C
:101C64003AF06F00ECFF3BF047EC09F06000EFF056
:101C7400FBFF6000EBF0FAFF1100400E3D01156F11
:101C8400000E166F000E1C6F3F0E196FC496020EE5
:101C9400146F1200600E3901D96F000EDB6F000E55
:101CA400DD6F080EDF6F000EDE6F120039019681C2
:101CB4009683958D958F3D0164856483648F6081DF
:101CC40012003D015EBB69EF0EF06CEF0EF0010EE9
:101CD4006DEF0EF0000E12003D0161B774EF0EF0CF
:101CE40077EF0EF0010E78EF0EF0000E12003D01BA
:101CF40060BD7FEF0EF082EF0EF0010E83EF0EF069
:101D0400000E12003D0160BB8AEF0EF08DEF0EF065
:101D1400010E8EEF0EF0000E12003D0161A795EF4B
:101D24000EF098EF0EF0010E99EF0EF0000E120077
:101D3400390196819683958D958F3D0164856483E1
:101D4400648F60811200390196919693959D959FB9
:101D5400000E3D01646F000E606F12006F0060FFA3
:101D640097F05FEC0CF060005FF2D8FF1100356E65
:101D74006000D7F0F1FE3E01F881120098C01AF01D
:101D840099C01BF0120098C01EF099C01FF01200F9
:101D940098C020F099C021F0120098C022F099C098
:101DA40023F0120098C09CF099C09DF01200466E7A
:101DB40060001BF155FD1200446E600013F156FDE6
:101DC40012003C6E6000F3F058FD12003D01609B70
:101DD400609D60991200000E3D01626F62851200E1
:101DE400306E6000C3F011FD1200C20E3E01C16FDF
:101DF4001200000E3D01636F12003D015D9D120053
:101E04003D01565112003D015D8B12003D015451BC
:021E14001200BA
:101E180011EC0FF011000100120012001200120064
:0C1E280012001200110012001200120043
:020000040020DA
:10000000FF0FFF0FFF0FFF0FFF0FFF0FFF0FFF0F80
:020000040030CA
:0A0000008AFFFFFF9FFFFFFFFFFFD5
:00000001FF
