:0400000057EF00F0C6
:100008006B076B076B076B076B076B076B0766075D
:100018004A066B07B9056B076B076B076B076B071E
:100028006B076B076B076B076B076B076B076B0738
:100038006B076B076B07FB063B076B076B07F00546
:100048006B076B076B076B072B006B076B076B075F
:1000580056066B076B076B076B076B07CB06D40657
:10006800DE041B046B076B076B076B076B076B07DB
:100078006B076B072B006B076B0762062B002B00C7
:100088002B002B002B002B002B002B006B076B0782
:100098006B076B076B076B072B002B002B002B00E4
:0A00A8006B076B07FF0004EF0CF07C
:10100000005C14000000000E16000000000000004C
:1010100000000000000000000000000000000000D0
:10102000000000000000000000B01B921B741B00B9
:101030000082160000000000000000000000000018
:1010400000CE1B00000A1C00000000000000000091
:1010500000000000000000BA1A0000000000000CB0
:091060001D00000240000F000019
:10106C006F0060FF84F06F00E8FF85F06F00ECFF0D
:10107C0086F06F00D8FF87F06F00DCFF88F06F0000
:10108C00E0FF89F06F00D4FF8AF04AEC0EF0000903
:10109C00D8B453EF08F055EF08F05DEF08F0030EED
:1010AC000D6E3D01609B27EC0CF0A5EF08F055ECA4
:1010BC000EF00009D8B465EF08F067EF08F079EF8F
:1010CC0008F029EC0EF00009D8B46FEF08F071EFBE
:1010DC0008F079EF08F0010E0D6E3D01609970EC8F
:1010EC000DF0A5EF08F034EC0EF00009D8B481EF48
:1010FC0008F083EF08F093EF08F029EC0EF00009EC
:10110C00D8B48BEF08F08DEF08F093EF08F0020ED7
:10111C000D6E3D01609975EF08F03FEC0EF0000983
:10112C00D8B49BEF08F09DEF08F0A3EF08F0030E86
:10113C000D6E3D01609DA5EF08F03D0160990D50CD
:10114C00D8B4ABEF08F0ADEF08F0B9EF08F002D867
:10115C00B9EF08F00500FA6E2650FD6E2750FE6EB2
:10116C00FF6AFA50120060002BF2F5FF600027F2C4
:10117C00F8FF600023F2F7FF60001FF2F6FF60003B
:10118C001BF2FBFF600017F2FAFF600013F2D8FFAE
:10119C0011002C50020D600EF324D96E000EF420B9
:1011AC00DA6E000EDE6E000EDD6E3D01F9A7E1EF8A
:1011BC0008F0E3EF08F002EF09F02C50020D600E7E
:1011CC00F324D96E000EF420DA6E0001DF82185081
:1011DC001910D8B4F4EF08F0F6EF08F002EF09F0AC
:1011EC0002D802EF09F00500FA6E1850FD6E195086
:1011FC00FE6EFF6AFA5012003D01F9A308EF09F0E8
:10120C000AEF09F029EF09F02C50020D600EF324BF
:10121C00D96E000EF420DA6E0001DF841650171020
:10122C00D8B41BEF09F01DEF09F029EF09F002D833
:10123C0029EF09F00500FA6E1650FD6E1750FE6E80
:10124C00FF6AFA5012006F00A0F738F02C28070B39
:10125C00396E2B503918D8A436EF09F038EF09F055
:10126C003AEF09F046EF09F0700E2C24D96EDA6AC9
:10127C00000EDA226000E3F0DFFF39C02CF02A2ADE
:10128C001200000EBA6E060EBB6E000EBC6E000E87
:10129C00BD6E000EBE6EC30EC26E000EC36EF80E97
:1012AC00C46E000EC56E000EC66EC30E3A01406FC2
:1012BC00000E506F600E606F000E706F000E806F2E
:1012CC00000E416F000E516F000E616F000E716FBA
:1012DC00000E816F000E5A6F000E5B6F000E6A6F6E
:1012EC00000E6B6F000E7A6F000E7B6F000E426F5C
:1012FC00060E526F000E626F000E726F000E826F40
:10130C004369536963697369070E836F4469546950
:10131C00646974690F0E846F140EDF6F170EE56F1E
:10132C00130EDE6F1E0E136F090EE36F230E096F83
:10133C000A0EE46F240E0A6F000E456F000E466F06
:10134C00000E476F000E556F000E566F000E576F54
:10135C00000E656F000E666F000E676F000E856FD6
:0A136C00000E866F000E876F12005E
:101378006F0060FF3DF06F00E8FF3EF06F00ECFF8C
:101388003FF06F00D8FF40F06F00DCFF41F06F00C6
:10139800E0FF42F06F00D4FF43F03D0164A5D7EFB2
:1013A80009F0D9EF09F0E4EF09F063A5DEEF09F0E1
:1013B800E0EF09F0E4EF09F049EC0DF018EF0AF05E
:1013C80064AFE9EF09F0EBEF09F006EF0AF063AF5D
:1013D800F0EF09F0F2EF09F006EF0AF00C50D8B47C
:1013E800F8EF09F0FAEF09F002EF0AF0000E0C6EC0
:1013F8006391639F83EC0DF018EF0AF070EC0DF029
:10140800E0EF09F064A30BEF0AF00DEF0AF018EF14
:101418000AF063A312EF0AF014EF0AF018EF0AF0CB
:10142800C0EC0EF03D01639360000FF1F5FF600022
:101438000BF1F8FF600007F1F7FF600003F1F6FF1A
:101448006000FFF0FBFF6000FBF0FAFF6000F7F0C0
:10145800D8FF1100390193979E0E226E110E236E4C
:101468009399880E246E180E256E000E3D01E86FC4
:10147800000EE96F000EEA6F000EEB6F000EEC6FC6
:10148800000EED6F000EEE6F000EEF6F000EF06FA6
:10149800000EF16FB00EF26F800EF36F080EF46F4E
:1014A800010EF56F000EF66F200EF76F000EF86F45
:1014B800800EF96F000EFA6FB20E0001966F1D0EC6
:1014C800976FD8EC0DF0B00E0001966F1D0E976F58
:1014D800C9EC0DF0000E0001966F000E976FBAEC84
:1014E8000DF0000E0001836F000E826F000E2F6E4C
:1014F800000E2E6E080E2D6E000E2C6E000E2B6E3A
:10150800000E2A6E390193871200D28A000ED2BECD
:10151800010E0001986FD29E550ED46EAA0ED46E9D
:10152800D490000ED76E000ED66E080ED56E550EEE
:10153800D46EAA0ED46ED48098B102D0D29E01D0B7
:10154800D28E390181858387838F809F8399859D7A
:10155800859F86918693A191D280A40E0001966FF3
:101568001D0E976F95EC0EF03901A591D282A60E4B
:101578000001966F1D0E976F90EC0EF03901A79B36
:10158800D284A80E0001966F1D0E976F8BEC0EF09B
:101598001200000E3E01DE6F000EDF6F000EE06FDE
:1015A800000EE16F000EE46F000EE56F000EEA6FAB
:1015B800000EEC6F000EF16F010EF36F000EF46F6A
:1015C800000EF56F000EF66F000EF76F000EF96F44
:1015D800100EFA6F000EFB6F000EFC6F030EFD6F0E
:1015E800000EFE6F090EFF6F840EF86F3901A1958A
:1015F800AA0E0001966F1D0E976F9AEC0EF0390136
:101608009185A1971200326E390193B90EEF0BF054
:1016180010EF0BF015EF0BF06000CBF0EAFD3EEF9A
:101628000BF02D50D8B41BEF0BF01DEF0BF02FEF84
:101638000BF0780E2F24D96EDA6A000EDA226000D9
:10164800CBF0DFFF2F28070B316E31C02FF09399B5
:101658002D063EEF0BF0BDA034EF0BF038EF0BF08A
:10166800306A302A39EF0BF0306ABD503018FE0B63
:101678003018BD6E390193891200040E3D015D6F6B
:10168800800E5E6F080E5F6F030E656F000E636F4E
:10169800000E646F000E606F000E566F510E3A0117
:1016A8006A6F510E6B6F1EEC0EF03D0164916495EC
:1016B8005D8F00D000D000F000F000F000F000F0E6
:1016C80000F03D01639163956485A00E0001966F5B
:0A16D8001D0E976FE7EC0DF01200F5
:1016E4006F00E8FF33F06F00ECFF34F03901A1958F
:1016F400000199519A11D8B482EF0BF084EF0BF0EA
:1017040090EF0BF002D890EF0BF00500FA6E9951B0
:10171400FD6E9A51FE6EFF6AFA5012006000D3F01B
:10172400FBFF6000CFF0FAFF1100000E3D016B6F6C
:10173400000E6C6F000E6D6F000E6E6F000E6F6FFB
:10174400000E706F000E716F000E726F000E736FDB
:10175400000E746F000E756F000E766F000E786FBA
:10176400000E796F000E7A6F000E7B6F010E7C6F96
:1017740012003E01F151D8A4C2EF0BF0C4EF0BF0FC
:10178400D4EF0BF0010E7FEC0EF03E01EF5107ECAD
:101794000BF03E01F05107EC0BF02C0E07EC0BF0B4
:1017A400DEEF0BF0EF5107EC0BF03E01F05107ECCC
:0A17B4000BF00A0E07EC0BF0120018
:1017C0006F00E8FF36F06F00ECFF37F03901A39FA0
:1017D0001A501B10D8B4EFEF0BF0F1EF0BF0FDEF48
:1017E0000BF002D8FDEF0BF00500FA6E1A50FD6EFB
:1017F0001B50FE6EFF6AFA5012006000DFF0FBFF24
:101800006000DBF0FAFF11009E0EF66E1D0EF76E03
:10181000000EF86E09006F00D4FF48F009006F0059
:10182000D4FF49F000EE60F0240EEE6AE806FDE118
:1018300000EE01F02F0EEE6AE806FDE1080ED56E0F
:10184000000ED66E000ED76E0001DBEF0CF0BCEC84
:101850000EF0AEEC0EF06BEC0EF0B3EC0EF03D01C2
:101860005D9F60EC0EF03D01649164955D8F00D04A
:1018700000D000F000F000F000F000F000F03D01BA
:101880006391639564851200080E2D604AEF0CF099
:101890004CEF0CF05EEF0CF0780E2E24D96EDA6A65
:1018A000000EDA22DF503D01EA6F2E28070B0001FF
:1018B000946F94C02EF02D2A60EF0CF039019399AB
:1018C0001200000E3D01D26F000ED46F000ED66FD5
:1018D000000ED86F000EDA6F000EDB6F000EDC6FAB
:1018E000000EDD6F000EDE6F200EDF6F000EE06F6A
:1018F000800EE16F000EE26F120012EC0EF047EC6A
:1019000009F0CDEC0AF0B8EC0EF041EC0BF097ECDE
:101910000BF005EC0EF05DEC0DF02EEC0AF061EC36
:101920000CF089EC0AF012006F0060FF8BF06F0082
:10193000E8FF8CF06F00ECFF8DF03901A191F1EC24
:101940000CF0600037F2FBFF600033F2FAFF60003A
:061950002FF2D8FF110088
:101958006F0060FF8EF06F00E8FF8FF06F00ECFF04
:1019680090F03901A59107EC0DF0600043F2FBFF00
:0E19780060003FF2FAFF60003BF2D8FF110062
:101988006F0060FF91F06F00E8FF92F06F00ECFFCE
:1019980093F03901A79B1DEC0DF060004FF2FBFF9F
:1019A80060004BF2FAFF600047F2D8FF11007DECAF
:1019B8000CF0760E0001966F170E976F9AEC0EF0EA
:1019C800660E0001966F1A0E976F86EC0EF0D28E97
:1019D800D28CEDEF0CF057EF00F020502110D8B466
:1019E800F8EF0CF0FAEF0CF006EF0DF002D806EF66
:1019F8000DF00500FA6E2050FD6E2150FE6EFF6A54
:101A0800FA50120012001E501F10D8B40EEF0DF03D
:101A180010EF0DF01CEF0DF002D81CEF0DF00500D3
:101A2800FA6E1E50FD6E1F50FE6EFF6AFA501200CD
:101A380012001C501D10D8B424EF0DF026EF0DF045
:101A480032EF0DF002D832EF0DF00500FA6E1C509F
:101A5800FD6E1D50FE6EFF6AFA50120012000E4A0B
:101A68000F2A48500E1807E149500F18D8A43FEF25
:101A78000DF041EF0DF048EF0DF0000E0F6E000E67
:101A88000E6E000E7FEC0EF01200000E016E000EBE
:101A9800036E0268000E046E000E056E000E086EDE
:101AA800000E096EBCEC0EF0AEEC0EF0B3EC0EF0CE
:101AB8001200C70EB76E000EB66E410EB96EAE0EAE
:101AC8000001966F1D0E976F86EC0EF03901A39FEB
:101AD800938F800EB86E1200C0EC0EF0C3EC0EF0BF
:101AE8000009D8B47AEF0DF07CEF0DF082EF0DF01D
:101AF800000EA4EC0EF0000E9FEC0EF012000A503F
:101B08000B10D8B48AEF0DF08CEF0DF08FEF0DF0BD
:101B18000A50A4EC0EF0D8800234A9EC0EF0C6EC02
:101B28000EF012006F0060FF45F0C9EC0EF0600087
:101B380023F0D9FF600027F0DAFFDF6E084A092A90
:101B4800600017F1D8FF11006F0060FF47F06000D8
:101B580013F0D9FF600017F0DAFF044A052ADF50B6
:101B68009FEC0EF060001FF1D8FF110000019651A4
:101B78009711D8B4C2EF0DF0C4EF0DF0C8EF0DF017
:101B880096C080F097C081F012000001965197111D
:101B9800D8B4D1EF0DF0D3EF0DF0D7EF0DF096C01C
:101BA80016F097C017F01200000196519711D8B49B
:101BB800E0EF0DF0E2EF0DF0E6EF0DF096C018F053
:101BC80097C019F01200000196519711D8B4EFEFA1
:101BD8000DF0F1EF0DF0F5EF0DF096C026F097C07F
:101BE80027F012006F00E8FF3AF06F00ECFF3BF0BF
:101BF800CFEC08F06000EFF0FBFF6000EBF0FAFFBD
:101C08001100400E3D01156F000E166F000E1C6F7F
:101C18000F0E196FC496020E146F1200600E390170
:101C2800D96F000EDB6F000EDD6F050EDF6F000E43
:101C3800DE6F1200390196819683958D958F3D014F
:101C480064856483648F608112003D015EBB2FEF61
:101C58000EF032EF0EF0010E33EF0EF0000E120010
:101C68003D0161B73AEF0EF03DEF0EF0010E3EEF89
:101C78000EF0000E12003D0160BD45EF0EF048EF7A
:101C88000EF0010E49EF0EF0000E12003D0160BB90
:101C980050EF0EF053EF0EF0010E54EF0EF0000E61
:101CA80012003D0161A75BEF0EF05EEF0EF0010E32
:101CB8005FEF0EF0000E1200390196819683958D24
:101CC800958F3D0164856483648F608112003901BA
:101CD80096919693959D959F000E3D01646F000E19
:101CE800606F12006F0060FF95F044EC0CF060002C
:101CF80057F2D8FF1100356E6000D7F0F1FE3E01B3
:101D0800F881120096C01AF097C01BF0120096C016
:101D18001CF097C01DF0120096C01EF097C01FF06F
:101D2800120096C020F097C021F0120096C099F0DA
:101D380097C09AF01200466E60001BF155FD120024
:101D4800446E600013F156FD12003C6E6000F3F023
:101D580058FD12003D01609B609D60991200000EC5
:101D68003D01626F62851200C20E3E01C16F120012
:101D7800000E3D01636F12003D015D9D12003D01A3
:101D8800565112003D015D8B12003D015451120065
:101D9800D1EC0EF011000100120012001200120026
:0C1DA800120012001100120012001200C4
:020000040020DA
:10000000FF0FFF0FFF0FFF0FFF0FFF0FFF0FFF0F80
:020000040030CA
:0A0000008AFFFFFF9FFFFFFFFFFFD5
:00000001FF
