:0400000057EF00F0C6
:100008007607760776077607760776077607710705
:1000180059067607CB0576077607760776077607BB
:1000280076077607760776077607760776077607E0
:100038007607760776070A07400676077607F005FB
:1000480076077607760776072B0076077607760712
:10005800650676077607760776077607DA06E306F3
:10006800DF041B0476077607760776077607760798
:10007800760776072B007607760771062B002B008C
:100088002B002B002B002B002B002B00760776076C
:1000980076077607760776072B002B002B002B00B8
:0A00A80076077607FF0004EF0CF066
:1010000000601400000000DC16000000000000007A
:1010100000000000000000000000000000000000D0
:10102000000000000000000000EC1BCE1BB01B0005
:101030000078160000000000000000000000000022
:10104000000A1C0000461C00000000000000000018
:1010500000000000000000F61A000000000000364A
:091060001D00000240001F000009
:10106C006F0060FF84F06F00E8FF85F06F00ECFF0D
:10107C0086F06F00D8FF87F06F00DCFF88F06F0000
:10108C00E0FF89F06F00D4FF8AF068EC0EF00009E5
:10109C00D8B453EF08F055EF08F05DEF08F0030EED
:1010AC000D6E3D01609B27EC0CF0A5EF08F073EC86
:1010BC000EF00009D8B465EF08F067EF08F079EF8F
:1010CC0008F047EC0EF00009D8B46FEF08F071EFA0
:1010DC0008F079EF08F0010E0D6E3D0160998EEC71
:1010EC000DF0A5EF08F052EC0EF00009D8B481EF2A
:1010FC0008F083EF08F093EF08F047EC0EF00009CE
:10110C00D8B48BEF08F08DEF08F093EF08F0020ED7
:10111C000D6E3D01609975EF08F05DEC0EF0000965
:10112C00D8B49BEF08F09DEF08F0A3EF08F0030E86
:10113C000D6E3D01609DA5EF08F03D0160990D50CD
:10114C00D8B4ABEF08F0ADEF08F0B9EF08F002D867
:10115C00B9EF08F00500FA6E2650FD6E2750FE6EB2
:10116C00FF6AFA50120060002BF2F5FF600027F2C4
:10117C00F8FF600023F2F7FF60001FF2F6FF60003B
:10118C001BF2FBFF600017F2FAFF600013F2D8FFAE
:10119C0011002C50020D600EF324D96E000EF420B9
:1011AC00DA6E000EDE6E000EDD6E3D01F9A7E1EF8A
:1011BC0008F0E3EF08F002EF09F02C50020D600E7E
:1011CC00F324D96E000EF420DA6E0001DF82185081
:1011DC001910D8B4F4EF08F0F6EF08F002EF09F0AC
:1011EC0002D802EF09F00500FA6E1850FD6E195086
:1011FC00FE6EFF6AFA5012003D01F9A308EF09F0E8
:10120C000AEF09F029EF09F02C50020D600EF324BF
:10121C00D96E000EF420DA6E0001DF841650171020
:10122C00D8B41BEF09F01DEF09F029EF09F002D833
:10123C0029EF09F00500FA6E1650FD6E1750FE6E80
:10124C00FF6AFA5012006F00A0F738F02C28070B39
:10125C00396E2B503918D8A436EF09F038EF09F055
:10126C003AEF09F046EF09F0700E2C24D96EDA6AC9
:10127C00000EDA226000E3F0DFFF39C02CF02A2ADE
:10128C001200000EBA6E060EBB6E000EBC6E000E87
:10129C00BD6E000EBE6EC30EC26E000EC36EB80ED7
:1012AC00C46E000EC56E000EC66EC30E3A01406FC2
:1012BC00000E506F200E606F000E706F000E806F6E
:1012CC00000E416F000E516F000E616F000E716FBA
:1012DC00000E816F000E5A6F000E5B6F000E6A6F6E
:1012EC00000E6B6F000E7A6F000E7B6F000E426F5C
:1012FC00060E526F000E626F000E726F000E826F40
:10130C004369536963697369070E836F4469546950
:10131C00646974690F0E846F140EDF6F170EE56F1E
:10132C00130E166F130EDE6F1E0E136F090EE36F86
:10133C00230E096F0A0EE46F240E0A6F000E456F20
:10134C00000E466F000E476F000E556F000E566F65
:10135C00000E576F000E656F000E666F000E676F04
:0E136C00000E856F000E866F000E876F120058
:10137C006F0060FF3DF06F00E8FF3EF06F00ECFF88
:10138C003FF06F00D8FF40F06F00DCFF41F06F00C2
:10139C00E0FF42F06F00D4FF43F03D0164A5D9EFAC
:1013AC0009F0DBEF09F0E6EF09F063A5E0EF09F0D7
:1013BC00E2EF09F0E6EF09F067EC0DF01AEF0AF036
:1013CC0064AFEBEF09F0EDEF09F008EF0AF063AF53
:1013DC00F2EF09F0F4EF09F008EF0AF00C50D8B472
:1013EC00FAEF09F0FCEF09F004EF0AF0000E0C6EB6
:1013FC006391639FA1EC0DF01AEF0AF08EEC0DF0E7
:10140C00E2EF09F064A30DEF0AF00FEF0AF01AEF08
:10141C000AF063A314EF0AF016EF0AF01AEF0AF0C1
:10142C00D5EC0EF03D01639360000FF1F5FF600009
:10143C000BF1F8FF600007F1F7FF600003F1F6FF16
:10144C006000FFF0FBFF6000FBF0FAFF6000F7F0BC
:10145C00D8FF1100390193979E0E226E110E236E48
:10146C0093998C0E246E180E256E000E3D01E86FBC
:10147C00000EE96F000EEA6F000EEB6F000EEC6FC2
:10148C00000EED6F000EEE6F000EEF6F000EF06FA2
:10149C00000EF16FB00EF26F800EF36F080EF46F4A
:1014AC00070EF56F000EF66F200EF76F000EF86F3B
:1014BC00800EF96F000EFA6FDE0E0001976F1D0E95
:1014CC00986FF6EC0DF0DC0E0001976F1D0E986F07
:1014DC00E7EC0DF0000E0001976F000E986FD8EC42
:1014EC000DF0000E0001836F000E826F000E2F6E48
:1014FC00000E2E6E080E2D6E000E2C6E000E2B6E36
:10150C00000E2A6E390193871200D28A000ED2BEC9
:10151C00010E0001996FD29E550ED46EAA0ED46E98
:10152C00D490000ED76E000ED66E080ED56E550EEA
:10153C00D46EAA0ED46ED48099B102D0D29E01D0B2
:10154C00D28E390181858387838F809F8399859D76
:10155C00859F86918693A191D280D00E0001976FC2
:10156C001D0E986FAAEC0EF03901A591D282D20E05
:10157C000001976F1D0E986FA5EC0EF03901A79B1B
:10158C00D284D40E0001976F1D0E986FA0EC0EF054
:10159C001200000E3E01DE6F000EDF6F000EE06FDA
:1015AC00000EE16F000EE46F000EE56F000EEA6FA7
:1015BC00000EEC6F000EF16F010EF36F000EF46F66
:1015CC00000EF56F000EF66F000EF76F000EF96F40
:1015DC00100EFA6F000EFB6F000EFC6F030EFD6F0A
:1015EC00000EFE6F1F0EFF6F840EF86F3901A19570
:1015FC00D60E0001976F1D0E986FAFEC0EF03901EF
:10160C009185A1971200BDA00EEF0BF012EF0BF01D
:10161C00326A322A13EF0BF0326ABD503218FE0BCD
:10162C003218BD6E3E01F151D8A41FEF0BF021EF23
:10163C000BF031EF0BF0010E94EC0EF03E01EF517C
:10164C006EEC0BF03E01F0516EEC0BF02C0E6EECD0
:10165C000BF03BEF0BF0EF516EEC0BF03E01F05149
:10166C006EEC0BF00A0E6EEC0BF01200040E3D014A
:10167C005D6F800E5E6F080E5F6F030E656F000E60
:10168C00636F000E646F000E606F000E566F510E8C
:10169C003A016A6F510E6B6F3CEC0EF03D01649198
:1016AC0064955D8F050EE82EFED700F000F000F07B
:1016BC0000F000F000F000F03D016391639564854B
:1016CC00CC0E0001976F1D0E986F05EC0EF01200FA
:1016DC00316E390193B975EF0BF077EF0BF07CEFAE
:1016EC000BF06000C7F0EAFD94EF0BF02D50D8B46E
:1016FC0082EF0BF084EF0BF094EF0BF0780E2F24AD
:10170C00D96EDA6A000EDA226000C7F0DFFF2F28EC
:10171C00070B306E30C02FF093992D069389120071
:10172C006F00E8FF33F06F00ECFF34F03901A19546
:10173C0000019A519B11D8B4A6EF0BF0A8EF0BF057
:10174C00B4EF0BF002D8B4EF0BF00500FA6E9A511F
:10175C00FD6E9B51FE6EFF6AFA5012006000D3F0D2
:10176C00FBFF6000CFF0FAFF1100000E3D016B6F24
:10177C00000E6C6F000E6D6F000E6E6F000E6F6FB3
:10178C00000E706F000E716F000E726F000E736F93
:10179C00000E746F000E756F000E766F000E786F72
:1017AC00000E796F000E7A6F000E7B6F010E7C6F4E
:0217BC00120019
:1017C0006F00E8FF36F06F00ECFF37F03901A39FA0
:1017D0001A501B10D8B4EFEF0BF0F1EF0BF0FDEF48
:1017E0000BF002D8FDEF0BF00500FA6E1A50FD6EFB
:1017F0001B50FE6EFF6AFA5012006000DFF0FBFF24
:101800006000DBF0FAFF1100CA0EF66E1D0EF76ED7
:10181000000EF86E09006F00D4FF48F009006F0059
:10182000D4FF49F000EE60F0240EEE6AE806FDE118
:1018300000EE01F02F0EEE6AE806FDE1080ED56E0F
:10184000000ED66E000ED76E0001F9EF0CF0D1EC51
:101850000EF0C3EC0EF089EC0EF0C8EC0EF03D017A
:101860005D9F7EEC0EF03D01649164955D8F050EE9
:10187000E82EFED700F000F000F000F000F000F0DD
:1018800000F03D016391639564851200080E2D60A0
:101890004CEF0CF04EEF0CF060EF0CF0780E2E24B5
:1018A000D96EDA6A000EDA22DF503D01EA6F2E2887
:1018B000070B0001946F94C02EF02D2A62EF0CF0FC
:1018C000390193991200000E3D01D26F000ED46FC2
:1018D000000ED66F000ED86F000EDA6F000EDB6FB1
:1018E000000EDC6F000EDD6F000EDE6F200EDF6F6E
:0E18F000000EE06F800EE16F000EE26F12003E
:101900006F0060FF96F0BDA288EF0CF08DEF0CF039
:101910000001956B952B8FEF0CF00001956B9547AF
:10192000BD509519FD0B9519BD6E46EC0CF060008D
:101930005BF2D8FF110030EC0EF047EC09F0CFEC71
:101940000AF0CDEC0EF03CEC0BF0BBEC0BF023EC12
:101950000EF07BEC0DF030EC0AF063EC0CF08BEC4D
:101960000AF012006F0060FF8BF06F00E8FF8CF050
:101970006F00ECFF8DF03901A1910FEC0DF06000CC
:1019800037F2FBFF600033F2FAFF60002FF2D8FF5E
:02199000110044
:101994006F0060FF8EF06F00E8FF8FF06F00ECFFC8
:1019A40090F03901A59125EC0DF0600043F2FBFFA6
:0E19B40060003FF2FAFF60003BF2D8FF110026
:1019C4006F0060FF91F06F00E8FF92F06F00ECFF92
:1019D40093F03901A79B3BEC0DF060004FF2FBFF45
:1019E40060004BF2FAFF600047F2D8FF11009BEC55
:1019F4000CF0120E0001976F160E986FAFEC0EF0FC
:101A0400A20E0001976F1A0E986F9BEC0EF0D28E07
:101A1400D28C0BEF0DF057EF00F020502110D8B40A
:101A240016EF0DF018EF0DF024EF0DF002D824EFAF
:101A34000DF00500FA6E2050FD6E2150FE6EFF6A17
:101A4400FA50120012001E501F10D8B42CEF0DF0E3
:101A54002EEF0DF03AEF0DF002D83AEF0DF005003D
:101A6400FA6E1E50FD6E1F50FE6EFF6AFA50120091
:101A740012001C501D10D8B442EF0DF044EF0DF0CD
:101A840050EF0DF002D850EF0DF00500FA6E1C5027
:101A9400FD6E1D50FE6EFF6AFA50120012000E4ACF
:101AA4000F2A48500E1807E149500F18D8A45DEFCB
:101AB4000DF05FEF0DF066EF0DF0000E0F6E000EEF
:101AC4000E6E000E94EC0EF01200000E016E000E6D
:101AD400036E0268000E046E000E056E000E086EA2
:101AE400000E096ED1EC0EF0C3EC0EF0C8EC0EF053
:101AF4001200C70EB76E000EB66E430EB96EDA0E44
:101B04000001976F1D0E986F9BEC0EF03901A39F97
:101B1400938F800EB86E1200D5EC0EF0D8EC0EF058
:101B24000009D8B498EF0DF09AEF0DF0A0EF0DF086
:101B3400000EB9EC0EF0000EB4EC0EF012000A50D8
:101B44000B10D8B4A8EF0DF0AAEF0DF0ADEF0DF027
:101B54000A50B9EC0EF0D8800234BEEC0EF0DBEC87
:101B64000EF012006F0060FF45F0DEEC0EF0600036
:101B740023F0D9FF600027F0DAFFDF6E084A092A54
:101B8400600017F1D8FF11006F0060FF47F060009C
:101B940013F0D9FF600017F0DAFF044A052ADF507A
:101BA400B4EC0EF060001FF1D8FF11000001975152
:101BB4009811D8B4E0EF0DF0E2EF0DF0E6EF0DF080
:101BC40097C080F098C081F01200000197519811DD
:101BD400D8B4EFEF0DF0F1EF0DF0F5EF0DF097C085
:101BE40016F098C017F01200000197519811D8B45C
:101BF400FEEF0DF000EF0EF004EF0EF097C018F0BA
:101C040098C019F01200000197519811D8B40DEF43
:101C14000EF00FEF0EF013EF0EF097C026F098C001
:101C240027F012006F00E8FF3AF06F00ECFF3BF082
:101C3400CFEC08F06000EFF0FBFF6000EBF0FAFF80
:101C44001100400E3D01156F000E166F000E1C6F43
:101C54001F0E196FC496020E146F1200600E390124
:101C6400D96F000EDB6F000EDD6F080EDF6F000E04
:101C7400DE6F1200390196819683958D958F3D0113
:101C840064856483648F608112003D015EBB4DEF07
:101C94000EF050EF0EF0010E51EF0EF0000E120098
:101CA4003D0161B758EF0EF05BEF0EF0010E5CEFF3
:101CB4000EF0000E12003D0160BD63EF0EF066EF02
:101CC4000EF0010E67EF0EF0000E12003D0160BB36
:101CD4006EEF0EF071EF0EF0010E72EF0EF0000ECB
:101CE40012003D0161A779EF0EF07CEF0EF0010EBA
:101CF4007DEF0EF0000E1200390196819683958DCA
:101D0400958F3D0164856483648F6081120039017D
:101D140096919693959D959F000E3D01646F000EDC
:101D2400606F1200356E6000D7F0F1FE3E01F8815D
:101D3400120097C01AF098C01BF0120097C01CF054
:101D440098C01DF0120097C01EF098C01FF012003A
:101D540097C020F098C021F0120097C09AF098C064
:101D64009BF01200466E60001BF155FD1200446E9C
:101D7400600013F156FD12003C6E6000F3F058FD54
:101D840012003D01609B609D60991200000E3D01B0
:101D9400626F62851200C20E3E01C16F1200000E16
:101DA4003D01636F12003D015D9D12003D015651DE
:0E1DB40012003D015D8B12003D0154511200E2
:101DC400E7EC0EF0110001001200120012001200E4
:0C1DD40012001200110012001200120098
:020000040020DA
:10000000FF0FFF0FFF0FFF0FFF0FFF0FFF0FFF0F80
:020000040030CA
:0A0000008AFFFFFF9FFFFFFFFFFFD5
:00000001FF
