:0400000057EF00F0C6
:100008007A077A077A077A077A077A077A077507E5
:1000180062067A07E8057A077A077A077A077A077D
:100028007A077A077A077A077A077A077A077A07C0
:100038007A077A077A070A074A077A077A07BF050D
:100048007A077A077A077A072B007A077A077A07F6
:100058006E067A077A077A077A077A07DA06E306D6
:10006800DF041B047A077A077A077A077A077A0780
:100078007A077A072B007A077A077A062B002B0073
:100088002B002B002B002B002B002B007A077A0764
:100098007A077A077A077A072B002B002B002B00A8
:0A00A8007A077A07FF0019EF0CF049
:10100000006014000000004E170000000000000007
:1010100000000000000000000000000000000000D0
:10102000000000000000000000EC1BCE1BB01B0005
:101030000096160000000000000000000000000004
:10104000000A1C0000461C00000000000000000018
:101050000000000000000028190000000000004807
:091060001D00000240001F000009
:10106C006F0060FF86F06F00E8FF87F06F00ECFF09
:10107C0088F06F00D8FF89F06F00DCFF8AF06F00FA
:10108C00E0FF8BF06F00D4FF8CF068EC0EF00009E1
:10109C00D8B453EF08F055EF08F05DEF08F0030EED
:1010AC000D6E3D01609B3CEC0CF0A5EF08F073EC71
:1010BC000EF00009D8B465EF08F067EF08F079EF8F
:1010CC0008F047EC0EF00009D8B46FEF08F071EFA0
:1010DC0008F079EF08F0010E0D6E3D0160998DEC72
:1010EC000DF0A5EF08F052EC0EF00009D8B481EF2A
:1010FC0008F083EF08F093EF08F047EC0EF00009CE
:10110C00D8B48BEF08F08DEF08F093EF08F0020ED7
:10111C000D6E3D01609975EF08F05DEC0EF0000965
:10112C00D8B49BEF08F09DEF08F0A3EF08F0030E86
:10113C000D6E3D01609DA5EF08F03D0160990D50CD
:10114C00D8B4ABEF08F0ADEF08F0B9EF08F002D867
:10115C00B9EF08F00500FA6E2650FD6E2750FE6EB2
:10116C00FF6AFA501200600033F2F5FF60002FF2B4
:10117C00F8FF60002BF2F7FF600027F2F6FF60002B
:10118C0023F2FBFF60001FF2FAFF60001BF2D8FF96
:10119C0011002C50020D600EF324D96E000EF420B9
:1011AC00DA6E000EDE6E000EDD6E3D01F9A7E1EF8A
:1011BC0008F0E3EF08F002EF09F02C50020D600E7E
:1011CC00F324D96E000EF420DA6E0001DF82185081
:1011DC001910D8B4F4EF08F0F6EF08F002EF09F0AC
:1011EC0002D802EF09F00500FA6E1850FD6E195086
:1011FC00FE6EFF6AFA5012003D01F9A308EF09F0E8
:10120C000AEF09F029EF09F02C50020D600EF324BF
:10121C00D96E000EF420DA6E0001DF841650171020
:10122C00D8B41BEF09F01DEF09F029EF09F002D833
:10123C0029EF09F00500FA6E1650FD6E1750FE6E80
:10124C00FF6AFA5012006F00A0F738F02C28070B39
:10125C00396E2B503918D8A436EF09F038EF09F055
:10126C003AEF09F046EF09F0700E2C24D96EDA6AC9
:10127C00000EDA226000E3F0DFFF39C02CF02A2ADE
:10128C001200000EBA6E060EBB6E000EBC6E000E87
:10129C00BD6E000EBE6EC30EC26E000EC36EB80ED7
:1012AC00C46E000EC56E000EC66EC30E3A01406FC2
:1012BC00000E506F200E606F000E706F000E806F6E
:1012CC00000E416F000E516F000E616F000E716FBA
:1012DC00000E816F000E5A6F000E5B6F000E6A6F6E
:1012EC00000E6B6F000E7A6F000E7B6F000E426F5C
:1012FC00060E526F000E626F000E726F000E826F40
:10130C004369536963697369070E836F4469546950
:10131C00646974690F0E846F140EDF6F170EE56F1E
:10132C00130E166F130EDE6F1E0E136F090EE36F86
:10133C00230E096F0A0EE46F240E0A6F000E456F20
:10134C00000E466F000E476F000E556F000E566F65
:10135C00000E576F000E656F000E666F000E676F04
:0E136C00000E856F000E866F000E876F120058
:10137C006F0060FF3DF06F00E8FF3EF06F00ECFF88
:10138C003FF06F00D8FF40F06F00DCFF41F06F00C2
:10139C00E0FF42F06F00D4FF43F03D0164A5D9EFAC
:1013AC0009F0DBEF09F0E6EF09F063A5E0EF09F0D7
:1013BC00E2EF09F0E6EF09F079EC0DF01AEF0AF024
:1013CC0064AFEBEF09F0EDEF09F008EF0AF063AF53
:1013DC00F2EF09F0F4EF09F008EF0AF00C50D8B472
:1013EC00FAEF09F0FCEF09F004EF0AF0000E0C6EB6
:1013FC006391639FA0EC0DF01AEF0AF08DEC0DF0E9
:10140C00E2EF09F064A30DEF0AF00FEF0AF01AEF08
:10141C000AF063A314EF0AF016EF0AF01AEF0AF0C1
:10142C00DEEC0EF03D01639360000FF1F5FF600000
:10143C000BF1F8FF600007F1F7FF600003F1F6FF16
:10144C006000FFF0FBFF6000FBF0FAFF6000F7F0BC
:10145C00D8FF1100390193979E0E0001846F110E75
:10146C00856F39019399B60E246E180E256E000EF9
:10147C003D01E86F000EE96F000EEA6F000EEB6F96
:10148C00000EEC6F000EED6F000EEE6F000EEF6FA6
:10149C00000EF06F000EF16FB00EF26F800EF36F56
:1014AC00080EF46F070EF56F000EF66F200EF76F37
:1014BC00000EF86F800EF96F000EFA6FEE0E000141
:1014CC00986F1D0E996FF6EC0DF0EC0E0001986FF5
:1014DC001D0E996FE7EC0DF0000E0001986F000ED9
:1014EC00996FD8EC0DF0000E0001836F000E826F27
:1014FC00000E2F6E000E2E6E080E2D6E000E2C6E32
:10150C00000E2B6E000E2A6E390193871200D28AC0
:10151C00000ED2BE010E00019A6FD29E550ED46EF3
:10152C00AA0ED46ED490000ED76E000ED66E080E96
:10153C00D56E550ED46EAA0ED46ED4809AB102D04C
:10154C00D29E01D0D28E390181858387838F809F73
:10155C008399859D859F86918693A191D280E00E7B
:10156C000001986F1D0E996FB3EC0EF03901A59127
:10157C00D282E20E0001986F1D0E996FAEEC0EF048
:10158C003901A79BD284E40E0001986F1D0E996F50
:10159C00A9EC0EF012003E01F151D8A4D8EF0AF0DC
:1015AC00DAEF0AF0F7EF0AF0BDA0DFEF0AF0E3EF95
:1015BC000AF0326A322AE4EF0AF0326ABD5032186D
:1015CC00FE0B3218BD6E010E9DEC0EF0090EA7EC51
:1015DC000BF0080EA7EC0BF02C0EA7EC0BF010EF99
:1015EC000BF0BDA2FCEF0AF000EF0BF0326A322ACE
:1015FC0001EF0BF0326A3246BD503218FD0B321837
:10160C00BD6E070EA7EC0BF0060EA7EC0BF00A0E46
:10161C00A7EC0BF01200000E3E01DE6F000EDF6F28
:10162C00000EE06F000EE16F000EE46F000EE56F30
:10163C00000EEA6F000EEC6F000EF16F010EF36FEF
:10164C00000EF46F000EF56F000EF66F000EF76FC4
:10165C00000EF96F100EFA6F000EFB6F000EFC6F90
:10166C00030EFD6F000EFE6F1F0EFF6F840EF86FE2
:10167C003901A195E60E0001986F1D0E996FB8EC1B
:10168C000EF039019185A1971200040E3D015D6F9A
:10169C00800E5E6F080E5F6F030E656F000E636F3A
:1016AC00000E646F000E606F000E566F510E3A0103
:1016BC006A6F510E6B6F3CEC0EF03D0164916495BA
:1016CC005D8F050EE82EFED700F000F000F000F064
:1016DC0000F000F000F03D01639163956485DC0E31
:0E16EC000001986F1D0E996F05EC0EF01200B4
:1016FC006F00E8FF36F06F00ECFF37F03901A39F65
:10170C001D50B76E600073F0B6FF1A501B10D8B4A2
:10171C0092EF0BF094EF0BF0A0EF0BF002D8A0EFD0
:10172C000BF00500FA6E1A50FD6E1B50FE6EFF6A30
:10173C00FA5012006000DFF0FBFF6000DBF0FAFFF4
:10174C001100316E390193B9AEEF0BF0B0EF0BF025
:10175C00B5EF0BF06000C7F0EAFDCDEF0BF02D50AC
:10176C00D8B4BBEF0BF0BDEF0BF0CDEF0BF0780E58
:10177C002F24D96EDA6A000EDA226000C7F0DFFF80
:10178C002F28070B306E30C02FF093992D069389BC
:02179C00120039
:1017A0006F00E8FF33F06F00ECFF34F03901A195D2
:1017B00000019C519D11D8B4E0EF0BF0E2EF0BF06B
:1017C000EEEF0BF002D8EEEF0BF00500FA6E9C5135
:1017D000FD6E9D51FE6EFF6AFA5012006000D3F05C
:1017E000FBFF6000CFF0FAFF1100000E3D016B6FB0
:1017F000000E6C6F000E6D6F000E6E6F000E6F6F3F
:10180000000E706F000E716F000E726F000E736F1E
:10181000000E746F000E756F000E766F000E786FFD
:10182000000E796F000E7A6F000E7B6F010E7C6FD9
:101830001200DA0EF66E1D0EF76E000EF86E09003D
:101840006F00D4FF48F009006F00D4FF49F000EEAC
:1018500060F0260EEE6AE806FDE100EE01F02F0EC4
:10186000EE6AE806FDE1080ED56E000ED66E000E9B
:10187000D76E00010BEF0DF0DAEC0EF0CCEC0EF0B1
:1018800089EC0EF0D1EC0EF03D015D9F7EEC0EF088
:101890003D01649164955D8F050EE82EFED700F042
:1018A00000F000F000F000F000F000F03D01639166
:1018B000639564851200080E2D6061EF0CF063EFF4
:1018C0000CF075EF0CF0780E2E24D96EDA6A000E4B
:1018D000DA22DF503D01EA6F2E28070B0001966FD8
:1018E00096C02EF02D2A77EF0CF039019399120053
:1018F000000E3D01D26F000ED46F000ED66F000EA9
:10190000D86F000EDA6F000EDB6F000EDC6F000E7A
:10191000DD6F000EDE6F200EDF6F000EE06F800EB9
:10192000E16F000EE26F1200E70EB76E5F0EB66E4B
:10193000700EB96EB75000019A6FB6501C6E9AC007
:101940001DF0EA0E986F1D0E996FA4EC0EF0390190
:10195000A39F938F900EB86E120030EC0EF047EC00
:1019600009F011EC0BF0D6EC0EF04BEC0BF0F5ECB3
:101970000BF023EC0EF094EC0CF030EC0AF078EC69
:101980000CF08DEC0AF012006F0060FF8DF06F001C
:10199000E8FF8EF06F00ECFF8FF03901A19121EC90
:1019A0000DF060003FF2FBFF60003BF2FAFF6000C9
:0619B00037F2D8FF110020
:1019B8006F0060FF90F06F00E8FF91F06F00ECFFA0
:1019C80092F03901A59137EC0DF060004BF2FBFF66
:0E19D800600047F2FAFF600043F2D8FF1100F2
:1019E8006F0060FF93F06F00E8FF94F06F00ECFF6A
:1019F80095F03901A79B4DEC0DF0600057F2FBFF05
:101A0800600053F2FAFF60004FF2D8FF1100ADEC0E
:101A18000CF0A20E0001986F150E996FB8EC0EF03D
:101A2800C60E0001986F1A0E996FA4EC0EF0D28EB4
:101A3800D28C1DEF0DF057EF00F022502310D8B4D0
:101A480028EF0DF02AEF0DF036EF0DF002D836EF43
:101A58000DF00500FA6E2250FD6E2350FE6EFF6AEF
:101A6800FA501200120020502110D8B43EEF0DF0A9
:101A780040EF0DF04CEF0DF002D84CEF0DF00500E3
:101A8800FA6E2050FD6E2150FE6EFF6AFA50120069
:101A980012001E501F10D8B454EF0DF056EF0DF081
:101AA80062EF0DF002D862EF0DF00500FA6E1E50DD
:101AB800FD6E1F50FE6EFF6AFA50120012000E4AA9
:101AC8000F2A48500E1807E149500F18D8A46FEF95
:101AD8000DF071EF0DF078EF0DF0000E0F6E000EA7
:101AE8000E6E000E9DEC0EF01200000E016E000E40
:101AF800036E0268000E046E000E056E000E086E7E
:101B0800000E096EDAEC0EF0CCEC0EF0D1EC0EF013
:101B18001200DEEC0EF0E1EC0EF00009D8B497EFFD
:101B28000DF099EF0DF09FEF0DF0000EC2EC0EF0E6
:101B3800000EBDEC0EF012000A500B10D8B4A7EF3F
:101B48000DF0A9EF0DF0ACEF0DF00A50C2EC0EF05D
:0E1B5800D8800234C7EC0EF0E4EC0EF0120060
:101B68006F0060FF45F0E7EC0EF0600023F0D9FF4E
:101B7800600027F0DAFFDF6E084A092A600017F1D3
:101B8800D8FF11006F0060FF47F0600013F0D9FF25
:101B9800600017F0DAFF044A052ADF50BDEC0EF0AA
:101BA80060001FF1D8FF1100000198519911D8B4B5
:101BB800E0EF0DF0E2EF0DF0E6EF0DF098C080F0E9
:101BC80099C081F01200000198519911D8B4EFEF33
:101BD8000DF0F1EF0DF0F5EF0DF098C016F099C08B
:101BE80017F01200000198519911D8B4FEEF0DF0CA
:101BF80000EF0EF004EF0EF098C018F099C019F03D
:101C08001200000198519911D8B40DEF0EF00FEFA2
:101C18000EF013EF0EF098C026F099C027F01200CE
:101C28006F00E8FF3AF06F00ECFF3BF0CFEC08F0F4
:101C38006000EFF0FBFF6000EBF0FAFF1100400ED0
:101C48003D01156F000E166F000E1C6F1F0E196FE9
:101C5800C496020E146F1200600E3901D96F000E7F
:101C6800DB6F000EDD6F080EDF6F000EDE6F1200F7
:101C7800390196819683958D958F3D01648564839E
:101C8800648F608112003D015EBB4DEF0EF050EF96
:101C98000EF0010E51EF0EF0000E12003D0161B77B
:101CA80058EF0EF05BEF0EF0010E5CEF0EF0000E39
:101CB80012003D0160BD63EF0EF066EF0EF0010EFD
:101CC80067EF0EF0000E12003D0160BB6EEF0EF0E4
:101CD80071EF0EF0010E72EF0EF0000E12003D01D2
:101CE80061A779EF0EF07CEF0EF0010E7DEF0EF09C
:101CF800000E1200390196819683958D958F3D01CE
:101D080064856483648F608112003901969196938B
:101D1800959D959F000E3D01646F000E606F120047
:101D28006F0060FF97F05BEC0CF060005FF2D8FF8B
:101D38001100356E6000D7F0F1FE3E01F881120007
:101D480098C01AF099C01BF0120098C01EF099C0F4
:101D58001FF0120098C020F099C021F0120098C01E
:101D680022F099C023F0120098C09CF099C09DF011
:101D78001200466E60001BF155FD1200446E6000B3
:101D880013F156FD12003C6E6000F3F058FD12008E
:101D98003D01609B609D60991200000E3D01626FDD
:101DA80062851200C20E3E01C16F1200000E3D0195
:101DB800636F12003D015D9D12003D0156511200F6
:101DC8003D015D8B12003D0154511200EFEC0EF005
:101DD800110001001200120012001200120012007D
:081DE8001100120012001200AC
:020000040020DA
:10000000FF0FFF0FFF0FFF0FFF0FFF0FFF0FFF0F80
:020000040030CA
:0A0000008AFFFFFF9FFFFFFFFFFFD5
:00000001FF
