:0400000057EF00F0C6
:10000800C307C307C307C307C307C307C307BE079D
:10001800B006C3071C06C307C307C307C307C30744
:10002800C307C307C307C307C307C307C307C30778
:10003800C307C307C30750068A06C307C307F305E8
:10004800C307C307C307C3072B00C307C307C307F7
:10005800BC06C307C307C307C307C307280731077D
:10006800E0041B04C307C307C307C307C307C307C9
:10007800C307C3072B00C307C307C8062B002B0001
:100088002B002B002B002B002B002B00C307C307D2
:10009800C307C307C307C3072B002B002B002B0084
:0A00A800C307C307FF007FEF0BF052
:10100000004615000000001E18000000000000004F
:1010100000000000000000000000000000000000D0
:10102000000000000000000000241D061DE81C0058
:101030000066170000000000000000000000000033
:1010400000421D0000601D0000001C0000000000A8
:101050000000000000C41E5E1A00000000000060D6
:091060001E00008340023F000065
:10106C006F0060FF92F06F00E8FF93F06F00ECFFF1
:10107C0094F06F00D8FF95F06F00DCFF96F06F00D6
:10108C00E0FF97F06F00D4FF98F0F5EC0EF000093C
:10109C00D8B453EF08F055EF08F05DEF08F0030EED
:1010AC000D6E3D01609B81EC0CF0A5EF08F000EC9F
:1010BC000FF00009D8B465EF08F067EF08F079EF8E
:1010CC0008F0D4EC0EF00009D8B46FEF08F071EF13
:1010DC0008F079EF08F0010E0D6E3D01609929ECD6
:1010EC000EF0A5EF08F0DFEC0EF00009D8B481EF9C
:1010FC0008F083EF08F093EF08F0D4EC0EF0000941
:10110C00D8B48BEF08F08DEF08F093EF08F0020ED7
:10111C000D6E3D01609975EF08F0EAEC0EF00009D8
:10112C00D8B49BEF08F09DEF08F0A3EF08F0030E86
:10113C000D6E3D01609DA5EF08F03D0160990D50CD
:10114C00D8B4ABEF08F0ADEF08F0B9EF08F002D867
:10115C00B9EF08F00500FA6E2250FD6E2350FE6EBA
:10116C00FF6AFA501200600063F2F5FF60005FF254
:10117C00F8FF60005BF2F7FF600057F2F6FF6000CB
:10118C0053F2FBFF60004FF2FAFF60004BF2D8FF06
:10119C001100000EBA6E060EBB6E000EBC6E000E79
:1011AC00BD6E000EBE6EC30EC26E000EC36E980EE8
:1011BC00C46E000EC56E000EC66EC30E3A01406FB3
:1011CC00000E506F000E606F000E706F000E806F7F
:1011DC00000E416F000E516F000E616F000E716FAB
:1011EC00000E816F000E5A6F000E5B6F000E6A6F5F
:1011FC00000E6B6F000E7A6F000E7B6F000E426F4D
:10120C00060E526F000E626F000E726F000E826F30
:10121C004369536963697369070E836F4469546941
:10122C00646974690F0E846F170EE56F140EDF6F0F
:10123C00130E166F1F0E156F090EE36F230E096F39
:10124C000A0EE46F240E0A6F130EDE6F1E0E136F60
:10125C00000E456F000E466F000E476F000E556F67
:10126C00000E566F000E576F000E656F000E666F06
:10127C00000E676F000E856F000E866F000E876F75
:10128C0012002850020D600EF324D96E000EF420CB
:10129C00DA6E000EDE6E000EDD6E3D01F9A759EF21
:1012AC0009F05BEF09F07AEF09F02850020D600E9F
:1012BC00F324D96E000EF420DA6E0001DF82165092
:1012CC001710D8B46CEF09F06EEF09F07AEF09F053
:1012DC0002D87AEF09F00500FA6E1650FD6E175021
:1012EC00FE6EFF6AFA5012003D01F9A380EF09F07F
:1012FC0082EF09F0A1EF09F02850020D600EF324E3
:10130C00D96E000EF420DA6E0001DF841450151033
:10131C00D8B493EF09F095EF09F0A1EF09F002D8DA
:10132C00A1EF09F00500FA6E1450FD6E1550FE6E1B
:10133C00FF6AFA5012006F00A0F735F02828070B4F
:10134C00366E27503618D8A4AEEF09F0B0EF09F07E
:10135C00B2EF09F0BEEF09F0800E2824D96EDA6ADC
:10136C00000EDA226000D7F0DFFF36C028F0262A04
:02137C0012005D
:101380006F0060FF3BF06F00E8FF3CF06F00ECFF88
:101390003DF06F00D8FF3EF06F00DCFF3FF06F00C4
:1013A000E0FF40F06F00D4FF41F03D0164A5DBEFAA
:1013B00009F0DDEF09F0E8EF09F063A5E2EF09F0CD
:1013C000E4EF09F0E8EF09F015EC0EF01CEF0AF07D
:1013D00064AFEDEF09F0EFEF09F00AEF0AF063AF49
:1013E000F4EF09F0F6EF09F00AEF0AF00C50D8B468
:1013F000FCEF09F0FEEF09F006EF0AF0000E0C6EAC
:101400006391639F3CEC0EF01CEF0AF029EC0EF0A8
:10141000E4EF09F064A30FEF0AF011EF0AF01CEFFC
:101420000AF063A316EF0AF018EF0AF01CEF0AF0B7
:101430006FEC0FF03D016393600007F1F5FF600072
:1014400003F1F8FF6000FFF0F7FF6000FBF0F6FF2C
:101450006000F7F0FBFF6000F3F0FAFF6000EFF0D0
:10146000D8FF11003E01F151D8A439EF0AF03BEF4B
:101470000AF075EF0AF0BE90010E29EC0FF03F0E56
:1014800062EC0FF0FF0E62EC0FF03E01F0510F0B1B
:101490002E6E2F6AA90E2E24D96E000E2F20DA6E22
:1014A000DF500FEC0CF03E01EF390F0B0F0B2E6EDF
:1014B0002F6AA90E2E24D96E000E2F20DA6EDF506F
:1014C0000FEC0CF03E01EF510F0B2E6E2F6AA90EA0
:1014D0002E24D96E000E2F20DA6EDF500FEC0CF0A8
:1014E0002C0E0FEC0CF0A2EF0AF0F0510F0B2E6E49
:1014F0002F6AA90E2E24D96E000E2F20DA6EDF502F
:101500000FEC0CF03E01EF390F0B0F0B2E6E2F6A14
:10151000A90E2E24D96E000E2F20DA6EDF500FECAC
:101520000CF03E01EF510F0B2E6E2F6AA90E2E24E8
:10153000D96E000E2F20DA6EDF500FEC0CF00A0E81
:101540000FEC0CF01200390193978E0E00018E6F94
:10155000120E8F6F390193997E0E0001906F190E54
:10156000916F000E3D01E86F000EE96F000EEA6F0B
:10157000000EEB6F000EEC6F000EED6F000EEE6FC5
:10158000000EEF6F000EF06F000EF16FB00EF26FF5
:10159000800EF36F080EF46F070EF56F000EF66FF6
:1015A000200EF76F000EF86F800EF96F000EFA6FC5
:1015B000120E0001A56F1F0EA66F92EC0EF0100E1A
:1015C0000001A56F1F0EA66F83EC0EF0000E000148
:1015D000A56F000EA66F74EC0EF0000E00018D6F6B
:1015E000000E8C6F000E2B6E000E2A6E100E296EF0
:1015F000000E286E000E276E000E266E39019387AE
:101600001200D28A000ED2BE010E0001A76FD29E38
:10161000550ED46EAA0ED46ED490000ED76E000E66
:10162000D66E080ED56E550ED46EAA0ED46ED4802A
:10163000A7B102D0D29E01D0D28E39018185838795
:10164000838F809F8399859D859F86918693A191A5
:10165000D280040E0001A56F1F0EA66F3FEC0FF0A5
:101660003901A591D282060E0001A56F1F0EA66F4B
:101670003AEC0FF03901A79BD284080E0001A56F48
:101680001F0EA66F35EC0FF01200000E3E01DE6F4C
:10169000000EDF6F000EE06F000EE16F000EE46FD2
:1016A000000EE56F000EEA6F000EEC6F000EF16F9A
:1016B000010EF36F000EF46F000EF56F000EF66F63
:1016C000000EF76F000EF96F100EFA6F000EFB6F31
:1016D000000EFC6F030EFD6F000EFE6F1F0EFF6FFE
:1016E000840EF86F3901A1950A0E0001A56F1F0E37
:1016F000A66F44EC0FF039019185A1971200420EBC
:10170000F66E1E0EF76E000EF86E00EEA9F010EEEB
:1017100010F009006F00D7FFEEFFE550E150F9E14E
:10172000FE0EF66E1E0EF76E000EF86E09006F00CC
:10173000D4FF46F009006F00D4FF47F000EE60F0E0
:10174000320EEE6AE806FDE100EE01F02B0EEE6AC5
:10175000E806FDE1080ED56E000ED66E000ED76EBF
:101760000001F8EF0CF0040E3D015D6F800E5E6F1E
:10177000080E5F6F030E656F000E636F000E646FDF
:10178000000E606F000E566F510E3A016A6F510ED7
:101790006B6FC9EC0EF03D01649164955D8F050E91
:1017A000E82EFED700F000F000F000F000F000F0AE
:1017B00000F03D01639163956485000E0001A56F03
:0A17C0001F0EA66FA1EC0EF0120040
:1017CC006F00E8FF33F06F00ECFF34F03901A39F9A
:1017DC001B50B76E60006BF0B6FF18501910D8B4E0
:1017EC00FAEF0BF0FCEF0BF008EF0CF002D808EF5F
:1017FC000CF00500FA6E1850FD6E1950FE6EFF6A63
:10180C00FA5012006000D3F0FBFF6000CFF0FAFF3B
:10181C0011002D6E390193B916EF0CF018EF0CF086
:10182C001DEF0CF06000B7F0EAFD35EF0CF029501D
:10183C00D8B423EF0CF025EF0CF035EF0CF0700E54
:10184C002B24D96EDA6A000EDA226000B7F0DFFFC3
:10185C002B280F0B2C6E2CC02BF0939929069389F7
:02186C00120068
:101870006F00E8FF30F06F00ECFF31F03901A19507
:101880000001B951BA11D8B448EF0CF04AEF0CF08E
:1018900056EF0CF002D856EF0CF00500FA6EB95175
:1018A000FD6EBA51FE6EFF6AFA5012006000C7F07A
:1018B000FBFF6000C3F0FAFF1100000E3D016B6FEB
:1018C000000E6C6F000E6D6F000E6E6F000E6F6F6E
:1018D000000E706F000E716F000E726F000E736F4E
:1018E000000E746F000E756F000E766F000E786F2D
:1018F000000E796F000E7A6F000E7B6F010E7C6F09
:1019000012006BEC0FF058EC0FF016EC0FF05DECE2
:101910000FF03D015D9F0BEC0FF03D01649164956C
:101920005D8F050EE82EFED700F000F000F000F00D
:1019300000F000F000F03D016391639564851200B2
:101940006F00E8FF38F06F00ECFF39F047EC09F06A
:10195000BDA2ADEF0CF0B1EF0CF0376A372AB2EF51
:101960000CF0376A3746BD503718FD0B3718BD6E7F
:101970006000E7F0FBFF6000E3F0FAFF1100100EDB
:101980002960C5EF0CF0C7EF0CF0D9EF0CF0700E2A
:101990002A24D96EDA6A000EDA22DF503D01EA6F9E
:1019A0002A280F0B0001A26FA2C02AF0292ADBEF20
:1019B0000CF0390193991200000E3D01D26F000E18
:1019C000D46F000ED66F000ED86F000EDA6F000EC7
:1019D000DB6F000EDC6F000EDD6F000EDE6F200E81
:1019E000DF6F000EE06F800EE16F000EE26F1200FD
:1019F00048EC0DF0640E0001A56F140EA66F44ECC8
:101A00000FF04E0E0001A56F1B0EA66F30EC0FF00D
:101A1000000E00EC0EF0BB88BE80D28ED28C0FEF91
:061A20000DF057EF00F08D
:101A28006F0060FFA4F0BDA21CEF0DF021EF0DF0D8
:101A38000001A36BA32B23EF0DF00001A36BA347B9
:101A4800BD50A319FD0BA319BD6EBFEC0CF06000CF
:101A580093F2D8FF1100E70EB76E5F0EB66E700EE8
:101A6800B96EB7500001A76FB6501A6EA7C01BF029
:101A78000E0EA56F1F0EA66F30EC0FF03901A39F55
:101A8800938F900EB86E1200BDEC0EF0CFEC08F0FC
:101A980045EC0BF067EC0FF0B3EC0BF05DEC0CF0E1
:101AA800B0EC0EF02FEC0DF0A3EC0AF0DCEC0CF02F
:061AB80001EC0BF012002E
:101AC0006F0060FF99F06F00E8FF9AF06F00ECFF85
:101AD0009BF03901A191BEEC0DF060006FF2FBFFAD
:0E1AE00060006BF2FAFF600067F2D8FF1100A1
:101AF0006F0060FF9CF06F00E8FF9DF06F00ECFF4F
:101B00009EF03901A591D4EC0DF060007BF2FBFF53
:0E1B1000600077F2FAFF600073F2D8FF110058
:101B20006F0060FF9FF06F00E8FFA0F06F00ECFF18
:101B3000A1F03901A79BEAEC0DF0600087F2FBFFF2
:101B4000600083F2FAFF60007FF2D8FF110000010D
:101B5000884B892B4650881907E147508919D8A42A
:101B6000B4EF0DF0B6EF0DF0BDEF0DF0000E896F84
:101B7000000E886F000E29EC0FF01200205021108B
:101B8000D8B4C5EF0DF0C7EF0DF0D3EF0DF002D8CC
:101B9000D3EF0DF00500FA6E2050FD6E2150FE6E61
:101BA000FF6AFA50120012001E501F10D8B4DBEF6B
:101BB0000DF0DDEF0DF0E9EF0DF002D8E9EF0DF0DB
:101BC0000500FA6E1E50FD6E1F50FE6EFF6AFA5041
:101BD000120012001C501D10D8B4F1EF0DF0F3EFFD
:101BE0000DF0FFEF0DF002D8FFEF0DF00500FA6EDB
:101BF0001C50FD6E1D50FE6EFF6AFA50120012005E
:101C00003D0114BF06EF0EF008EF0EF014EF0EF0DA
:101C1000830E146F400E156F020E166F000E1C6FB0
:101C20003F0E196FC496148F1200000E016E000E45
:101C3000036E0268000E046E000E056E000E086E44
:101C4000000E096E6BEC0FF058EC0FF05DEC0FF02E
:101C500012006FEC0FF072EC0FF00009D8B433EF04
:101C60000EF035EF0EF03BEF0EF0000E4EEC0FF0E5
:101C7000000E49EC0FF012000A500B10D8B443EFDD
:101C80000EF045EF0EF048EF0EF00A504EEC0FF05C
:0E1C9000D880023453EC0FF075EC0FF0120008
:101CA0006F0060FF43F078EC0FF0600023F0D9FF85
:101CB000600027F0DAFFDF6E084A092A60000FF1A2
:101CC000D8FF11006F0060FF45F0600013F0D9FFEE
:101CD000600017F0DAFF044A052ADF5049EC0FF0E4
:101CE000600017F1D8FF11000001A551A611D8B46A
:101CF0007CEF0EF07EEF0EF082EF0EF0A5C08AF0C2
:101D0000A6C08BF012000001A551A611D8B48BEF2C
:101D10000EF08DEF0EF091EF0EF0A5C014F0A6C0FE
:101D200015F012000001A551A611D8B49AEF0EF0DB
:101D30009CEF0EF0A0EF0EF0A5C016F0A6C017F0B5
:101D400012000001A551A611D8B4A9EF0EF0ABEF17
:101D50000EF0AFEF0EF0A5C022F0A6C023F01200E7
:101D6000400E3D01156F000E166F000E1C6F3F0EEA
:101D7000196FC496020E146F1200600E3901D96FEC
:101D8000000EDB6F000EDD6F080EDF6F000EDE6FE2
:101D90001200390196819683958D958F3D0164855A
:101DA0006483648F608112003D015EBBDAEF0EF048
:101DB000DDEF0EF0010EDEEF0EF0000E12003D0121
:101DC00061B7E5EF0EF0E8EF0EF0010EE9EF0EF06F
:101DD000000E12003D0160BDF0EF0EF0F3EF0EF0CB
:101DE000010EF4EF0EF0000E12003D0160BBFBEFA0
:101DF0000EF0FEEF0EF0010EFFEF0EF0000E1200DF
:101E00003D0161A706EF0FF009EF0FF0010E0AEF99
:101E10000FF0000E1200390196819683958D958FF3
:101E20003D0164856483648F60811200390196915D
:101E30009693959D959F000E3D01646F000E606F17
:101E40001200303132333435363738394142434469
:101E50004546326E6000CBF0F1FE3E01F881120083
:101E6000A5C018F0A6C019F01200A5C01CF0A6C0AD
:101E70001DF01200A5C01EF0A6C01FF01200A5C0E4
:101E800020F0A6C021F01200A5C0B9F0A6C0BAF09B
:101E90001200446E600013F155FD1200426E6000A6
:101EA0000BF156FD12003A6E6000EBF058FD120087
:101EB0003D01609B609D60991200000E3D01626FC4
:101EC000628512002C6E6000B3F011FD1200C20E8C
:101ED0003E01C16F1200000E3D01636F12003D0113
:101EE0005D9D12003D01565112003D015D8B1200B7
:061EF0003D0154511200F7
:101EF80081EC0FF011000100120012001200120014
:0C1F080012001200110012001200120062
:020000040020DA
:10000000FF0FFF0FFF0FFF0FFF0FFF0FFF0FFF0F80
:020000040030CA
:0A0000008AFFFFFF9FFFFFFFFFFFD5
:00000001FF
