:0400000057EF00F0C6
:1000080094079407940794079407940794078F0715
:1000180076069407000694079407940794079407B4
:1000280094079407940794079407940794079407F0
:100038009407940794071C07610794079407D80549
:1000480094079407940794072B0094079407940740
:10005800820694079407940794079407EC06F5061C
:100068003B051B0494079407940794079407940787
:10007800940794072B00940794078E062B002B00F7
:100088002B002B002B002B002B002B009407940730
:1000980094079407940794072B002B002B002B0040
:0A00A80094079407FF00D9EF0BF056
:101000000030140000000010160000000000000076
:1010100000000000000000000000000000000000D0
:10102000000000000000000000341C161CF81B002B
:1010300000FA1600000000000000000000000000A0
:1010400000521C00008E1C0000EA1A000000000084
:101050000000000000081E7619000000000000A437
:091060001D00008340023F000066
:10106C006F0060FF41F06F00E8FF42F06F00ECFF93
:10107C0043F08CEC0EF00009D8B447EF08F049EFC0
:10108C0008F051EF08F0030E0D6E3D01609B49EC2A
:10109C000CF099EF08F097EC0EF00009D8B459EF6A
:1010AC0008F05BEF08F06DEF08F06BEC0EF0000948
:1010BC00D8B463EF08F065EF08F06DEF08F0010E9F
:1010CC000D6E3D016099B2EC0DF099EF08F076ECE5
:1010DC000EF00009D8B475EF08F077EF08F087EF41
:1010EC0008F06BEC0EF00009D8B47FEF08F081EF3C
:1010FC0008F087EF08F0020E0D6E3D01609969EF64
:10110C0008F081EC0EF00009D8B48FEF08F091EFE5
:10111C0008F097EF08F0030E0D6E3D01609D99EFFE
:10112C0008F03D0160990D50D8B49FEF08F0A1EF85
:10113C0008F0ADEF08F002D8ADEF08F00500FA6E3C
:10114C002650FD6E2750FE6EFF6AFA5012006000AA
:10115C000FF1FBFF60000BF1FAFF600007F1D8FF05
:10116C001100000EBA6E060EBB6E000EBC6E000EA9
:10117C00BD6E000EBE6EC30EC26E000EC36E980E18
:10118C00C46E000EC56E000EC66EC30E3A01406FE3
:10119C00000E506F000E606F000E706F000E806FAF
:1011AC00000E416F000E516F000E616F000E716FDB
:1011BC00000E816F000E5A6F000E5B6F000E6A6F8F
:1011CC00000E6B6F000E7A6F000E7B6F000E426F7D
:1011DC00060E526F000E626F000E726F000E826F61
:1011EC004369536963697369070E836F4469546972
:1011FC00646974690F0E846F170EE56F140EDF6F40
:10120C00130E166F1F0E156F090EE36F230E096F69
:10121C000A0EE46F240E0A6F130EDE6F1E0E136F90
:10122C00000E456F000E466F000E476F000E556F97
:10123C00000E566F000E576F000E656F000E666F36
:10124C00000E676F000E856F000E866F000E876FA5
:10125C0012002C50020D600EF324D96E000EF420F7
:10126C00DA6E000EDE6E000EDD6E3D01F9A741EF69
:10127C0009F043EF09F062EF09F02C50020D600EFB
:10128C00F324D96E000EF420DA6E0001DF821850C0
:10129C001910D8B454EF09F056EF09F062EF09F0C9
:1012AC0002D862EF09F00500FA6E1850FD6E195065
:1012BC00FE6EFF6AFA5012003D01F9A368EF09F0C7
:1012CC006AEF09F089EF09F02C50020D600EF3243F
:1012DC00D96E000EF420DA6E0001DF841650171060
:1012EC00D8B47BEF09F07DEF09F089EF09F002D853
:1012FC0089EF09F00500FA6E1650FD6E1750FE6E60
:10130C00FF6AFA5012006F00A0F73AF02C28070B76
:10131C003B6E2B503B18D8A496EF09F098EF09F0D0
:10132C009AEF09F0A6EF09F0800E2C24D96EDA6A38
:10133C00000EDA226000EBF0DFFF3BC02CF02A2A13
:10134C0012003E01F151D8A4AEEF09F0B0EF09F054
:10135C00EAEF09F0BE90010ECBEC0EF03F0E04EC60
:10136C000FF0FF0E04EC0FF03E01F0510F0B336E3B
:10137C00346A8E0E3324D96E000E3420DA6EDF50B0
:10138C0008EC0BF03E01EF390F0B0F0B336E346A88
:10139C008E0E3324D96E000E3420DA6EDF5008EC3A
:1013AC000BF03E01EF510F0B336E346A8E0E33246B
:1013BC00D96E000E3420DA6EDF5008EC0BF02C0ED8
:1013CC0008EC0BF017EF0AF0F0510F0B336E346A88
:1013DC008E0E3324D96E000E3420DA6EDF5008ECFA
:1013EC000BF03E01EF390F0B0F0B336E346A8E0E80
:1013FC003324D96E000E3420DA6EDF5008EC0BF07B
:10140C003E01EF510F0B336E346A8E0E3324D96EBE
:10141C00000E3420DA6EDF5008EC0BF00A0E08ECEC
:10142C000BF01200390193975E0E00018C6F120EB7
:10143C008D6F39019399080E246E190E256E000ECE
:10144C003D01E86F000EE96F000EEA6F000EEB6FC6
:10145C00000EEC6F000EED6F000EEE6F000EEF6FD6
:10146C00000EF06F000EF16FB00EF26F800EF36F86
:10147C00080EF46F070EF56F000EF66F200EF76F67
:10148C00000EF86F800EF96F000EFA6F560E000109
:10149C00A96F1E0EAA6F1AEC0EF0540E0001A96F64
:1014AC001E0EAA6F0BEC0EF0000E0001A96F000EC1
:1014BC00AA6FFCEC0DF0000E00018B6F000E8A6F12
:1014CC00000E2F6E000E2E6E100E2D6E000E2C6E5A
:0E14DC00000E2B6E000E2A6E3901938712004F
:1014EC006F0060FF3FF03D0164A57FEF0AF081EFD4
:1014FC000AF08CEF0AF063A586EF0AF088EF0AF089
:10150C008CEF0AF08AEC0DF0C0EF0AF064AF91EFAB
:10151C000AF093EF0AF0AEEF0AF063AF98EF0AF01F
:10152C009AEF0AF0AEEF0AF00C50D8B4A0EF0AF024
:10153C00A2EF0AF0AAEF0AF0000E0C6E6391639F03
:10154C00C5EC0DF0C0EF0AF0B2EC0DF088EF0AF02C
:10155C0064A3B3EF0AF0B5EF0AF0C0EF0AF063A38F
:10156C00BAEF0AF0BCEF0AF0C0EF0AF011EC0FF082
:10157C003D0163936000FFF0D8FF1100D28A000E8A
:10158C00D2BE010E0001AB6FD29E550ED46EAA0EC8
:10159C00D46ED490000ED76E000ED66E080ED56E9B
:1015AC00550ED46EAA0ED46ED480ABB102D0D29E9E
:1015BC0001D0D28E390181858387838F809F839957
:1015CC00859D859F86918693A191D280460E0001C0
:1015DC00A96F1E0EAA6FE1EC0EF03901A591D28213
:1015EC00480E0001A96F1E0EAA6FDCEC0EF039013B
:1015FC00A79BD2844A0E0001A96F1E0EAA6FD7ECCE
:10160C000EF01200326E390193B90FEF0BF011EF9F
:10161C000BF016EF0BF06000CBF0EAFD40EF0BF097
:10162C002D50D8B41CEF0BF01EEF0BF030EF0BF07D
:10163C00700E2F24D96EDA6A000EDA226000CBF01D
:10164C00DFFF2F280F0B316E31C02FF093992D0631
:10165C0040EF0BF0BDA235EF0BF039EF0BF0306A19
:10166C00302A3AEF0BF0306A3046BD503018FD0B83
:10167C003018BD6E390193891200000E3E01DE6FE9
:10168C00000EDF6F000EE06F000EE16F000EE46FD6
:10169C00000EE56F000EEA6F000EEC6F000EF16F9E
:1016AC00010EF36F000EF46F000EF56F000EF66F67
:1016BC00000EF76F000EF96F100EFA6F000EFB6F35
:1016CC00000EFC6F030EFD6F000EFE6F1F0EFF6F02
:1016DC00840EF86F3901A1954C0E0001A96F1E0EF6
:1016EC00AA6FE6EC0EF039019185A1971200040E59
:1016FC003D015D6F800E5E6F080E5F6F030E656FB0
:10170C00000E636F000E646F000E606F000E566F5C
:10171C00510E3A016A6F510E6B6F60EC0EF03D0189
:10172C00649164955D8F050EE82EFED700F000F0F5
:10173C0000F000F000F000F000F03D0163916395C3
:10174C006485420E0001A96F1E0EAA6F29EC0EF0E3
:02175C00120079
:101760006F00E8FF38F06F00ECFF39F03901A39FFC
:101770001D50B76E600073F0B6FF1A501B10D8B43E
:10178000C4EF0BF0C6EF0BF0D2EF0BF002D8D2EFA4
:101790000BF00500FA6E1A50FD6E1B50FE6EFF6ACC
:1017A000FA5012006000E7F0FBFF6000E3F0FAFF80
:1017B0001100700EF66E1D0EF76E000EF86E00EE44
:1017C0008EF010EE12F009006F00D7FFEEFFE5502B
:1017D000E150F9E100EE60F02E0EEE6AE806FDE160
:1017E00000EE01F02F0EEE6AE806FDE1080ED56E60
:0E17F000000ED66E000ED76E0001A0EF0CF0BA
:101800006F00E8FF35F06F00ECFF36F03901A1956D
:101810000001AD51AE11D8B410EF0CF012EF0CF086
:101820001EEF0CF002D81EEF0CF00500FA6EAD5161
:10183000FD6EAE51FE6EFF6AFA5012006000DBF0E2
:10184000FBFF6000D7F0FAFF1100000E3D016B6F47
:10185000000E6C6F000E6D6F000E6E6F000E6F6FDE
:10186000000E706F000E716F000E726F000E736FBE
:10187000000E746F000E756F000E766F000E786F9D
:10188000000E796F000E7A6F000E7B6F010E7C6F79
:1018900012000DEC0FF0FAEC0EF0ADEC0EF0FFECD8
:1018A0000EF03D015D9FA2EC0EF03D016491649548
:1018B0005D8F050EE82EFED700F000F000F000F07E
:1018C00000F000F000F03D01639163956485120023
:1018D000000E3D01D26F000ED46F000ED66F000EC9
:1018E000D86F000EDA6F000EDB6F000EDC6F000E9B
:1018F000DD6F000EDE6F200EDF6F000EE06F800EDA
:10190000E16F000EE26F1200100E2D608AEF0CF0F6
:101910008CEF0CF09DEF0CF0700E2E24D96EDA6A6D
:10192000000EDA22DF503D01EA6F2E280F0B476EC2
:1019300047C02EF02D2A9FEF0CF039019399120029
:10194000D4EC0CF04E0E0001A96F130EAA6FE6EC5A
:101950000EF03C0E0001A96F1B0EAA6FD2EC0EF028
:10196000000E75EC0DF0BB88BE80D28ED28CB7EF26
:101970000CF057EF00F0E70EB76E5F0EB66E700E0C
:10198000B96EB7500001AB6FB6501C6EABC01DF006
:10199000520EA96F1E0EAA6FD2EC0EF03901A39F52
:1019A000938F900EB86E120054EC0EF0B7EC08F066
:1019B00043EC0BF009EC0FF07DEC0BF025EC0CF098
:1019C00047EC0EF0BBEC0CF018EC0AF068EC0CF0F5
:0619D000C4EC0AF0120055
:1019D8006F0060FFA0F06F00E8FFA1F06F00ECFF60
:1019E800A2F03901A19133EC0DF060008BF2FBFFFE
:0E19F800600087F2FAFF600083F2D8FF110052
:101A08006F0060FFA3F06F00E8FFA4F06F00ECFF29
:101A1800A5F03901A59149EC0DF0600097F2FBFFA4
:0E1A2800600093F2FAFF60008FF2D8FF110009
:101A38006F0060FFA6F06F00E8FFA7F06F00ECFFF3
:101A4800A8F03901A79B5FEC0DF06000A3F2FBFF43
:101A580060009FF2FAFF60009BF2D8FF110022504D
:101A68002310D8B43AEF0DF03CEF0DF048EF0DF02D
:101A780002D848EF0DF00500FA6E2250FD6E235093
:101A8800FE6EFF6AFA501200120020502110D8B4DE
:101A980050EF0DF052EF0DF05EEF0DF002D85EEF53
:101AA8000DF00500FA6E2050FD6E2150FE6EFF6AA3
:101AB800FA50120012001E501F10D8B466EF0DF035
:101AC80068EF0DF074EF0DF002D874EF0DF005001B
:101AD800FA6E1E50FD6E1F50FE6EFF6AFA5012001D
:101AE80012003D0114BF7BEF0DF07DEF0DF089EF83
:101AF8000DF0830E146F400E156F020E166F000E58
:101B08001C6F3F0E196FC496148F1200000E016EE1
:101B1800000E036E0268000E046E000E056E000EC5
:101B2800086E000E096E0DEC0FF0FAEC0EF0FFECEB
:101B38000EF012000E4A0F2A020E0E180F10D8A42B
:101B4800A8EF0DF0AAEF0DF0B1EF0DF0000E0F6E3B
:101B5800000E0E6E000ECBEC0EF0120011EC0FF022
:101B680014EC0FF00009D8B4BCEF0DF0BEEF0DF087
:101B7800C4EF0DF0000EF0EC0EF0000EEBEC0EF0E2
:101B880012000A500B10D8B4CCEF0DF0CEEF0DF0C8
:101B9800D1EF0DF00A50F0EC0EF0D8800234F5ECDD
:101BA8000EF017EC0FF012006F0060FF44F01AEC13
:101BB8000FF0600023F0D9FF600027F0DAFFDF6E36
:101BC800084A092A600013F1D8FF11006F0060FF6E
:101BD80046F0600013F0D9FF600017F0DAFF044AFE
:101BE800052ADF50EBEC0EF060001BF1D8FF110066
:101BF8000001A951AA11D8B404EF0EF006EF0EF0B7
:101C08000AEF0EF0A9C088F0AAC089F012000001FE
:101C1800A951AA11D8B413EF0EF015EF0EF019EF71
:101C28000EF0A9C016F0AAC017F012000001A951C1
:101C3800AA11D8B422EF0EF024EF0EF028EF0EF020
:101C4800A9C018F0AAC019F012000001A951AA11E0
:101C5800D8B431EF0EF033EF0EF037EF0EF0A9C025
:101C680026F0AAC027F012006F00E8FF3CF06F00D2
:101C7800ECFF3DF02FEC09F06000F7F0FBFF60008F
:101C8800F3F0FAFF1100400E3D01156F000E166FBC
:101C9800000E1C6F3F0E196FC496020E146F1200CF
:101CA800600E3901D96F000EDB6F000EDD6F080E74
:101CB800DF6F000EDE6F1200390196819683958DD5
:101CC800958F3D0164856483648F608112003D01B6
:101CD8005EBB71EF0EF074EF0EF0010E75EF0EF0B3
:101CE800000E12003D0161B77CEF0EF07FEF0EF0A1
:101CF800010E80EF0EF0000E12003D0160BD87EF6F
:101D08000EF08AEF0EF0010E8BEF0EF0000E1200AF
:101D18003D0160BB92EF0EF095EF0EF0010E96EFCD
:101D28000EF0000E12003D0161A79DEF0EF0A0EF2E
:101D38000EF0010EA1EF0EF0000E1200390196818F
:101D48009683958D958F3D0164856483648F60814A
:101D58001200390196919693959D959F000E3D012D
:101D6800646F000E606F120030313233343536370D
:0A1D7800383941424344454601005A
:101D84006F0060FF48F084EC0CF0600023F1D8FF92
:101D94001100376E6000DFF0F1FE3E01F8811200A1
:101DA400A9C01AF0AAC01BF01200A9C01EF0AAC054
:101DB4001FF01200A9C020F0AAC021F01200A9C08F
:101DC40022F0AAC023F01200A9C0ADF0AAC0AEF060
:101DD4001200456E600017F155FD1200406E600060
:101DE40003F156FD12003E6E6000FBF058FD120038
:101DF4003D01609B609D60991200000E3D01626F81
:101E040062851200306E6000C3F011FD1200C20E34
:101E14003E01C16F1200000E3D01636F12003D01CF
:101E24005D9D12003D01565112003D015D8B120073
:061E34003D0154511200B3
:101E3C0022EC0FF01100120012001200120012001E
:021E4C00120082
:081E5000110012001200120043
:020000040020DA
:10000000FF0FFF0FFF0FFF0FFF0FFF0FFF0FFF0F80
:020000040030CA
:0A0000008AFFFFFF9FFFFFFFFFFFD5
:00000001FF
