:0400000057EF00F0C6
:10000800C507C507C507C507C507C507C507B90794
:10001800A206C507AA05C507C507C507C507C507B9
:10002800C507C507C507C507C507C507C507C50768
:10003800C507C507C5074406BD07C507C507C005E9
:100048005805BB07D505C5072B00C507C507C50754
:10005800B906C507C507C507C507C5071A07230792
:10006800CD042104C507C507C507C507C507C507CA
:10007800C507C5072B00C507C507D0062B002B00F1
:100088002B002B002B002B002B002B00C507C507CE
:10009800C507C507C507C5072B002B002B002B007C
:0A00A800C507C507FF00EAEF0AF0E4
:1010000000781200000000A8170000000000000097
:1010100000000000000000000000000000000000D0
:10102000000000000000000000EC1CCE1CB01C0002
:101030000042160000000000000000000000000058
:10104000000A1D0000281D0000C81B000000000051
:101050000000000000941E8A1800000000000062DA
:101060001E0000581AFE1E021F0000581E00002617
:101070001A0000000000004E1E00008340023F00E6
:01108000006F
:101084006F0060FFA0F06F00E8FFA1F06F00ECFFBD
:10109400A2F0D9EC0EF00009D8B453EF08F055EFE4
:1010A40008F05DEF08F0030E0D6E3D01609B68ECE7
:1010B4000CF0A5EF08F0E4EC0EF00009D8B465EFED
:1010C40008F067EF08F079EF08F0B8EC0EF00009CB
:1010D400D8B46FEF08F071EF08F079EF08F0010E63
:1010E4000D6E3D0160990DEC0EF0A5EF08F0C3EC18
:1010F4000EF00009D8B481EF08F083EF08F093EF05
:1011040008F0B8EC0EF00009D8B48BEF08F08DEFBE
:1011140008F093EF08F0020E0D6E3D01609975EF33
:1011240008F0CEEC0EF00009D8B49BEF08F09DEF68
:1011340008F0A3EF08F0030E0D6E3D01609DA5EFCE
:1011440008F03D0160990D50D8B4ABEF08F0ADEF55
:1011540008F0BAEF08F002D8BAEF08F00500FA6E0A
:1011640000019C51FD6E9D51FE6EFF6AFA50120003
:1011740060008BF2FBFF600087F2FAFF600083F2ED
:10118400D8FF1100000EBA6E060EBB6E000EBC6EC8
:10119400000EBD6E000EBE6E030EC26E000EC36E58
:1011A400980EC46E000EC56E000EC66E030E3A0194
:1011B400406F000E506F000E606F000E706F000ED7
:1011C400806F000E416F000E516F000E616F000EB4
:1011D400716F000E816F000E5A6F000E5B6F000E70
:1011E4006A6F000E6B6F000E7A6F000E7B6F000E3D
:1011F400426F060E526F000E626F000E726F000E89
:10120400826F4369536963697369070E836F446925
:101214005469646974690F0E846F170EE56F140EB8
:10122400DF6F130E166F1F0E156F090EE36F230E7B
:10123400096F0A0EE46F240E0A6F130EDE6F1E0E82
:10124400136F000E456F000E466F000E476F000EC1
:10125400556F000E566F000E576F000E656F000E2F
:10126400666F000E676F000E856F000E866F000EAE
:10127400876F120039019397000E0001986F000EDA
:10128400996F39019399820E00019A6F190E9B6F21
:10129400000E3D01E86F000EE96F000EEA6F000ECC
:1012A400EB6F000EEC6F000EED6F000EEE6F000E94
:1012B400EF6F000EF06F000EF16FB00EF26F800E44
:1012C400F36F080EF46F070EF56F000EF66F200E25
:1012D400F76F000EF86F800EF96F000EFA6F000EB4
:1012E4000001AF6F000EB06F76EC0EF0000E00013F
:1012F400AF6F000EB06F67EC0EF0000E0001AF6F21
:10130400000EB06F58EC0EF0000E00018B6F000E53
:101314008A6F000E2A6E000E296E100E286E000EC3
:10132400276E000E266E000E256E3901938712007B
:101334006F0060FF43F03D0164A5A3EF09F0A5EF42
:1013440009F0B0EF09F063A5AAEF09F0ACEF09F0DA
:10135400B0EF09F0F9EC0DF0E4EF09F064AFB5EF8C
:1013640009F0B7EF09F0D2EF09F063AFBCEF09F071
:10137400BEEF09F0D2EF09F00C50D8B4C4EF09F075
:10138400C6EF09F0CEEF09F0000E0C6E6391639F77
:1013940020EC0EF0E4EF09F00DEC0EF0ACEF09F0E8
:1013A40064A3D7EF09F0D9EF09F0E4EF09F063A3E0
:1013B400DEEF09F0E0EF09F0E4EF09F066EC0FF07E
:1013C4003D01639360000FF1D8FF11003E01F1511C
:1013D400D8A4EFEF09F0F1EF09F02EEF0AF0BE9078
:1013E400010E0DEC0FF07FEC0FF03E01F0513009CF
:1013F4004AEC0FF03E01EF514AEC0FF03E01F05180
:101404000F0B3D6E3E6AB30E3D24D96E000E3E2096
:10141400DA6EDF50D4EC0BF03E01EF390F0B0F0BFB
:101424003D6E3E6AB30E3D24D96E000E3E20DA6E48
:10143400DF50D4EC0BF03E01EF510F0B3D6E3E6AD2
:10144400B30E3D24D96E000E3E20DA6EDF50D4EC8C
:101454000BF02C0ED4EC0BF01200D28A000ED2BE8C
:10146400010E0001B16FD29E550ED46EAA0ED46E39
:10147400D490000ED76E000ED66E080ED56E550EA3
:10148400D46EAA0ED46ED480B1B102D0D29E01D053
:10149400D28E390183878389838F84818485809F59
:1014A4008195859D859F86918693A191D2800C0E0E
:1014B4000001AF6F1F0EB06F40EC0FF03901A59122
:1014C400D2820E0E0001AF6F1F0EB06F3BEC0FF017
:1014D4003901A79BD284100E0001AF6F1F0EB06FAD
:1014E40036EC0FF01200000E3E01DE6F000EDF6FCF
:1014F400000EE06F000EE16F000EE46F000EE56F6A
:10150400000EEA6F000EEC6F000EF16F010EF36F28
:10151400000EF46F000EF56F000EF66F000EF76FFD
:10152400000EF96F100EFA6F000EFB6F000EFC6FC9
:10153400030EFD6F000EFE6F1F0EFF6F840EF86F1B
:101544003901A195060E0001AF6F1F0EB06F45EC77
:0A1554000FF039019185A1971200F4
:101560006F00E8FF36F06F00ECFF37F03901A4910F
:10157000E70E346E570E336ECEEC0DF0BDA2C3EF06
:101580000AF0C7EF0AF0356A352AC8EF0AF0356A63
:101590003546BD503518FD0B3518BD6E1C501D105D
:1015A000D8B4D5EF0AF0D7EF0AF0E3EF0AF002D88B
:1015B000E3EF0AF00500FA6E1C50FD6E1D50FE6E42
:1015C000FF6AFA5012006000DFF0FBFF6000DBF002
:1015D000FAFF11000A0EF66E1E0EF76E000EF86E80
:1015E00000EEB3F010EE10F009006F00D7FFEEFF31
:1015F000E550E150F9E1FA0EF66E1E0EF76E000EA0
:10160000F86E00EE44F010EE04F009006F00D7FF12
:10161000EEFFE550E150F9E100EE60F03E0EEE6ABB
:10162000E806FDE100EE01F02A0EEE6AE806FDE1B3
:10163000080ED56E000ED66E000ED76E0001DDEFDF
:101640000CF0040E3D015D6F800E5E6F080E5F6F43
:10165000030E656F000E636F000E646F000E606F07
:10166000000E566F510E3A016A6F510E6B6FADEC62
:101670000EF03D01649164955D8F050EE82EFED756
:1016800000F000F000F000F000F000F000F03D018C
:10169000639163956485080E0001AF6F1F0EB06FF4
:0616A00085EC0EF01200C3
:1016A8006F0060FF3FF06F00E8FF40F06F00ECFF55
:1016B80041F03901A1950001C351C411D8B467EFB5
:1016C8000BF069EF0BF075EF0BF002D875EF0BF02C
:1016D8000500FA6EC351FD6EC451FE6EFF6AFA50E2
:1016E8001200600007F1FBFF600003F1FAFF6000E1
:0616F800FFF0D8FF110015
:101700006F00E8FF2DF06F00ECFF2EF03901A39F72
:1017100000019151B76E600043F2B6FF8E518F11F8
:10172000D8B495EF0BF097EF0BF0A3EF0BF002D8C6
:10173000A3EF0BF00500FA6E8E51FD6E8F51FE6E19
:10174000FF6AFA5012006000BBF0FBFF6000B7F0C8
:10175000FAFF11006F00E8FF31F06F00ECFF32F08C
:101760003901A495BE80BB98BB8800018C518D11B6
:10177000D8B4BDEF0BF0BFEF0BF0CBEF0BF002D8FE
:10178000CBEF0BF00500FA6E8C51FD6E8D51FE6EA5
:10179000FF6AFA50120081EC0FF06000CBF0FBFF03
:1017A0006000C7F0FAFF11003C6E390193B9DBEF1E
:1017B0000BF0DDEF0BF0E2EF0BF06000F3F0EAFD71
:1017C000FAEF0BF02850D8B4E8EF0BF0EAEF0BF08B
:1017D000FAEF0BF0700E2A24D96EDA6A000EDA22C4
:1017E0006000F3F0DFFF2A280F0B3B6E3BC02AF0AE
:1017F0009399280693891200BDA001EF0CF005EF24
:101800000CF0346A342A06EF0CF0346ABD503418F8
:10181000FE0B3418BD6E0E4A0F2A46500E1807E113
:1018200047500F18D8A417EF0CF019EF0CF020EF69
:101830000CF0000E0F6E000E0E6E000E14EC0FF08A
:101840001200000E3D016B6F000E6C6F000E6D6F8D
:10185000000E6E6F000E6F6F000E706F000E716FD6
:10186000000E726F000E736F000E746F000E756FB6
:10187000000E766F000E786F000E796F000E7A6F93
:10188000000E7B6F010E7C6F1200000EB36E000E17
:10189000B46E020EB56EF30EB16E7F0EB06EB05028
:1018A0006F00C4FEB1F00001B26BB1C0B2F0B16B19
:1018B000B111206EB251216E160EAF6F1F0EB06FB8
:1018C00031EC0FF03901A4919481030EB26E120035
:1018D00062EC0FF054EC0FF0FAEC0EF059EC0FF054
:1018E0003D015D9FEFEC0EF03D01649164955D8FCD
:1018F000050EE82EFED700F000F000F000F000F03A
:0E19000000F000F03D016391639564851200D4
:101910002450D8A48EEF0CF090EF0CF097EF0CF061
:10192000242A6F00A0F744F0456AA4EF0CF0000EE3
:10193000246E4450386E3D01E851446E38C045F085
:1019400044C046F045C047F01100000E3D01D26F83
:10195000000ED46F000ED66F000ED86F000EDA6F37
:10196000000EDB6F000EDC6F000EDD6F000EDE6F11
:10197000200EDF6F000EE06F800EE16F000EE26F51
:101980001200100E2860C7EF0CF0C9EF0CF0DAEF70
:101990000CF0700E2924D96EDA6A000EDA22DF50BC
:1019A0003D01EA6F29280F0B3A6E3AC029F0282A28
:1019B000DCEF0CF0390193991200F8EC0CF0D00E2A
:1019C0000001AF6F130EB06F45EC0FF0F80E000181
:1019D000AF6F170EB06F27EC0FF0000EE4EC0DF0B8
:1019E000BB88BE80D28ED28CF4EF0CF057EF00F0A3
:1019F000A1EC0EF0C4EC08F075EC0AF05EEC0FF010
:101A000021EC0BF021EC0CF094EC0EF013EC0DF04B
:101A100045EC0CF02CEC0DF03CEC09F0A5EC0CF0D6
:101A20002FEC0AF01200E70EB76E5F0EB66E700E66
:101A3000B96EB7500001B16FB650906FB1C091F060
:101A40001A0EAF6F1F0EB06F27EC0FF03901A39F76
:101A5000938F900EB86E1200010EAE6E200EAD6E1A
:101A6000000EAF6E1F0EAB6E000EAA6E180E0001B8
:101A7000AF6F1F0EB06F2CEC0FF03901A495948559
:061A8000300EAC6E1200F6
:101A88006F0060FFA6F06F00E8FFA7F06F00ECFFA3
:101A9800A8F03901A1915BEC0DF06000A3F2FBFF07
:101AA80060009FF2FAFF60009BF2D8FF110000016E
:101AB80096519711D8B463EF0DF065EF0DF071EF03
:101AC8000DF002D871EF0DF00500FA6E9651FD6E1B
:101AD8009751FE6EFF6AFA50120012006F0060FF05
:101AE800A9F06F00E8FFAAF06F00ECFFABF0390136
:101AF800A59189EC0DF06000AFF2FBFF6000ABF23E
:101B0800FAFF6000A7F2D8FF110000019451951167
:101B1800D8B491EF0DF093EF0DF09FEF0DF002D8D0
:101B28009FEF0DF00500FA6E9451FD6E9551FE6E13
:101B3800FF6AFA50120012006F0060FFACF06F00ED
:101B4800E8FFADF06F00ECFFAEF03901A79BB7ECF2
:101B58000DF06000BBF2FBFF6000B7F2FAFF600017
:101B6800B3F2D8FF1100000192519311D8B4BFEF1E
:101B78000DF0C1EF0DF0CDEF0DF002D8CDEF0DF067
:101B88000500FA6E9251FD6E9351FE6EFF6AFA508F
:101B980012001200B2A4D3EF0DF0D5EF0DF0DEEF76
:101BA8000DF0B2903450B16E6000CFF0B0FFB2804B
:101BB800E3EF0DF03450B16E6000CFF0B0FF1200CB
:101BC8003D0114BFEAEF0DF0ECEF0DF0F8EF0DF06A
:101BD800830E146F400E156F020E166F000E1C6FE9
:101BE800180E196FC496148F1200000E016E000EA5
:101BF800036E0268000E046E000E056E000E086E7D
:101C0800000E096E62EC0FF054EC0FF059EC0FF077
:101C1800120066EC0FF069EC0FF00009D8B417EF6A
:101C28000EF019EF0EF01FEF0EF0000E21EC0FF082
:101C3800000E1BEC0FF012000A500B10D8B427EF5F
:101C48000EF029EF0EF02CEF0EF00A5021EC0FF0F9
:0E1C5800D88002344FEC0FF06CEC0FF012004D
:101C68006F0060FFA3F06FEC0FF0600023F0D9FF66
:101C7800600027F0DAFFDF6E084A092A60008FF259
:101C8800D8FF11006F0060FFA5F0600013F0D9FFC6
:101C9800600017F0DAFF044A052ADF501BEC0FF04A
:101CA800600097F2D8FF11000001AF51B011D8B40D
:101CB80060EF0EF062EF0EF066EF0EF0AFC088F046
:101CC800B0C089F012000001AF51B011D8B46FEF65
:101CD8000EF071EF0EF075EF0EF0AFC016F0B0C059
:101CE80017F012000001AF51B011D8B47EEF0EF01A
:101CF80080EF0EF084EF0EF0AFC018F0B0C019F00E
:101D080012000001AF51B011D8B48DEF0EF08FEF73
:101D18000EF093EF0EF0AFC09CF0B0C09DF0120033
:101D2800400E3D01156F000E166F000E1C6F180E49
:101D3800196FC496020E146F1200600E3901D96F24
:101D4800000EDB6F000EDD6F080EDF6F000EDE6F1A
:101D58001200390196819683958D958F3D01648592
:101D68006483648F608112003D015EBBBEEF0EF09C
:101D7800C1EF0EF0010EC2EF0EF0000E12003D0191
:101D880061B7C9EF0EF0CCEF0EF0010ECDEF0EF0FB
:101D9800000E12003D0160BDD4EF0EF0D7EF0EF03B
:101DA800010ED8EF0EF0000E12003D0160BBDFEF10
:101DB8000EF0E2EF0EF0010EE3EF0EF0000E12004F
:101DC8003D0161A7EAEF0EF0EDEF0EF0010EEEEF28
:101DD8000EF0000E1200390196819683958D958F2D
:101DE8003D0164856483648F608112003901969196
:101DF8009693959D959F000E3D01646F000E606F50
:101E080012003031323334353637383941424344A1
:101E180045463B6E6000EFF0F1FE3E01F88112008E
:101E2800336E6000CFF0F1FE3E01F8811200000130
:101E3800A46F600093F255FD120000019F6F6000CF
:101E48007FF256FD1200AFC08EF0B0C08FF01200C6
:101E5800AFC08CF0B0C08DF01200AFC01CF0B0C0A5
:101E68001DF01200AFC092F0B0C093F01200AFC0E6
:101E780094F0B0C095F01200AFC096F0B0C097F0E3
:101E88001200AFC0C3F0B0C0C4F012003B6E6000D7
:101E9800EFF011FD1200426E60000BF158FD1200C8
:101EA8003D01609B609D60991200000E3D01626FCC
:101EB80062851200C20E3E01C16F1200000E3D0184
:101EC800636F12003D015D9D12003D0156511200E5
:101ED8003D015D8B12003D015451120085EC0FF05D
:021EE8001100E7
:061EEC003901A49311006E
:101EF400C1EC0CF0110001000200AC8E1200AC9E8B
:0E1F0400120012001200120012001200120051
:081F140011001200120012007E
:020000040020DA
:10000000FF0FFF0FFF0FFF0FFF0FFF0FFF0FFF0F80
:020000040030CA
:0A0000008AFFFDFF9FFFFFFFFFFFD7
:00000001FF
