:0400000057EF00F0C6
:100008006A066A066A066A066A066A066A06610671
:10001800BB056A0618056A066A066A066A066A065B
:100028006A066A066A066A066A066A066A066A0648
:100038006A066A066A066B0563066A066A062D057D
:100048006A066A0642056A062B006A066A066A0696
:10005800C7056A066A066A066A066A066A066A06BC
:100068006A066A066A066A066A066A066A066A0608
:100078006A066A062B006A066A06D3052B002B005F
:100088002B002B002B002B002B002B006A066A0686
:100098006A066A066A066A062B002B002B002B00EC
:0A00A8006A066A06FF00F9EF09F08E
:10100000004812000000005A150000000000000017
:1010100000000000000000000000000000000000D0
:10102000000000000000000000BA189C187E1800A4
:1010300000D8180000541800000000000000000054
:10104000007219BC1696199A190000401900008AFE
:1010500016000000000000361900008340023F0027
:01106000008F
:101062003E01F151D8A438EF08F03AEF08F079EFD9
:1010720008F0BE90010E8DEC0CF0CBEC0CF03E01B2
:10108200F0513009B9EC0CF03E01EF51B9EC0CF023
:101092003E01F0510F0B3B6E3C6A780E3B24D96E39
:1010A200000E3C20DA6EDF50ADEC0AF03E01EF3963
:1010B2000F0B0F0B3B6E3C6A780E3B24D96E000E71
:1010C2003C20DA6EDF50ADEC0AF03E01EF510F0B1F
:1010D2003B6E3C6A780E3B24D96E000E3C20DA6EE1
:1010E200DF50ADEC0AF02C0EADEC0AF0B3EF08F0D5
:1010F200BE90CBEC0CF03E01F051B009B9EC0CF013
:101102003E01EF51B9EC0CF03E01F0510F0B3B6E7A
:101112003C6A780E3B24D96E000E3C20DA6EDF501A
:10112200ADEC0AF03E01EF390F0B0F0B3B6E3C6A40
:10113200780E3B24D96E000E3C20DA6EDF50ADEC07
:101142000AF03E01EF510F0B3B6E3C6A780E3B24D6
:10115200D96E000E3C20DA6EDF50ADEC0AF00A0EBA
:10116200ADEC0AF01200000EBA6E000EBB6E000E5D
:10117200BC6E000EBD6E000EBE6E030EC26E060E7B
:10118200C36E980EC46E000EC56E000EC66E030EC0
:101192003A01406F060E506F000E606F000E706FC6
:1011A200000E806F000E416F000E516F000E616FD6
:1011B200000E716F000E816F000E5A6F000E5B6F92
:1011C200000E6A6F000E6B6F000E7A6F000E7B6F5F
:1011D200000E426F000E526F000E626F000E726FB1
:1011E200000E826F4369536963697369070E836FE7
:1011F20044695469646974690F0E846F170EE56F50
:10120200140EDF6F130E166F1F0E156F130EDE6FA7
:101212001E0E136F000E456F000E466F000E476FD5
:10122200000E556F000E566F000E576F000E656F61
:10123200000E666F000E676F000E856F000E866FE0
:10124200000E876F120039019397000E466E000E52
:10125200476E93991E0E486E160E496E000E3D01A2
:10126200E86F000EE96F000EEA6F000EEB6F000EE2
:10127200EC6F000EED6F000EEE6F000EEF6F000EC2
:10128200F06F000EF16FB00EF26F800EF36F080E6A
:10129200F46F070EF56F000EF66F200EF76F000E5B
:1012A200F86F800EF96F000EFA6F000E0001916F59
:1012B200000E926F5DEC0CF0000E0001916F000EBB
:1012C200926F4EEC0CF0000E0001916F000E926FC7
:1012D2003FEC0CF0000E206E000E1F6E000E2F6E03
:1012E200000E2E6E100E2D6E000E2C6E000E2B6E4A
:1012F200000E2A6E390193871200D28A000ED2BEE6
:10130200010E0001936FD29E550ED46EAA0ED46EBA
:10131200D490000ED76E000ED66E080ED56E550E06
:10132200D46EAA0ED46ED48093B102D0D29E01D0D4
:10133200D28E390183878389838F8485809F8195AB
:10134200A191D280A20E0001916F190E926FAFECA3
:101352000CF03901A591D282A40E0001916F190EF1
:10136200926FAAEC0CF03901A79BD284A60E000161
:10137200916F190E926FA5EC0CF01200000E3E0157
:10138200DE6F000EDF6F000EE06F000EE16F000EE9
:10139200E46F000EE56F000EEA6F000EEC6F000EB8
:1013A200F16F010EF36F000EF46F000EF56F000E79
:1013B200F66F000EF76F000EF96F100EFA6F000E47
:1013C200FB6F000EFC6F030EFD6F000EFE6F1F0E13
:1013D200FF6F840EF86F3901A1959E0E0001916F87
:1013E200190E926FB4EC0CF039019185A19712009D
:1013F2000A0EF66E190EF76E000EF86E00EE78F019
:1014020010EE10F009006F00D7FFEEFFE550E1503B
:10141200F9E1920EF66E190EF76E000EF86E00EEFE
:101422004CF010EE04F009006F00D7FFEEFFE5501C
:10143200E150F9E100EE60F0180EEE6AE806FDE117
:1014420000EE01F02F0EEE6AE806FDE1080ED56E01
:10145200000ED66E000ED76E00012BEF0BF06F0060
:1014620060FF3DF06F00E8FF3EF06F00ECFF3FF0E1
:101472003901A1954A504B10D8B442EF0AF044EF1B
:101482000AF050EF0AF002D850EF0AF00500FA6EA7
:101492004A50FD6E4B50FE6EFF6AFA501200600019
:1014A200FFF0FBFF6000FBF0FAFF6000F7F0D8FFEF
:1014B20011006F00E8FF31F06F00ECFF32F03901EC
:1014C200A39F4550B76E600013F1B6FF4250431020
:1014D200D8B46EEF0AF070EF0AF07CEF0AF002D88F
:1014E2007CEF0AF00500FA6E4250FD6E4350FE6E2C
:1014F200FF6AFA5012006000CBF0FBFF6000C7F0F9
:04150200FAFF1100DB
:101508006F00E8FF34F06F00ECFF35F03901A49567
:10151800BE80BB98BB8840504110D8B496EF0AF003
:1015280098EF0AF0A4EF0AF002D8A4EF0AF0050039
:10153800FA6E4050FD6E4150FE6EFF6AFA5012007E
:10154800CDEC0CF06000D7F0FBFF6000D3F0FAFFA1
:1015580011003A6E390193B9B4EF0AF0B6EF0AF008
:10156800BBEF0AF06000EBF0EAFDD3EF0AF02D5074
:10157800D8B4C1EF0AF0C3EF0AF0D3EF0AF0600E57
:101588002F24D96EDA6A000EDA226000EBF0DFFF52
:101598002F280F0B396E39C02FF093992D06938998
:0215A80012002F
:1015AC002950D8A4DCEF0AF0DEEF0AF0E5EF0AF0E0
:1015BC00292A6F00A0F74CF04D6AF2EF0AF0000EEA
:1015CC00296E4C50366E3D01E8514C6E36C04DF0D4
:1015DC004CC04EF04DC04FF01100000E3D01D26FCB
:1015EC00000ED46F000ED66F000ED86F000EDA6F9F
:1015FC00000EDB6F000EDC6F000EDD6F000EDE6F79
:10160C00200EDF6F000EE06F800EE16F000EE26FB8
:10161C001200100E2D6015EF0BF017EF0BF028EFEA
:10162C000BF0600E2E24D96EDA6A000EDA22DF502F
:10163C003D01EA6F2E280F0B386E38C02EF02D2A84
:10164C002AEF0BF039019399120015EC0CF02AECEF
:10165C000CF0620E0001916F100E926FB4EC0CF056
:10166C00FE0E0001916F170E926F9BEC0CF0BB8875
:10167C00BE80D28ED28C41EF0BF057EF00F0E70E0C
:10168C00B76E5F0EB66E700EB96EB7500001936FE9
:10169C00B650446E93C045F0AC0E916F190E926F1C
:1016AC009BEC0CF03901A39F938F900EB86E120037
:1016BC00010EAE6E200EAD6E000EAF6E1F0EAB6E39
:1016CC00000EAA6EAA0E0001916F190E926FA0EC7B
:0E16DC000CF03901A4959485300EAC6E12000E
:1016EC006F0060FF88F06F00E8FF89F06F00ECFF7F
:1016FC008AF03901A191BDEC0BF060002BF2FBFFDD
:0E170C00600027F2FAFF600023F2D8FF110000
:10171C006F0060FF8BF06F00E8FF8CF06F00ECFF48
:10172C008DF03901A591D3EC0BF0600037F2FBFF83
:0E173C00600033F2FAFF60002FF2D8FF1100B8
:10174C006F0060FF8EF06F00E8FF8FF06F00ECFF12
:10175C0090F03901A79BE9EC0BF0600043F2FBFF22
:10176C0060003FF2FAFF60003BF2D8FF11002550F9
:10177C002610D8B4C4EF0BF0C6EF0BF0D2EF0BF081
:10178C0002D8D2EF0BF00500FA6E2550FD6E2650F4
:10179C00FE6EFF6AFA501200120023502410D8B4C7
:1017AC00DAEF0BF0DCEF0BF0E8EF0BF002D8E8EF20
:1017BC000BF00500FA6E2350FD6E2450FE6EFF6A8E
:1017CC00FA501200120021502210D8B4F0EF0BF096
:1017DC00F2EF0BF0FEEF0BF002D8FEEF0BF0050072
:1017EC00FA6E2150FD6E2250FE6EFF6AFA50120006
:1017FC001200114A122A4E50111807E14F501218BC
:10180C00D8A40BEF0CF00DEF0CF014EF0CF0000E55
:10181C00126E000E116E000E94EC0CF0120079ECAE
:10182C000CF0B4EC08F0BFEC09F0BEEC0CF06CEC76
:10183C000CF045EC0BF05EEC0BF024EC09F0F3EC47
:10184C000AF07EEC09F012003D0114BF30EF0CF0F1
:10185C0032EF0CF03EEF0CF0830E146F400E156F50
:10186C00020E166F000E1C6F180E196FC496148F93
:10187C001200000191519211D8B447EF0CF049EFCE
:10188C000CF04DEF0CF091C019F092C01AF0120050
:10189C00000191519211D8B456EF0CF058EF0CF0A6
:1018AC005CEF0CF091C01BF092C01CF01200000118
:1018BC0091519211D8B465EF0CF067EF0CF06BEF0F
:1018CC000CF091C01DF092C01EF01200400E3D01B4
:1018DC00156F000E166F000E1C6F180E196FC49644
:1018EC00020E146F1200600E3901D96F000EDB6FFF
:1018FC00000EDD6F080EDF6F000EDE6F1200303150
:10190C003233343536373839414243444546396EE3
:10191C006000E7F0F1FE3E01F8811200336E6000CA
:10192C00CFF0F1FE3E01F881120091C042F092C05E
:10193C0043F0120091C040F092C041F0120091C0EF
:10194C0021F092C022F0120091C023F092C024F03A
:10195C00120091C025F092C026F0120091C04AF0FE
:10196C0092C04BF01200396E6000E7F011FD1200CE
:0E197C00C20E3E01C16F1200D0EC0CF0110043
:10198C000FEC0BF0110001000200AC8E1200AC9EAB
:10199C0012001200120012001200120011001200AC
:0219AC00120027
:020000040020DA
:10000000FF0FFF0FFF0FFF0FFF0FFF0FFF0FFF0F80
:020000040030CA
:0A0000008AFFFDFF9FFFFFFFFFFFD7
:00000001FF
